{"contracts/MONarcade.sol":{"MONarcade":{"abi":[{"inputs":[{"internalType":"address","name":"_feeCollector","type":"address"}],"stateMutability":"nonpayable","type":"constructor"},{"inputs":[],"name":"ECDSAInvalidSignature","type":"error"},{"inputs":[{"internalType":"uint256","name":"length","type":"uint256"}],"name":"ECDSAInvalidSignatureLength","type":"error"},{"inputs":[{"internalType":"bytes32","name":"s","type":"bytes32"}],"name":"ECDSAInvalidSignatureS","type":"error"},{"inputs":[],"name":"EnforcedPause","type":"error"},{"inputs":[],"name":"ExpectedPause","type":"error"},{"inputs":[{"internalType":"address","name":"owner","type":"address"}],"name":"OwnableInvalidOwner","type":"error"},{"inputs":[{"internalType":"address","name":"account","type":"address"}],"name":"OwnableUnauthorizedAccount","type":"error"},{"inputs":[],"name":"ReentrancyGuardReentrantCall","type":"error"},{"anonymous":false,"inputs":[{"indexed":false,"internalType":"address","name":"oldCollector","type":"address"},{"indexed":false,"internalType":"address","name":"newCollector","type":"address"}],"name":"FeeCollectorChanged","type":"event"},{"anonymous":false,"inputs":[{"indexed":false,"internalType":"uint256","name":"oldFee","type":"uint256"},{"indexed":false,"internalType":"uint256","name":"newFee","type":"uint256"}],"name":"FeePercentageChanged","type":"event"},{"anonymous":false,"inputs":[{"indexed":false,"internalType":"address","name":"to","type":"address"},{"indexed":false,"internalType":"uint256","name":"amount","type":"uint256"}],"name":"FundsRecovered","type":"event"},{"anonymous":false,"inputs":[{"indexed":true,"internalType":"bytes32","name":"gameId","type":"bytes32"},{"indexed":false,"internalType":"string","name":"reason","type":"string"}],"name":"GameCancelled","type":"event"},{"anonymous":false,"inputs":[{"indexed":true,"internalType":"bytes32","name":"gameId","type":"bytes32"},{"indexed":false,"internalType":"address[]","name":"players","type":"address[]"},{"indexed":false,"internalType":"uint256","name":"stakeAmount","type":"uint256"},{"indexed":false,"internalType":"uint256","name":"expiresAt","type":"uint256"}],"name":"GameCreated","type":"event"},{"anonymous":false,"inputs":[{"indexed":false,"internalType":"uint256","name":"oldTime","type":"uint256"},{"indexed":false,"internalType":"uint256","name":"newTime","type":"uint256"}],"name":"GameExpirationTimeChanged","type":"event"},{"anonymous":false,"inputs":[{"indexed":true,"internalType":"bytes32","name":"gameId","type":"bytes32"},{"indexed":true,"internalType":"address","name":"winner","type":"address"},{"indexed":false,"internalType":"uint256","name":"reward","type":"uint256"}],"name":"GameResultSubmitted","type":"event"},{"anonymous":false,"inputs":[{"indexed":true,"internalType":"address","name":"previousOwner","type":"address"},{"indexed":true,"internalType":"address","name":"newOwner","type":"address"}],"name":"OwnershipTransferred","type":"event"},{"anonymous":false,"inputs":[{"indexed":false,"internalType":"address","name":"account","type":"address"}],"name":"Paused","type":"event"},{"anonymous":false,"inputs":[{"indexed":true,"internalType":"bytes32","name":"gameId","type":"bytes32"},{"indexed":true,"internalType":"address","name":"player","type":"address"},{"indexed":false,"internalType":"uint256","name":"amount","type":"uint256"}],"name":"PlayerStaked","type":"event"},{"anonymous":false,"inputs":[{"indexed":false,"internalType":"address","name":"account","type":"address"}],"name":"Unpaused","type":"event"},{"stateMutability":"payable","type":"fallback"},{"inputs":[],"name":"MAX_PLAYERS","outputs":[{"internalType":"uint256","name":"","type":"uint256"}],"stateMutability":"view","type":"function"},{"inputs":[],"name":"MIN_PLAYERS","outputs":[{"internalType":"uint256","name":"","type":"uint256"}],"stateMutability":"view","type":"function"},{"inputs":[{"internalType":"bytes32","name":"gameId","type":"bytes32"}],"name":"cancelGame","outputs":[],"stateMutability":"nonpayable","type":"function"},{"inputs":[{"internalType":"bytes32","name":"gameId","type":"bytes32"},{"internalType":"address[]","name":"players","type":"address[]"},{"internalType":"uint256","name":"stakeAmount","type":"uint256"}],"name":"createGame","outputs":[],"stateMutability":"nonpayable","type":"function"},{"inputs":[],"name":"feeCollector","outputs":[{"internalType":"address","name":"","type":"address"}],"stateMutability":"view","type":"function"},{"inputs":[],"name":"feePercentage","outputs":[{"internalType":"uint256","name":"","type":"uint256"}],"stateMutability":"view","type":"function"},{"inputs":[],"name":"gameExpirationTime","outputs":[{"internalType":"uint256","name":"","type":"uint256"}],"stateMutability":"view","type":"function"},{"inputs":[],"name":"getActiveGameIds","outputs":[{"internalType":"bytes32[]","name":"","type":"bytes32[]"}],"stateMutability":"view","type":"function"},{"inputs":[{"internalType":"bytes32","name":"gameId","type":"bytes32"}],"name":"getGameExpiration","outputs":[{"internalType":"uint256","name":"","type":"uint256"}],"stateMutability":"view","type":"function"},{"inputs":[{"internalType":"bytes32","name":"gameId","type":"bytes32"}],"name":"getGamePlayers","outputs":[{"internalType":"address[]","name":"","type":"address[]"}],"stateMutability":"view","type":"function"},{"inputs":[{"internalType":"bytes32","name":"gameId","type":"bytes32"}],"name":"getGameStatus","outputs":[{"internalType":"enum MONarcade.GameStatus","name":"","type":"uint8"}],"stateMutability":"view","type":"function"},{"inputs":[{"internalType":"bytes32","name":"gameId","type":"bytes32"},{"internalType":"address","name":"player","type":"address"}],"name":"getPlayerStake","outputs":[{"internalType":"uint256","name":"","type":"uint256"}],"stateMutability":"view","type":"function"},{"inputs":[{"internalType":"bytes32","name":"gameId","type":"bytes32"}],"name":"getTotalStaked","outputs":[{"internalType":"uint256","name":"","type":"uint256"}],"stateMutability":"view","type":"function"},{"inputs":[{"internalType":"bytes32","name":"gameId","type":"bytes32"},{"internalType":"address","name":"player","type":"address"}],"name":"hasPlayerStaked","outputs":[{"internalType":"bool","name":"","type":"bool"}],"stateMutability":"view","type":"function"},{"inputs":[{"internalType":"bytes32","name":"gameId","type":"bytes32"},{"internalType":"address","name":"player","type":"address"}],"name":"isPlayerInGame","outputs":[{"internalType":"bool","name":"","type":"bool"}],"stateMutability":"view","type":"function"},{"inputs":[],"name":"owner","outputs":[{"internalType":"address","name":"","type":"address"}],"stateMutability":"view","type":"function"},{"inputs":[],"name":"pause","outputs":[],"stateMutability":"nonpayable","type":"function"},{"inputs":[],"name":"paused","outputs":[{"internalType":"bool","name":"","type":"bool"}],"stateMutability":"view","type":"function"},{"inputs":[{"internalType":"address","name":"to","type":"address"},{"internalType":"uint256","name":"amount","type":"uint256"}],"name":"recoverFunds","outputs":[],"stateMutability":"nonpayable","type":"function"},{"inputs":[],"name":"renounceOwnership","outputs":[],"stateMutability":"nonpayable","type":"function"},{"inputs":[{"internalType":"address","name":"_feeCollector","type":"address"}],"name":"setFeeCollector","outputs":[],"stateMutability":"nonpayable","type":"function"},{"inputs":[{"internalType":"uint256","name":"_feePercentage","type":"uint256"}],"name":"setFeePercentage","outputs":[],"stateMutability":"nonpayable","type":"function"},{"inputs":[{"internalType":"uint256","name":"_expirationTime","type":"uint256"}],"name":"setGameExpirationTime","outputs":[],"stateMutability":"nonpayable","type":"function"},{"inputs":[{"internalType":"bytes32","name":"gameId","type":"bytes32"}],"name":"stake","outputs":[],"stateMutability":"payable","type":"function"},{"inputs":[{"internalType":"bytes32","name":"gameId","type":"bytes32"},{"internalType":"address","name":"winner","type":"address"},{"internalType":"bytes[]","name":"signatures","type":"bytes[]"}],"name":"submitResult","outputs":[],"stateMutability":"nonpayable","type":"function"},{"inputs":[{"internalType":"address","name":"newOwner","type":"address"}],"name":"transferOwnership","outputs":[],"stateMutability":"nonpayable","type":"function"},{"inputs":[],"name":"unpause","outputs":[],"stateMutability":"nonpayable","type":"function"},{"stateMutability":"payable","type":"receive"}],"evm":{"bytecode":{"linkReferences":{},"object":"60803461013157601f61204138819003918201601f19168301916001600160401b038311848410176101365780849260209460405283398101031261013157516001600160a01b0381169081900361013157331561011b5760008054336001600160a01b03198216811783556040519290916001600160a01b0316907f8be0079c531659141344cd1fd0a4f28419497f9722a3daafe3b4186f6b6457e09080a36001805562015180600455600060055581156100d95750600680546001600160a01b031916919091179055604051611ef4908161014d8239f35b62461bcd60e51b815260206004820152601d60248201527f496e76616c69642066656520636f6c6c6563746f7220616464726573730000006044820152606490fd5b631e4fbdf760e01b600052600060045260246000fd5b600080fd5b634e487b7160e01b600052604160045260246000fdfe60806040526004361015610010575b005b60003560e01c8063137d61e61461139e578063146c638d14611366578063170150a4146112f75780632570069b14610f255780633c26173414610e465780633f4ba83a14610ddd5780633f7121b014610b9f5780634411b3eb14610b8357806358609754146109da5780635c975abb146109b75780635f114cf2146109145780636916c9b0146108b6578063715018a61461085d5780638456cb591461080357806385f07bbe146107e75780638da5cb5b146107be578063a001ecdd146107a0578063a42dce80146106d7578063ae06c1b71461063c578063c0d64a871461034e578063c415b95c14610325578063d26a0880146102f5578063e7c09c28146102a8578063f10e6b7e1461025b578063f2fde38b146101d2578063f6d3cf74146101615763f99d948f0361000e573461015c57600036600319011261015c576020600454604051908152f35b600080fd5b3461015c57604036600319011261015c5760043561017d611a44565b908060005260036020526101a360ff6040600020541661019c81611aa1565b1515611ac1565b600052600360205260036040600020019060018060a01b03166000526020526020604060002054604051908152f35b3461015c57602036600319011261015c576101eb611a5a565b6101f3611d42565b6001600160a01b0316801561024557600080546001600160a01b03198116831782556001600160a01b0316907f8be0079c531659141344cd1fd0a4f28419497f9722a3daafe3b4186f6b6457e09080a3005b631e4fbdf760e01b600052600060045260246000fd5b3461015c57602036600319011261015c5760043580600052600360205261028d60ff6040600020541661019c81611aa1565b60005260036020526020600460406000200154604051908152f35b3461015c57602036600319011261015c576004358060005260036020526102da60ff6040600020541661019c81611aa1565b60005260036020526020600760406000200154604051908152f35b3461015c57604036600319011261015c57602061031b610313611a44565b600435611c71565b6040519015158152f35b3461015c57600036600319011261015c576006546040516001600160a01b039091168152602090f35b602036600319011261015c57600435610365611d03565b80600052600360205261038360ff6040600020541661019c81611aa1565b6000805b826000526003602052600160406000200154811015610632578260005260036020526103ba816001604060002001611b03565b905460039190911b1c6001600160a01b031633146103da57600101610387565b50506103e66001611b31565b6103ee611d25565b806000526003602052604060002090600360ff83541661040d81611aa1565b146105f457600282019160018060a01b0333166000528260205260ff604060002054166105b7576007810154421015610572576005810154928334036105345733600090815260208281526040808320805460ff19166001179055600385019091529020849055600482018054610485908690611c48565b9055600190600090600184018054925b8381106104ea575b505050506104d9575b506040519182527f56c747fbedf585ad60199a7eaf64beaeee901b3ad2b3b7680a0342fb5285623260203393a360018055005b805460ff19166002179055826104a6565b60ff60406104f88385611b03565b905460039190911b1c6001600160a01b0316600090815260208690522054161561052457600101610495565b505050505060008480808061049d565b60405162461bcd60e51b8152602060048201526016602482015275125b98dbdc9c9958dd081cdd185ad948185b5bdd5b9d60521b6044820152606490fd5b60405162461bcd60e51b815260206004820152601f60248201527f47616d65207374616b696e6720706572696f64206861732065787069726564006044820152606490fd5b60405162461bcd60e51b8152602060048201526015602482015274141b185e595c88185b1c9958591e481cdd185ad959605a1b6044820152606490fd5b60405162461bcd60e51b815260206004820152601660248201527511d85b5948185b1c9958591e4818dbdb5c1b195d195960521b6044820152606490fd5b506103e690611b31565b3461015c57602036600319011261015c57600435610658611d42565b6103e8811161069a5760407f2235d343de14bfe1d7efed850d828da476e76eb894c4831ccfa097efc5a4544491600554908060055582519182526020820152a1005b60405162461bcd60e51b81526020600482015260156024820152744665652063616e6e6f74206578636565642031302560581b6044820152606490fd5b3461015c57602036600319011261015c576106f0611a5a565b6106f8611d42565b6001600160a01b0316801561075b5760407f649c5e3d0ed183894196148e193af316452b0037e77d2ff0fef23b7dc722bed09160065490806bffffffffffffffffffffffff60a01b83161760065582519160018060a01b031682526020820152a1005b60405162461bcd60e51b815260206004820152601d60248201527f496e76616c69642066656520636f6c6c6563746f7220616464726573730000006044820152606490fd5b3461015c57600036600319011261015c576020600554604051908152f35b3461015c57600036600319011261015c576000546040516001600160a01b039091168152602090f35b3461015c57600036600319011261015c57602060405160028152f35b3461015c57600036600319011261015c5761081c611d42565b610824611d25565b600160ff1960025416176002557f62e78cea01bee320cd4e420270b5ea74000d11b0c9f74754ebdbfc544b05a2586020604051338152a1005b3461015c57600036600319011261015c57610876611d42565b600080546001600160a01b0319811682556001600160a01b03167f8be0079c531659141344cd1fd0a4f28419497f9722a3daafe3b4186f6b6457e08280a3005b3461015c57600036600319011261015c576108cf611c55565b60405180916020820160208352815180915260206040840192019060005b8181106108fb575050500390f35b82518452859450602093840193909201916001016108ed565b3461015c57602036600319011261015c57600435610930611d42565b610e1081106109725760407f0a04319e8ad46a28137a006cf543da68117417bba59161b72e57ce45e334fe5a91600454908060045582519182526020820152a1005b60405162461bcd60e51b815260206004820152601960248201527f45787069726174696f6e2074696d6520746f6f2073686f7274000000000000006044820152606490fd5b3461015c57600036600319011261015c57602060ff600254166040519015158152f35b3461015c57604036600319011261015c576109f3611a5a565b602435906109ff611d42565b6001600160a01b038116908115610b3e574791600093610a1d611c55565b926000955b8451871015610a5b57610a53600191610a3b8988611bc4565b51600052600360205260046040600020015490611c48565b960195610a22565b610a66839187611b7d565b10610af957600080808481945af1610a7c611bf4565b5015610ab4577f59bfc682b673f8cbf945f1e454df9334834abf7dfe7f92237ca29ecb9b4366009160409182519182526020820152a1005b60405162461bcd60e51b815260206004820152601860248201527f5265636f76657279207472616e73666572206661696c656400000000000000006044820152606490fd5b60405162461bcd60e51b815260206004820152601a60248201527f43616e6e6f74207769746864726177207374616b6564204d4f4e0000000000006044820152606490fd5b60405162461bcd60e51b815260206004820152601b60248201527f43616e6e6f742073656e6420746f207a65726f206164647265737300000000006044820152606490fd5b3461015c57600036600319011261015c576020604051600a8152f35b3461015c57602036600319011261015c57600435610bbb611d03565b80600052600360205260406000209060018060a01b036000541633148015610dbe575b15610d79578154600160ff8216610bf481611aa1565b03610d345760ff191660039081178355600283019083016001840160005b8154811015610ce457610c258183611b03565b905460039190911b1c6001600160a01b031660008181526020858152604080832054918890529091205490919060ff1680610cdb575b610c6a575b5050600101610c12565b600080809381938260408160018060a01b03841681528b60205220555af1610c90611bf4565b5015610c9d578580610c60565b60405162461bcd60e51b81526020600482015260166024820152751499599d5b99081d1c985b9cd9995c8819985a5b195960521b6044820152606490fd5b50811515610c5b565b847fd48b0c9992d8d4b8967d1584dc8c1955390d9ff30639a7da9c77e7f0db86c3d8606060405160208152600e60208201526d11d85b594818d85b98d95b1b195960921b6040820152a260018055005b60405162461bcd60e51b815260206004820152601860248201527f47616d652063616e6e6f742062652063616e63656c6c656400000000000000006044820152606490fd5b60405162461bcd60e51b815260206004820152601860248201527f4e6f7420617574686f72697a656420746f2063616e63656c00000000000000006044820152606490fd5b50610dc93382611c71565b8015610bde57506007820154421015610bde565b3461015c57600036600319011261015c57610df6611d42565b60025460ff811615610e355760ff19166002557f5db9ee0a495bf2e6ff9c91a7834c1ba4fdd244a5e8aa4e537bd38aeae4b073aa6020604051338152a1005b638dfc202b60e01b60005260046000fd5b3461015c57602036600319011261015c57600435806000526003602052610e7860ff6040600020541661019c81611aa1565b600052600360205260016040600020016040518060208354918281520190819360005260206000209060005b818110610f065750505081610eba910382611b8a565b6040519182916020830190602084525180915260408301919060005b818110610ee4575050500390f35b82516001600160a01b0316845285945060209384019390920191600101610ed6565b82546001600160a01b0316845260209093019260019283019201610ea4565b3461015c57606036600319011261015c5760043560243567ffffffffffffffff811161015c57610f59903690600401611a70565b90604435610f65611d42565b610f6d611d25565b83600052600360205260ff60406000205416610f8881611aa1565b6112bc576002831015806112b1575b1561126c5780156112275760005b83811061111357508360005260036020526040600020600160ff198254161781556001810167ffffffffffffffff85116110fd576801000000000000000085116110fd5780548582558086106110d4575b508394939060005260206000209060005b8581106110b3575050509081816005600794015542600682015561102d60045442611c48565b928391015560405192806060850160608652526080840194906000905b80821061108757505050602083015260408201527fa3030d9ef1703b5cc847027f1f0e1756000444d2707b84ca93ae6e5b3d29daab9181900390a2005b9091949585359060018060a01b03821680920361015c579081526020908101969501916001019061104a565b60019060206110c484999899611c34565b9301928185015501959495611007565b8160005285602060002091820191015b8181106110f15750610ff6565b600081556001016110e4565b634e487b7160e01b600052604160045260246000fd5b6001600160a01b0361112e611129838787611c24565b611c34565b16156111e957600181018082116111d3575b8481106111505750600101610fa5565b61115e611129838787611c24565b6001600160a01b03611174611129848989611c24565b6001600160a01b0390921691161461118e57600101611140565b60405162461bcd60e51b815260206004820152601860248201527f4475706c696361746520706c61796572206164647265737300000000000000006044820152606490fd5b634e487b7160e01b600052601160045260246000fd5b60405162461bcd60e51b8152602060048201526016602482015275496e76616c696420706c61796572206164647265737360501b6044820152606490fd5b60405162461bcd60e51b815260206004820152601c60248201527f5374616b65206d7573742062652067726561746572207468616e2030000000006044820152606490fd5b60405162461bcd60e51b815260206004820152601960248201527f496e76616c6964206e756d626572206f6620706c6179657273000000000000006044820152606490fd5b50600a831115610f97565b60405162461bcd60e51b815260206004820152601360248201527247616d6520616c72656164792065786973747360681b6044820152606490fd5b3461015c57604036600319011261015c57600435611313611a44565b9080600052600360205261133260ff6040600020541661019c81611aa1565b600052600360205260026040600020019060018060a01b0316600052602052602060ff604060002054166040519015158152f35b3461015c57602036600319011261015c576004356000526003602052602060ff604060002054166040519061139a81611aa1565b8152f35b3461015c57606036600319011261015c576113b7611a44565b60443567ffffffffffffffff811161015c576113d7903690600401611a70565b916113e0611d03565b600435600052600360205261140060ff6040600020541661019c81611aa1565b60009160005b6004356000526003602052600160406000200154811015611a3857600435600052600360205261143d816001604060002001611b03565b905460039190911b1c6001600160a01b0316331461145d57600101611406565b5090915061146b6001611b31565b611473611d25565b60043560005260036020526040600020805491600260ff841661149581611aa1565b036119fc576001820154946000805b8781106119c1575b501561197057856000198101116111d35760018682030161192b576006830154604051602081019160043583526bffffffffffffffffffffffff198860601b1660408301523060601b605483015246606883015260888201526088815261151460a882611b8a565b51902060405160208101917f19457468657265756d205369676e6564204d6573736167653a0a3332000000008352603c820152603c8152611556605c82611b8a565b5190209060009261156682611bac565b6115736040519182611b8a565b828152601f1961158284611bac565b013660208301376000935b89851061175a575050505050600094600019010361171557600360049260ff191617815501549060055480151580611701575b61165b575b508280808085855af16115d6611bf4565b501561161d576040519182526001600160a01b031690600435907fb64875e7f49769075aa9aec663c4c8bfb1212018ab5bb08b6fbeeb37ddf5c36090602090a36001805580f35b60405162461bcd60e51b815260206004820152601660248201527514995dd85c99081d1c985b9cd9995c8819985a5b195960521b6044820152606490fd5b8083029083820414831517156116ed5761167b6127108592048094611b7d565b9280611688575b506115c5565b600654829182918291906001600160a01b03165af16116a5611bf4565b50156116b2578284611682565b60405162461bcd60e51b8152602060048201526013602482015272119959481d1c985b9cd9995c8819985a5b1959606a1b6044820152606490fd5b634e487b7160e01b84526011600452602484fd5b506006546001600160a01b031615156115c0565b60405162461bcd60e51b815260206004820152601b60248201527f4e6f7420656e6f7567682076616c6964207369676e61747572657300000000006044820152606490fd5b929793986117708a60018994999a959a01611b03565b905460039190911b1c6001600160a01b03169433861461191857600093845b8b811015611905576117a1818b611bc4565b516118fd576000601e198c3603018260051b8d013512156118fa578160051b8c01358c0167ffffffffffffffff8135116118f8578035360360208201136118f8576117ec8135611bd8565b906117fa6040519283611b8a565b803582523660208235830101116118f45761182b8b928460208461183495358282018386013735830101528b611d6b565b90929192611da7565b6001600160a01b03161461184d57506001905b0161178f565b929b969750979099945060019b929b9893989160001982146118e05750611878828092019885611bc4565b525b1561188a576001905b019361158d565b60405162461bcd60e51b815260206004820152602860248201527f496e76616c6964206f72206d697373696e67207369676e61747572652066726f6044820152673690383630bcb2b960c11b6064820152608490fd5b634e487b7160e01b81526011600452602490fd5b8280fd5b505b80fd5b600190611847565b509893909994955099909996919661187a565b9893945098600190979297969196611883565b60405162461bcd60e51b815260206004820152601e60248201527f496e636f7272656374206e756d626572206f66207369676e61747572657300006044820152606490fd5b60405162461bcd60e51b815260206004820152602360248201527f57696e6e6572206973206e6f74206120706c6179657220696e20746869732067604482015262616d6560e81b6064820152608490fd5b6119ce8160018701611b03565b905460039190911b1c6001600160a01b03908116908816146119f2576001016114a4565b50506001876114ac565b60405162461bcd60e51b815260206004820152601460248201527347616d65206e6f7420696e2070726f677265737360601b6044820152606490fd5b50909161146b90611b31565b602435906001600160a01b038216820361015c57565b600435906001600160a01b038216820361015c57565b9181601f8401121561015c5782359167ffffffffffffffff831161015c576020808501948460051b01011161015c57565b60041115611aab57565b634e487b7160e01b600052602160045260246000fd5b15611ac857565b60405162461bcd60e51b815260206004820152601360248201527211d85b5948191bd95cc81b9bdd08195e1a5cdd606a1b6044820152606490fd5b8054821015611b1b5760005260206000200190600090565b634e487b7160e01b600052603260045260246000fd5b15611b3857565b60405162461bcd60e51b815260206004820152601960248201527f4e6f74206120706c6179657220696e20746869732067616d65000000000000006044820152606490fd5b919082039182116111d357565b90601f8019910116810190811067ffffffffffffffff8211176110fd57604052565b67ffffffffffffffff81116110fd5760051b60200190565b8051821015611b1b5760209160051b010190565b67ffffffffffffffff81116110fd57601f01601f191660200190565b3d15611c1f573d90611c0582611bd8565b91611c136040519384611b8a565b82523d6000602084013e565b606090565b9190811015611b1b5760051b0190565b356001600160a01b038116810361015c5790565b919082018092116111d357565b60405190611c64602083611b8a565b6000808352366020840137565b9081600052600360205260ff60406000205416611c8d81611aa1565b15611cfc5760005b826000526003602052600160406000200154811015611cf457826000526003602052611cc8816001604060002001611b03565b905460039190911b1c6001600160a01b0390811690831614611cec57600101611c95565b505050600190565b505050600090565b5050600090565b600260015414611d14576002600155565b633ee5aeb560e01b60005260046000fd5b60ff60025416611d3157565b63d93c066560e01b60005260046000fd5b6000546001600160a01b03163303611d5657565b63118cdaa760e01b6000523360045260246000fd5b8151919060418303611d9c57611d9592506020820151906060604084015193015160001a90611e29565b9192909190565b505060009160029190565b611db081611aa1565b80611db9575050565b611dc281611aa1565b60018103611ddb5763f645eedf60e01b60005260046000fd5b611de481611aa1565b60028103611e01575063fce698f760e01b60005260045260246000fd5b600390611e0d81611aa1565b14611e155750565b6335e2f38360e21b60005260045260246000fd5b91907f7fffffffffffffffffffffffffffffff5d576e7357a4501ddfe92f46681b20a08411611eb2579160209360809260ff60009560405194855216868401526040830152606082015282805260015afa15611ea6576000516001600160a01b03811615611e9a5790600090600090565b50600090600190600090565b6040513d6000823e3d90fd5b5050506000916003919056fea264697066735822122099a068bc307e920bcf3279f3356dc0cc6037ffcfcb5e77ec5c517f43d8a974e564736f6c634300081c0033","opcodes":"PUSH1 0x80 CALLVALUE PUSH2 0x131 JUMPI PUSH1 0x1F PUSH2 0x2041 CODESIZE DUP2 SWAP1 SUB SWAP2 DUP3 ADD PUSH1 0x1F NOT AND DUP4 ADD SWAP2 PUSH1 0x1 PUSH1 0x1 PUSH1 0x40 SHL SUB DUP4 GT DUP5 DUP5 LT OR PUSH2 0x136 JUMPI DUP1 DUP5 SWAP3 PUSH1 0x20 SWAP5 PUSH1 0x40 MSTORE DUP4 CODECOPY DUP2 ADD SUB SLT PUSH2 0x131 JUMPI MLOAD PUSH1 0x1 PUSH1 0x1 PUSH1 0xA0 SHL SUB DUP2 AND SWAP1 DUP2 SWAP1 SUB PUSH2 0x131 JUMPI CALLER ISZERO PUSH2 0x11B JUMPI PUSH1 0x0 DUP1 SLOAD CALLER PUSH1 0x1 PUSH1 0x1 PUSH1 0xA0 SHL SUB NOT DUP3 AND DUP2 OR DUP4 SSTORE PUSH1 0x40 MLOAD SWAP3 SWAP1 SWAP2 PUSH1 0x1 PUSH1 0x1 PUSH1 0xA0 SHL SUB AND SWAP1 PUSH32 0x8BE0079C531659141344CD1FD0A4F28419497F9722A3DAAFE3B4186F6B6457E0 SWAP1 DUP1 LOG3 PUSH1 0x1 DUP1 SSTORE PUSH3 0x15180 PUSH1 0x4 SSTORE PUSH1 0x0 PUSH1 0x5 SSTORE DUP2 ISZERO PUSH2 0xD9 JUMPI POP PUSH1 0x6 DUP1 SLOAD PUSH1 0x1 PUSH1 0x1 PUSH1 0xA0 SHL SUB NOT AND SWAP2 SWAP1 SWAP2 OR SWAP1 SSTORE PUSH1 0x40 MLOAD PUSH2 0x1EF4 SWAP1 DUP2 PUSH2 0x14D DUP3 CODECOPY RETURN JUMPDEST PUSH3 0x461BCD PUSH1 0xE5 SHL DUP2 MSTORE PUSH1 0x20 PUSH1 0x4 DUP3 ADD MSTORE PUSH1 0x1D PUSH1 0x24 DUP3 ADD MSTORE PUSH32 0x496E76616C69642066656520636F6C6C6563746F722061646472657373000000 PUSH1 0x44 DUP3 ADD MSTORE PUSH1 0x64 SWAP1 REVERT JUMPDEST PUSH4 0x1E4FBDF7 PUSH1 0xE0 SHL PUSH1 0x0 MSTORE PUSH1 0x0 PUSH1 0x4 MSTORE PUSH1 0x24 PUSH1 0x0 REVERT JUMPDEST PUSH1 0x0 DUP1 REVERT JUMPDEST PUSH4 0x4E487B71 PUSH1 0xE0 SHL PUSH1 0x0 MSTORE PUSH1 0x41 PUSH1 0x4 MSTORE PUSH1 0x24 PUSH1 0x0 REVERT INVALID PUSH1 0x80 PUSH1 0x40 MSTORE PUSH1 0x4 CALLDATASIZE LT ISZERO PUSH2 0x10 JUMPI JUMPDEST STOP JUMPDEST PUSH1 0x0 CALLDATALOAD PUSH1 0xE0 SHR DUP1 PUSH4 0x137D61E6 EQ PUSH2 0x139E JUMPI DUP1 PUSH4 0x146C638D EQ PUSH2 0x1366 JUMPI DUP1 PUSH4 0x170150A4 EQ PUSH2 0x12F7 JUMPI DUP1 PUSH4 0x2570069B EQ PUSH2 0xF25 JUMPI DUP1 PUSH4 0x3C261734 EQ PUSH2 0xE46 JUMPI DUP1 PUSH4 0x3F4BA83A EQ PUSH2 0xDDD JUMPI DUP1 PUSH4 0x3F7121B0 EQ PUSH2 0xB9F JUMPI DUP1 PUSH4 0x4411B3EB EQ PUSH2 0xB83 JUMPI DUP1 PUSH4 0x58609754 EQ PUSH2 0x9DA JUMPI DUP1 PUSH4 0x5C975ABB EQ PUSH2 0x9B7 JUMPI DUP1 PUSH4 0x5F114CF2 EQ PUSH2 0x914 JUMPI DUP1 PUSH4 0x6916C9B0 EQ PUSH2 0x8B6 JUMPI DUP1 PUSH4 0x715018A6 EQ PUSH2 0x85D JUMPI DUP1 PUSH4 0x8456CB59 EQ PUSH2 0x803 JUMPI DUP1 PUSH4 0x85F07BBE EQ PUSH2 0x7E7 JUMPI DUP1 PUSH4 0x8DA5CB5B EQ PUSH2 0x7BE JUMPI DUP1 PUSH4 0xA001ECDD EQ PUSH2 0x7A0 JUMPI DUP1 PUSH4 0xA42DCE80 EQ PUSH2 0x6D7 JUMPI DUP1 PUSH4 0xAE06C1B7 EQ PUSH2 0x63C JUMPI DUP1 PUSH4 0xC0D64A87 EQ PUSH2 0x34E JUMPI DUP1 PUSH4 0xC415B95C EQ PUSH2 0x325 JUMPI DUP1 PUSH4 0xD26A0880 EQ PUSH2 0x2F5 JUMPI DUP1 PUSH4 0xE7C09C28 EQ PUSH2 0x2A8 JUMPI DUP1 PUSH4 0xF10E6B7E EQ PUSH2 0x25B JUMPI DUP1 PUSH4 0xF2FDE38B EQ PUSH2 0x1D2 JUMPI DUP1 PUSH4 0xF6D3CF74 EQ PUSH2 0x161 JUMPI PUSH4 0xF99D948F SUB PUSH2 0xE JUMPI CALLVALUE PUSH2 0x15C JUMPI PUSH1 0x0 CALLDATASIZE PUSH1 0x3 NOT ADD SLT PUSH2 0x15C JUMPI PUSH1 0x20 PUSH1 0x4 SLOAD PUSH1 0x40 MLOAD SWAP1 DUP2 MSTORE RETURN JUMPDEST PUSH1 0x0 DUP1 REVERT JUMPDEST CALLVALUE PUSH2 0x15C JUMPI PUSH1 0x40 CALLDATASIZE PUSH1 0x3 NOT ADD SLT PUSH2 0x15C JUMPI PUSH1 0x4 CALLDATALOAD PUSH2 0x17D PUSH2 0x1A44 JUMP JUMPDEST SWAP1 DUP1 PUSH1 0x0 MSTORE PUSH1 0x3 PUSH1 0x20 MSTORE PUSH2 0x1A3 PUSH1 0xFF PUSH1 0x40 PUSH1 0x0 KECCAK256 SLOAD AND PUSH2 0x19C DUP2 PUSH2 0x1AA1 JUMP JUMPDEST ISZERO ISZERO PUSH2 0x1AC1 JUMP JUMPDEST PUSH1 0x0 MSTORE PUSH1 0x3 PUSH1 0x20 MSTORE PUSH1 0x3 PUSH1 0x40 PUSH1 0x0 KECCAK256 ADD SWAP1 PUSH1 0x1 DUP1 PUSH1 0xA0 SHL SUB AND PUSH1 0x0 MSTORE PUSH1 0x20 MSTORE PUSH1 0x20 PUSH1 0x40 PUSH1 0x0 KECCAK256 SLOAD PUSH1 0x40 MLOAD SWAP1 DUP2 MSTORE RETURN JUMPDEST CALLVALUE PUSH2 0x15C JUMPI PUSH1 0x20 CALLDATASIZE PUSH1 0x3 NOT ADD SLT PUSH2 0x15C JUMPI PUSH2 0x1EB PUSH2 0x1A5A JUMP JUMPDEST PUSH2 0x1F3 PUSH2 0x1D42 JUMP JUMPDEST PUSH1 0x1 PUSH1 0x1 PUSH1 0xA0 SHL SUB AND DUP1 ISZERO PUSH2 0x245 JUMPI PUSH1 0x0 DUP1 SLOAD PUSH1 0x1 PUSH1 0x1 PUSH1 0xA0 SHL SUB NOT DUP2 AND DUP4 OR DUP3 SSTORE PUSH1 0x1 PUSH1 0x1 PUSH1 0xA0 SHL SUB AND SWAP1 PUSH32 0x8BE0079C531659141344CD1FD0A4F28419497F9722A3DAAFE3B4186F6B6457E0 SWAP1 DUP1 LOG3 STOP JUMPDEST PUSH4 0x1E4FBDF7 PUSH1 0xE0 SHL PUSH1 0x0 MSTORE PUSH1 0x0 PUSH1 0x4 MSTORE PUSH1 0x24 PUSH1 0x0 REVERT JUMPDEST CALLVALUE PUSH2 0x15C JUMPI PUSH1 0x20 CALLDATASIZE PUSH1 0x3 NOT ADD SLT PUSH2 0x15C JUMPI PUSH1 0x4 CALLDATALOAD DUP1 PUSH1 0x0 MSTORE PUSH1 0x3 PUSH1 0x20 MSTORE PUSH2 0x28D PUSH1 0xFF PUSH1 0x40 PUSH1 0x0 KECCAK256 SLOAD AND PUSH2 0x19C DUP2 PUSH2 0x1AA1 JUMP JUMPDEST PUSH1 0x0 MSTORE PUSH1 0x3 PUSH1 0x20 MSTORE PUSH1 0x20 PUSH1 0x4 PUSH1 0x40 PUSH1 0x0 KECCAK256 ADD SLOAD PUSH1 0x40 MLOAD SWAP1 DUP2 MSTORE RETURN JUMPDEST CALLVALUE PUSH2 0x15C JUMPI PUSH1 0x20 CALLDATASIZE PUSH1 0x3 NOT ADD SLT PUSH2 0x15C JUMPI PUSH1 0x4 CALLDATALOAD DUP1 PUSH1 0x0 MSTORE PUSH1 0x3 PUSH1 0x20 MSTORE PUSH2 0x2DA PUSH1 0xFF PUSH1 0x40 PUSH1 0x0 KECCAK256 SLOAD AND PUSH2 0x19C DUP2 PUSH2 0x1AA1 JUMP JUMPDEST PUSH1 0x0 MSTORE PUSH1 0x3 PUSH1 0x20 MSTORE PUSH1 0x20 PUSH1 0x7 PUSH1 0x40 PUSH1 0x0 KECCAK256 ADD SLOAD PUSH1 0x40 MLOAD SWAP1 DUP2 MSTORE RETURN JUMPDEST CALLVALUE PUSH2 0x15C JUMPI PUSH1 0x40 CALLDATASIZE PUSH1 0x3 NOT ADD SLT PUSH2 0x15C JUMPI PUSH1 0x20 PUSH2 0x31B PUSH2 0x313 PUSH2 0x1A44 JUMP JUMPDEST PUSH1 0x4 CALLDATALOAD PUSH2 0x1C71 JUMP JUMPDEST PUSH1 0x40 MLOAD SWAP1 ISZERO ISZERO DUP2 MSTORE RETURN JUMPDEST CALLVALUE PUSH2 0x15C JUMPI PUSH1 0x0 CALLDATASIZE PUSH1 0x3 NOT ADD SLT PUSH2 0x15C JUMPI PUSH1 0x6 SLOAD PUSH1 0x40 MLOAD PUSH1 0x1 PUSH1 0x1 PUSH1 0xA0 SHL SUB SWAP1 SWAP2 AND DUP2 MSTORE PUSH1 0x20 SWAP1 RETURN JUMPDEST PUSH1 0x20 CALLDATASIZE PUSH1 0x3 NOT ADD SLT PUSH2 0x15C JUMPI PUSH1 0x4 CALLDATALOAD PUSH2 0x365 PUSH2 0x1D03 JUMP JUMPDEST DUP1 PUSH1 0x0 MSTORE PUSH1 0x3 PUSH1 0x20 MSTORE PUSH2 0x383 PUSH1 0xFF PUSH1 0x40 PUSH1 0x0 KECCAK256 SLOAD AND PUSH2 0x19C DUP2 PUSH2 0x1AA1 JUMP JUMPDEST PUSH1 0x0 DUP1 JUMPDEST DUP3 PUSH1 0x0 MSTORE PUSH1 0x3 PUSH1 0x20 MSTORE PUSH1 0x1 PUSH1 0x40 PUSH1 0x0 KECCAK256 ADD SLOAD DUP2 LT ISZERO PUSH2 0x632 JUMPI DUP3 PUSH1 0x0 MSTORE PUSH1 0x3 PUSH1 0x20 MSTORE PUSH2 0x3BA DUP2 PUSH1 0x1 PUSH1 0x40 PUSH1 0x0 KECCAK256 ADD PUSH2 0x1B03 JUMP JUMPDEST SWAP1 SLOAD PUSH1 0x3 SWAP2 SWAP1 SWAP2 SHL SHR PUSH1 0x1 PUSH1 0x1 PUSH1 0xA0 SHL SUB AND CALLER EQ PUSH2 0x3DA JUMPI PUSH1 0x1 ADD PUSH2 0x387 JUMP JUMPDEST POP POP PUSH2 0x3E6 PUSH1 0x1 PUSH2 0x1B31 JUMP JUMPDEST PUSH2 0x3EE PUSH2 0x1D25 JUMP JUMPDEST DUP1 PUSH1 0x0 MSTORE PUSH1 0x3 PUSH1 0x20 MSTORE PUSH1 0x40 PUSH1 0x0 KECCAK256 SWAP1 PUSH1 0x3 PUSH1 0xFF DUP4 SLOAD AND PUSH2 0x40D DUP2 PUSH2 0x1AA1 JUMP JUMPDEST EQ PUSH2 0x5F4 JUMPI PUSH1 0x2 DUP3 ADD SWAP2 PUSH1 0x1 DUP1 PUSH1 0xA0 SHL SUB CALLER AND PUSH1 0x0 MSTORE DUP3 PUSH1 0x20 MSTORE PUSH1 0xFF PUSH1 0x40 PUSH1 0x0 KECCAK256 SLOAD AND PUSH2 0x5B7 JUMPI PUSH1 0x7 DUP2 ADD SLOAD TIMESTAMP LT ISZERO PUSH2 0x572 JUMPI PUSH1 0x5 DUP2 ADD SLOAD SWAP3 DUP4 CALLVALUE SUB PUSH2 0x534 JUMPI CALLER PUSH1 0x0 SWAP1 DUP2 MSTORE PUSH1 0x20 DUP3 DUP2 MSTORE PUSH1 0x40 DUP1 DUP4 KECCAK256 DUP1 SLOAD PUSH1 0xFF NOT AND PUSH1 0x1 OR SWAP1 SSTORE PUSH1 0x3 DUP6 ADD SWAP1 SWAP2 MSTORE SWAP1 KECCAK256 DUP5 SWAP1 SSTORE PUSH1 0x4 DUP3 ADD DUP1 SLOAD PUSH2 0x485 SWAP1 DUP7 SWAP1 PUSH2 0x1C48 JUMP JUMPDEST SWAP1 SSTORE PUSH1 0x1 SWAP1 PUSH1 0x0 SWAP1 PUSH1 0x1 DUP5 ADD DUP1 SLOAD SWAP3 JUMPDEST DUP4 DUP2 LT PUSH2 0x4EA JUMPI JUMPDEST POP POP POP POP PUSH2 0x4D9 JUMPI JUMPDEST POP PUSH1 0x40 MLOAD SWAP2 DUP3 MSTORE PUSH32 0x56C747FBEDF585AD60199A7EAF64BEAEEE901B3AD2B3B7680A0342FB52856232 PUSH1 0x20 CALLER SWAP4 LOG3 PUSH1 0x1 DUP1 SSTORE STOP JUMPDEST DUP1 SLOAD PUSH1 0xFF NOT AND PUSH1 0x2 OR SWAP1 SSTORE DUP3 PUSH2 0x4A6 JUMP JUMPDEST PUSH1 0xFF PUSH1 0x40 PUSH2 0x4F8 DUP4 DUP6 PUSH2 0x1B03 JUMP JUMPDEST SWAP1 SLOAD PUSH1 0x3 SWAP2 SWAP1 SWAP2 SHL SHR PUSH1 0x1 PUSH1 0x1 PUSH1 0xA0 SHL SUB AND PUSH1 0x0 SWAP1 DUP2 MSTORE PUSH1 0x20 DUP7 SWAP1 MSTORE KECCAK256 SLOAD AND ISZERO PUSH2 0x524 JUMPI PUSH1 0x1 ADD PUSH2 0x495 JUMP JUMPDEST POP POP POP POP POP PUSH1 0x0 DUP5 DUP1 DUP1 DUP1 PUSH2 0x49D JUMP JUMPDEST PUSH1 0x40 MLOAD PUSH3 0x461BCD PUSH1 0xE5 SHL DUP2 MSTORE PUSH1 0x20 PUSH1 0x4 DUP3 ADD MSTORE PUSH1 0x16 PUSH1 0x24 DUP3 ADD MSTORE PUSH22 0x125B98DBDC9C9958DD081CDD185AD948185B5BDD5B9D PUSH1 0x52 SHL PUSH1 0x44 DUP3 ADD MSTORE PUSH1 0x64 SWAP1 REVERT JUMPDEST PUSH1 0x40 MLOAD PUSH3 0x461BCD PUSH1 0xE5 SHL DUP2 MSTORE PUSH1 0x20 PUSH1 0x4 DUP3 ADD MSTORE PUSH1 0x1F PUSH1 0x24 DUP3 ADD MSTORE PUSH32 0x47616D65207374616B696E6720706572696F6420686173206578706972656400 PUSH1 0x44 DUP3 ADD MSTORE PUSH1 0x64 SWAP1 REVERT JUMPDEST PUSH1 0x40 MLOAD PUSH3 0x461BCD PUSH1 0xE5 SHL DUP2 MSTORE PUSH1 0x20 PUSH1 0x4 DUP3 ADD MSTORE PUSH1 0x15 PUSH1 0x24 DUP3 ADD MSTORE PUSH21 0x141B185E595C88185B1C9958591E481CDD185AD959 PUSH1 0x5A SHL PUSH1 0x44 DUP3 ADD MSTORE PUSH1 0x64 SWAP1 REVERT JUMPDEST PUSH1 0x40 MLOAD PUSH3 0x461BCD PUSH1 0xE5 SHL DUP2 MSTORE PUSH1 0x20 PUSH1 0x4 DUP3 ADD MSTORE PUSH1 0x16 PUSH1 0x24 DUP3 ADD MSTORE PUSH22 0x11D85B5948185B1C9958591E4818DBDB5C1B195D1959 PUSH1 0x52 SHL PUSH1 0x44 DUP3 ADD MSTORE PUSH1 0x64 SWAP1 REVERT JUMPDEST POP PUSH2 0x3E6 SWAP1 PUSH2 0x1B31 JUMP JUMPDEST CALLVALUE PUSH2 0x15C JUMPI PUSH1 0x20 CALLDATASIZE PUSH1 0x3 NOT ADD SLT PUSH2 0x15C JUMPI PUSH1 0x4 CALLDATALOAD PUSH2 0x658 PUSH2 0x1D42 JUMP JUMPDEST PUSH2 0x3E8 DUP2 GT PUSH2 0x69A JUMPI PUSH1 0x40 PUSH32 0x2235D343DE14BFE1D7EFED850D828DA476E76EB894C4831CCFA097EFC5A45444 SWAP2 PUSH1 0x5 SLOAD SWAP1 DUP1 PUSH1 0x5 SSTORE DUP3 MLOAD SWAP2 DUP3 MSTORE PUSH1 0x20 DUP3 ADD MSTORE LOG1 STOP JUMPDEST PUSH1 0x40 MLOAD PUSH3 0x461BCD PUSH1 0xE5 SHL DUP2 MSTORE PUSH1 0x20 PUSH1 0x4 DUP3 ADD MSTORE PUSH1 0x15 PUSH1 0x24 DUP3 ADD MSTORE PUSH21 0x4665652063616E6E6F742065786365656420313025 PUSH1 0x58 SHL PUSH1 0x44 DUP3 ADD MSTORE PUSH1 0x64 SWAP1 REVERT JUMPDEST CALLVALUE PUSH2 0x15C JUMPI PUSH1 0x20 CALLDATASIZE PUSH1 0x3 NOT ADD SLT PUSH2 0x15C JUMPI PUSH2 0x6F0 PUSH2 0x1A5A JUMP JUMPDEST PUSH2 0x6F8 PUSH2 0x1D42 JUMP JUMPDEST PUSH1 0x1 PUSH1 0x1 PUSH1 0xA0 SHL SUB AND DUP1 ISZERO PUSH2 0x75B JUMPI PUSH1 0x40 PUSH32 0x649C5E3D0ED183894196148E193AF316452B0037E77D2FF0FEF23B7DC722BED0 SWAP2 PUSH1 0x6 SLOAD SWAP1 DUP1 PUSH12 0xFFFFFFFFFFFFFFFFFFFFFFFF PUSH1 0xA0 SHL DUP4 AND OR PUSH1 0x6 SSTORE DUP3 MLOAD SWAP2 PUSH1 0x1 DUP1 PUSH1 0xA0 SHL SUB AND DUP3 MSTORE PUSH1 0x20 DUP3 ADD MSTORE LOG1 STOP JUMPDEST PUSH1 0x40 MLOAD PUSH3 0x461BCD PUSH1 0xE5 SHL DUP2 MSTORE PUSH1 0x20 PUSH1 0x4 DUP3 ADD MSTORE PUSH1 0x1D PUSH1 0x24 DUP3 ADD MSTORE PUSH32 0x496E76616C69642066656520636F6C6C6563746F722061646472657373000000 PUSH1 0x44 DUP3 ADD MSTORE PUSH1 0x64 SWAP1 REVERT JUMPDEST CALLVALUE PUSH2 0x15C JUMPI PUSH1 0x0 CALLDATASIZE PUSH1 0x3 NOT ADD SLT PUSH2 0x15C JUMPI PUSH1 0x20 PUSH1 0x5 SLOAD PUSH1 0x40 MLOAD SWAP1 DUP2 MSTORE RETURN JUMPDEST CALLVALUE PUSH2 0x15C JUMPI PUSH1 0x0 CALLDATASIZE PUSH1 0x3 NOT ADD SLT PUSH2 0x15C JUMPI PUSH1 0x0 SLOAD PUSH1 0x40 MLOAD PUSH1 0x1 PUSH1 0x1 PUSH1 0xA0 SHL SUB SWAP1 SWAP2 AND DUP2 MSTORE PUSH1 0x20 SWAP1 RETURN JUMPDEST CALLVALUE PUSH2 0x15C JUMPI PUSH1 0x0 CALLDATASIZE PUSH1 0x3 NOT ADD SLT PUSH2 0x15C JUMPI PUSH1 0x20 PUSH1 0x40 MLOAD PUSH1 0x2 DUP2 MSTORE RETURN JUMPDEST CALLVALUE PUSH2 0x15C JUMPI PUSH1 0x0 CALLDATASIZE PUSH1 0x3 NOT ADD SLT PUSH2 0x15C JUMPI PUSH2 0x81C PUSH2 0x1D42 JUMP JUMPDEST PUSH2 0x824 PUSH2 0x1D25 JUMP JUMPDEST PUSH1 0x1 PUSH1 0xFF NOT PUSH1 0x2 SLOAD AND OR PUSH1 0x2 SSTORE PUSH32 0x62E78CEA01BEE320CD4E420270B5EA74000D11B0C9F74754EBDBFC544B05A258 PUSH1 0x20 PUSH1 0x40 MLOAD CALLER DUP2 MSTORE LOG1 STOP JUMPDEST CALLVALUE PUSH2 0x15C JUMPI PUSH1 0x0 CALLDATASIZE PUSH1 0x3 NOT ADD SLT PUSH2 0x15C JUMPI PUSH2 0x876 PUSH2 0x1D42 JUMP JUMPDEST PUSH1 0x0 DUP1 SLOAD PUSH1 0x1 PUSH1 0x1 PUSH1 0xA0 SHL SUB NOT DUP2 AND DUP3 SSTORE PUSH1 0x1 PUSH1 0x1 PUSH1 0xA0 SHL SUB AND PUSH32 0x8BE0079C531659141344CD1FD0A4F28419497F9722A3DAAFE3B4186F6B6457E0 DUP3 DUP1 LOG3 STOP JUMPDEST CALLVALUE PUSH2 0x15C JUMPI PUSH1 0x0 CALLDATASIZE PUSH1 0x3 NOT ADD SLT PUSH2 0x15C JUMPI PUSH2 0x8CF PUSH2 0x1C55 JUMP JUMPDEST PUSH1 0x40 MLOAD DUP1 SWAP2 PUSH1 0x20 DUP3 ADD PUSH1 0x20 DUP4 MSTORE DUP2 MLOAD DUP1 SWAP2 MSTORE PUSH1 0x20 PUSH1 0x40 DUP5 ADD SWAP3 ADD SWAP1 PUSH1 0x0 JUMPDEST DUP2 DUP2 LT PUSH2 0x8FB JUMPI POP POP POP SUB SWAP1 RETURN JUMPDEST DUP3 MLOAD DUP5 MSTORE DUP6 SWAP5 POP PUSH1 0x20 SWAP4 DUP5 ADD SWAP4 SWAP1 SWAP3 ADD SWAP2 PUSH1 0x1 ADD PUSH2 0x8ED JUMP JUMPDEST CALLVALUE PUSH2 0x15C JUMPI PUSH1 0x20 CALLDATASIZE PUSH1 0x3 NOT ADD SLT PUSH2 0x15C JUMPI PUSH1 0x4 CALLDATALOAD PUSH2 0x930 PUSH2 0x1D42 JUMP JUMPDEST PUSH2 0xE10 DUP2 LT PUSH2 0x972 JUMPI PUSH1 0x40 PUSH32 0xA04319E8AD46A28137A006CF543DA68117417BBA59161B72E57CE45E334FE5A SWAP2 PUSH1 0x4 SLOAD SWAP1 DUP1 PUSH1 0x4 SSTORE DUP3 MLOAD SWAP2 DUP3 MSTORE PUSH1 0x20 DUP3 ADD MSTORE LOG1 STOP JUMPDEST PUSH1 0x40 MLOAD PUSH3 0x461BCD PUSH1 0xE5 SHL DUP2 MSTORE PUSH1 0x20 PUSH1 0x4 DUP3 ADD MSTORE PUSH1 0x19 PUSH1 0x24 DUP3 ADD MSTORE PUSH32 0x45787069726174696F6E2074696D6520746F6F2073686F727400000000000000 PUSH1 0x44 DUP3 ADD MSTORE PUSH1 0x64 SWAP1 REVERT JUMPDEST CALLVALUE PUSH2 0x15C JUMPI PUSH1 0x0 CALLDATASIZE PUSH1 0x3 NOT ADD SLT PUSH2 0x15C JUMPI PUSH1 0x20 PUSH1 0xFF PUSH1 0x2 SLOAD AND PUSH1 0x40 MLOAD SWAP1 ISZERO ISZERO DUP2 MSTORE RETURN JUMPDEST CALLVALUE PUSH2 0x15C JUMPI PUSH1 0x40 CALLDATASIZE PUSH1 0x3 NOT ADD SLT PUSH2 0x15C JUMPI PUSH2 0x9F3 PUSH2 0x1A5A JUMP JUMPDEST PUSH1 0x24 CALLDATALOAD SWAP1 PUSH2 0x9FF PUSH2 0x1D42 JUMP JUMPDEST PUSH1 0x1 PUSH1 0x1 PUSH1 0xA0 SHL SUB DUP2 AND SWAP1 DUP2 ISZERO PUSH2 0xB3E JUMPI SELFBALANCE SWAP2 PUSH1 0x0 SWAP4 PUSH2 0xA1D PUSH2 0x1C55 JUMP JUMPDEST SWAP3 PUSH1 0x0 SWAP6 JUMPDEST DUP5 MLOAD DUP8 LT ISZERO PUSH2 0xA5B JUMPI PUSH2 0xA53 PUSH1 0x1 SWAP2 PUSH2 0xA3B DUP10 DUP9 PUSH2 0x1BC4 JUMP JUMPDEST MLOAD PUSH1 0x0 MSTORE PUSH1 0x3 PUSH1 0x20 MSTORE PUSH1 0x4 PUSH1 0x40 PUSH1 0x0 KECCAK256 ADD SLOAD SWAP1 PUSH2 0x1C48 JUMP JUMPDEST SWAP7 ADD SWAP6 PUSH2 0xA22 JUMP JUMPDEST PUSH2 0xA66 DUP4 SWAP2 DUP8 PUSH2 0x1B7D JUMP JUMPDEST LT PUSH2 0xAF9 JUMPI PUSH1 0x0 DUP1 DUP1 DUP5 DUP2 SWAP5 GAS CALL PUSH2 0xA7C PUSH2 0x1BF4 JUMP JUMPDEST POP ISZERO PUSH2 0xAB4 JUMPI PUSH32 0x59BFC682B673F8CBF945F1E454DF9334834ABF7DFE7F92237CA29ECB9B436600 SWAP2 PUSH1 0x40 SWAP2 DUP3 MLOAD SWAP2 DUP3 MSTORE PUSH1 0x20 DUP3 ADD MSTORE LOG1 STOP JUMPDEST PUSH1 0x40 MLOAD PUSH3 0x461BCD PUSH1 0xE5 SHL DUP2 MSTORE PUSH1 0x20 PUSH1 0x4 DUP3 ADD MSTORE PUSH1 0x18 PUSH1 0x24 DUP3 ADD MSTORE PUSH32 0x5265636F76657279207472616E73666572206661696C65640000000000000000 PUSH1 0x44 DUP3 ADD MSTORE PUSH1 0x64 SWAP1 REVERT JUMPDEST PUSH1 0x40 MLOAD PUSH3 0x461BCD PUSH1 0xE5 SHL DUP2 MSTORE PUSH1 0x20 PUSH1 0x4 DUP3 ADD MSTORE PUSH1 0x1A PUSH1 0x24 DUP3 ADD MSTORE PUSH32 0x43616E6E6F74207769746864726177207374616B6564204D4F4E000000000000 PUSH1 0x44 DUP3 ADD MSTORE PUSH1 0x64 SWAP1 REVERT JUMPDEST PUSH1 0x40 MLOAD PUSH3 0x461BCD PUSH1 0xE5 SHL DUP2 MSTORE PUSH1 0x20 PUSH1 0x4 DUP3 ADD MSTORE PUSH1 0x1B PUSH1 0x24 DUP3 ADD MSTORE PUSH32 0x43616E6E6F742073656E6420746F207A65726F20616464726573730000000000 PUSH1 0x44 DUP3 ADD MSTORE PUSH1 0x64 SWAP1 REVERT JUMPDEST CALLVALUE PUSH2 0x15C JUMPI PUSH1 0x0 CALLDATASIZE PUSH1 0x3 NOT ADD SLT PUSH2 0x15C JUMPI PUSH1 0x20 PUSH1 0x40 MLOAD PUSH1 0xA DUP2 MSTORE RETURN JUMPDEST CALLVALUE PUSH2 0x15C JUMPI PUSH1 0x20 CALLDATASIZE PUSH1 0x3 NOT ADD SLT PUSH2 0x15C JUMPI PUSH1 0x4 CALLDATALOAD PUSH2 0xBBB PUSH2 0x1D03 JUMP JUMPDEST DUP1 PUSH1 0x0 MSTORE PUSH1 0x3 PUSH1 0x20 MSTORE PUSH1 0x40 PUSH1 0x0 KECCAK256 SWAP1 PUSH1 0x1 DUP1 PUSH1 0xA0 SHL SUB PUSH1 0x0 SLOAD AND CALLER EQ DUP1 ISZERO PUSH2 0xDBE JUMPI JUMPDEST ISZERO PUSH2 0xD79 JUMPI DUP2 SLOAD PUSH1 0x1 PUSH1 0xFF DUP3 AND PUSH2 0xBF4 DUP2 PUSH2 0x1AA1 JUMP JUMPDEST SUB PUSH2 0xD34 JUMPI PUSH1 0xFF NOT AND PUSH1 0x3 SWAP1 DUP2 OR DUP4 SSTORE PUSH1 0x2 DUP4 ADD SWAP1 DUP4 ADD PUSH1 0x1 DUP5 ADD PUSH1 0x0 JUMPDEST DUP2 SLOAD DUP2 LT ISZERO PUSH2 0xCE4 JUMPI PUSH2 0xC25 DUP2 DUP4 PUSH2 0x1B03 JUMP JUMPDEST SWAP1 SLOAD PUSH1 0x3 SWAP2 SWAP1 SWAP2 SHL SHR PUSH1 0x1 PUSH1 0x1 PUSH1 0xA0 SHL SUB AND PUSH1 0x0 DUP2 DUP2 MSTORE PUSH1 0x20 DUP6 DUP2 MSTORE PUSH1 0x40 DUP1 DUP4 KECCAK256 SLOAD SWAP2 DUP9 SWAP1 MSTORE SWAP1 SWAP2 KECCAK256 SLOAD SWAP1 SWAP2 SWAP1 PUSH1 0xFF AND DUP1 PUSH2 0xCDB JUMPI JUMPDEST PUSH2 0xC6A JUMPI JUMPDEST POP POP PUSH1 0x1 ADD PUSH2 0xC12 JUMP JUMPDEST PUSH1 0x0 DUP1 DUP1 SWAP4 DUP2 SWAP4 DUP3 PUSH1 0x40 DUP2 PUSH1 0x1 DUP1 PUSH1 0xA0 SHL SUB DUP5 AND DUP2 MSTORE DUP12 PUSH1 0x20 MSTORE KECCAK256 SSTORE GAS CALL PUSH2 0xC90 PUSH2 0x1BF4 JUMP JUMPDEST POP ISZERO PUSH2 0xC9D JUMPI DUP6 DUP1 PUSH2 0xC60 JUMP JUMPDEST PUSH1 0x40 MLOAD PUSH3 0x461BCD PUSH1 0xE5 SHL DUP2 MSTORE PUSH1 0x20 PUSH1 0x4 DUP3 ADD MSTORE PUSH1 0x16 PUSH1 0x24 DUP3 ADD MSTORE PUSH22 0x1499599D5B99081D1C985B9CD9995C8819985A5B1959 PUSH1 0x52 SHL PUSH1 0x44 DUP3 ADD MSTORE PUSH1 0x64 SWAP1 REVERT JUMPDEST POP DUP2 ISZERO ISZERO PUSH2 0xC5B JUMP JUMPDEST DUP5 PUSH32 0xD48B0C9992D8D4B8967D1584DC8C1955390D9FF30639A7DA9C77E7F0DB86C3D8 PUSH1 0x60 PUSH1 0x40 MLOAD PUSH1 0x20 DUP2 MSTORE PUSH1 0xE PUSH1 0x20 DUP3 ADD MSTORE PUSH14 0x11D85B594818D85B98D95B1B1959 PUSH1 0x92 SHL PUSH1 0x40 DUP3 ADD MSTORE LOG2 PUSH1 0x1 DUP1 SSTORE STOP JUMPDEST PUSH1 0x40 MLOAD PUSH3 0x461BCD PUSH1 0xE5 SHL DUP2 MSTORE PUSH1 0x20 PUSH1 0x4 DUP3 ADD MSTORE PUSH1 0x18 PUSH1 0x24 DUP3 ADD MSTORE PUSH32 0x47616D652063616E6E6F742062652063616E63656C6C65640000000000000000 PUSH1 0x44 DUP3 ADD MSTORE PUSH1 0x64 SWAP1 REVERT JUMPDEST PUSH1 0x40 MLOAD PUSH3 0x461BCD PUSH1 0xE5 SHL DUP2 MSTORE PUSH1 0x20 PUSH1 0x4 DUP3 ADD MSTORE PUSH1 0x18 PUSH1 0x24 DUP3 ADD MSTORE PUSH32 0x4E6F7420617574686F72697A656420746F2063616E63656C0000000000000000 PUSH1 0x44 DUP3 ADD MSTORE PUSH1 0x64 SWAP1 REVERT JUMPDEST POP PUSH2 0xDC9 CALLER DUP3 PUSH2 0x1C71 JUMP JUMPDEST DUP1 ISZERO PUSH2 0xBDE JUMPI POP PUSH1 0x7 DUP3 ADD SLOAD TIMESTAMP LT ISZERO PUSH2 0xBDE JUMP JUMPDEST CALLVALUE PUSH2 0x15C JUMPI PUSH1 0x0 CALLDATASIZE PUSH1 0x3 NOT ADD SLT PUSH2 0x15C JUMPI PUSH2 0xDF6 PUSH2 0x1D42 JUMP JUMPDEST PUSH1 0x2 SLOAD PUSH1 0xFF DUP2 AND ISZERO PUSH2 0xE35 JUMPI PUSH1 0xFF NOT AND PUSH1 0x2 SSTORE PUSH32 0x5DB9EE0A495BF2E6FF9C91A7834C1BA4FDD244A5E8AA4E537BD38AEAE4B073AA PUSH1 0x20 PUSH1 0x40 MLOAD CALLER DUP2 MSTORE LOG1 STOP JUMPDEST PUSH4 0x8DFC202B PUSH1 0xE0 SHL PUSH1 0x0 MSTORE PUSH1 0x4 PUSH1 0x0 REVERT JUMPDEST CALLVALUE PUSH2 0x15C JUMPI PUSH1 0x20 CALLDATASIZE PUSH1 0x3 NOT ADD SLT PUSH2 0x15C JUMPI PUSH1 0x4 CALLDATALOAD DUP1 PUSH1 0x0 MSTORE PUSH1 0x3 PUSH1 0x20 MSTORE PUSH2 0xE78 PUSH1 0xFF PUSH1 0x40 PUSH1 0x0 KECCAK256 SLOAD AND PUSH2 0x19C DUP2 PUSH2 0x1AA1 JUMP JUMPDEST PUSH1 0x0 MSTORE PUSH1 0x3 PUSH1 0x20 MSTORE PUSH1 0x1 PUSH1 0x40 PUSH1 0x0 KECCAK256 ADD PUSH1 0x40 MLOAD DUP1 PUSH1 0x20 DUP4 SLOAD SWAP2 DUP3 DUP2 MSTORE ADD SWAP1 DUP2 SWAP4 PUSH1 0x0 MSTORE PUSH1 0x20 PUSH1 0x0 KECCAK256 SWAP1 PUSH1 0x0 JUMPDEST DUP2 DUP2 LT PUSH2 0xF06 JUMPI POP POP POP DUP2 PUSH2 0xEBA SWAP2 SUB DUP3 PUSH2 0x1B8A JUMP JUMPDEST PUSH1 0x40 MLOAD SWAP2 DUP3 SWAP2 PUSH1 0x20 DUP4 ADD SWAP1 PUSH1 0x20 DUP5 MSTORE MLOAD DUP1 SWAP2 MSTORE PUSH1 0x40 DUP4 ADD SWAP2 SWAP1 PUSH1 0x0 JUMPDEST DUP2 DUP2 LT PUSH2 0xEE4 JUMPI POP POP POP SUB SWAP1 RETURN JUMPDEST DUP3 MLOAD PUSH1 0x1 PUSH1 0x1 PUSH1 0xA0 SHL SUB AND DUP5 MSTORE DUP6 SWAP5 POP PUSH1 0x20 SWAP4 DUP5 ADD SWAP4 SWAP1 SWAP3 ADD SWAP2 PUSH1 0x1 ADD PUSH2 0xED6 JUMP JUMPDEST DUP3 SLOAD PUSH1 0x1 PUSH1 0x1 PUSH1 0xA0 SHL SUB AND DUP5 MSTORE PUSH1 0x20 SWAP1 SWAP4 ADD SWAP3 PUSH1 0x1 SWAP3 DUP4 ADD SWAP3 ADD PUSH2 0xEA4 JUMP JUMPDEST CALLVALUE PUSH2 0x15C JUMPI PUSH1 0x60 CALLDATASIZE PUSH1 0x3 NOT ADD SLT PUSH2 0x15C JUMPI PUSH1 0x4 CALLDATALOAD PUSH1 0x24 CALLDATALOAD PUSH8 0xFFFFFFFFFFFFFFFF DUP2 GT PUSH2 0x15C JUMPI PUSH2 0xF59 SWAP1 CALLDATASIZE SWAP1 PUSH1 0x4 ADD PUSH2 0x1A70 JUMP JUMPDEST SWAP1 PUSH1 0x44 CALLDATALOAD PUSH2 0xF65 PUSH2 0x1D42 JUMP JUMPDEST PUSH2 0xF6D PUSH2 0x1D25 JUMP JUMPDEST DUP4 PUSH1 0x0 MSTORE PUSH1 0x3 PUSH1 0x20 MSTORE PUSH1 0xFF PUSH1 0x40 PUSH1 0x0 KECCAK256 SLOAD AND PUSH2 0xF88 DUP2 PUSH2 0x1AA1 JUMP JUMPDEST PUSH2 0x12BC JUMPI PUSH1 0x2 DUP4 LT ISZERO DUP1 PUSH2 0x12B1 JUMPI JUMPDEST ISZERO PUSH2 0x126C JUMPI DUP1 ISZERO PUSH2 0x1227 JUMPI PUSH1 0x0 JUMPDEST DUP4 DUP2 LT PUSH2 0x1113 JUMPI POP DUP4 PUSH1 0x0 MSTORE PUSH1 0x3 PUSH1 0x20 MSTORE PUSH1 0x40 PUSH1 0x0 KECCAK256 PUSH1 0x1 PUSH1 0xFF NOT DUP3 SLOAD AND OR DUP2 SSTORE PUSH1 0x1 DUP2 ADD PUSH8 0xFFFFFFFFFFFFFFFF DUP6 GT PUSH2 0x10FD JUMPI PUSH9 0x10000000000000000 DUP6 GT PUSH2 0x10FD JUMPI DUP1 SLOAD DUP6 DUP3 SSTORE DUP1 DUP7 LT PUSH2 0x10D4 JUMPI JUMPDEST POP DUP4 SWAP5 SWAP4 SWAP1 PUSH1 0x0 MSTORE PUSH1 0x20 PUSH1 0x0 KECCAK256 SWAP1 PUSH1 0x0 JUMPDEST DUP6 DUP2 LT PUSH2 0x10B3 JUMPI POP POP POP SWAP1 DUP2 DUP2 PUSH1 0x5 PUSH1 0x7 SWAP5 ADD SSTORE TIMESTAMP PUSH1 0x6 DUP3 ADD SSTORE PUSH2 0x102D PUSH1 0x4 SLOAD TIMESTAMP PUSH2 0x1C48 JUMP JUMPDEST SWAP3 DUP4 SWAP2 ADD SSTORE PUSH1 0x40 MLOAD SWAP3 DUP1 PUSH1 0x60 DUP6 ADD PUSH1 0x60 DUP7 MSTORE MSTORE PUSH1 0x80 DUP5 ADD SWAP5 SWAP1 PUSH1 0x0 SWAP1 JUMPDEST DUP1 DUP3 LT PUSH2 0x1087 JUMPI POP POP POP PUSH1 0x20 DUP4 ADD MSTORE PUSH1 0x40 DUP3 ADD MSTORE PUSH32 0xA3030D9EF1703B5CC847027F1F0E1756000444D2707B84CA93AE6E5B3D29DAAB SWAP2 DUP2 SWAP1 SUB SWAP1 LOG2 STOP JUMPDEST SWAP1 SWAP2 SWAP5 SWAP6 DUP6 CALLDATALOAD SWAP1 PUSH1 0x1 DUP1 PUSH1 0xA0 SHL SUB DUP3 AND DUP1 SWAP3 SUB PUSH2 0x15C JUMPI SWAP1 DUP2 MSTORE PUSH1 0x20 SWAP1 DUP2 ADD SWAP7 SWAP6 ADD SWAP2 PUSH1 0x1 ADD SWAP1 PUSH2 0x104A JUMP JUMPDEST PUSH1 0x1 SWAP1 PUSH1 0x20 PUSH2 0x10C4 DUP5 SWAP10 SWAP9 SWAP10 PUSH2 0x1C34 JUMP JUMPDEST SWAP4 ADD SWAP3 DUP2 DUP6 ADD SSTORE ADD SWAP6 SWAP5 SWAP6 PUSH2 0x1007 JUMP JUMPDEST DUP2 PUSH1 0x0 MSTORE DUP6 PUSH1 0x20 PUSH1 0x0 KECCAK256 SWAP2 DUP3 ADD SWAP2 ADD JUMPDEST DUP2 DUP2 LT PUSH2 0x10F1 JUMPI POP PUSH2 0xFF6 JUMP JUMPDEST PUSH1 0x0 DUP2 SSTORE PUSH1 0x1 ADD PUSH2 0x10E4 JUMP JUMPDEST PUSH4 0x4E487B71 PUSH1 0xE0 SHL PUSH1 0x0 MSTORE PUSH1 0x41 PUSH1 0x4 MSTORE PUSH1 0x24 PUSH1 0x0 REVERT JUMPDEST PUSH1 0x1 PUSH1 0x1 PUSH1 0xA0 SHL SUB PUSH2 0x112E PUSH2 0x1129 DUP4 DUP8 DUP8 PUSH2 0x1C24 JUMP JUMPDEST PUSH2 0x1C34 JUMP JUMPDEST AND ISZERO PUSH2 0x11E9 JUMPI PUSH1 0x1 DUP2 ADD DUP1 DUP3 GT PUSH2 0x11D3 JUMPI JUMPDEST DUP5 DUP2 LT PUSH2 0x1150 JUMPI POP PUSH1 0x1 ADD PUSH2 0xFA5 JUMP JUMPDEST PUSH2 0x115E PUSH2 0x1129 DUP4 DUP8 DUP8 PUSH2 0x1C24 JUMP JUMPDEST PUSH1 0x1 PUSH1 0x1 PUSH1 0xA0 SHL SUB PUSH2 0x1174 PUSH2 0x1129 DUP5 DUP10 DUP10 PUSH2 0x1C24 JUMP JUMPDEST PUSH1 0x1 PUSH1 0x1 PUSH1 0xA0 SHL SUB SWAP1 SWAP3 AND SWAP2 AND EQ PUSH2 0x118E JUMPI PUSH1 0x1 ADD PUSH2 0x1140 JUMP JUMPDEST PUSH1 0x40 MLOAD PUSH3 0x461BCD PUSH1 0xE5 SHL DUP2 MSTORE PUSH1 0x20 PUSH1 0x4 DUP3 ADD MSTORE PUSH1 0x18 PUSH1 0x24 DUP3 ADD MSTORE PUSH32 0x4475706C696361746520706C6179657220616464726573730000000000000000 PUSH1 0x44 DUP3 ADD MSTORE PUSH1 0x64 SWAP1 REVERT JUMPDEST PUSH4 0x4E487B71 PUSH1 0xE0 SHL PUSH1 0x0 MSTORE PUSH1 0x11 PUSH1 0x4 MSTORE PUSH1 0x24 PUSH1 0x0 REVERT JUMPDEST PUSH1 0x40 MLOAD PUSH3 0x461BCD PUSH1 0xE5 SHL DUP2 MSTORE PUSH1 0x20 PUSH1 0x4 DUP3 ADD MSTORE PUSH1 0x16 PUSH1 0x24 DUP3 ADD MSTORE PUSH22 0x496E76616C696420706C617965722061646472657373 PUSH1 0x50 SHL PUSH1 0x44 DUP3 ADD MSTORE PUSH1 0x64 SWAP1 REVERT JUMPDEST PUSH1 0x40 MLOAD PUSH3 0x461BCD PUSH1 0xE5 SHL DUP2 MSTORE PUSH1 0x20 PUSH1 0x4 DUP3 ADD MSTORE PUSH1 0x1C PUSH1 0x24 DUP3 ADD MSTORE PUSH32 0x5374616B65206D7573742062652067726561746572207468616E203000000000 PUSH1 0x44 DUP3 ADD MSTORE PUSH1 0x64 SWAP1 REVERT JUMPDEST PUSH1 0x40 MLOAD PUSH3 0x461BCD PUSH1 0xE5 SHL DUP2 MSTORE PUSH1 0x20 PUSH1 0x4 DUP3 ADD MSTORE PUSH1 0x19 PUSH1 0x24 DUP3 ADD MSTORE PUSH32 0x496E76616C6964206E756D626572206F6620706C617965727300000000000000 PUSH1 0x44 DUP3 ADD MSTORE PUSH1 0x64 SWAP1 REVERT JUMPDEST POP PUSH1 0xA DUP4 GT ISZERO PUSH2 0xF97 JUMP JUMPDEST PUSH1 0x40 MLOAD PUSH3 0x461BCD PUSH1 0xE5 SHL DUP2 MSTORE PUSH1 0x20 PUSH1 0x4 DUP3 ADD MSTORE PUSH1 0x13 PUSH1 0x24 DUP3 ADD MSTORE PUSH19 0x47616D6520616C726561647920657869737473 PUSH1 0x68 SHL PUSH1 0x44 DUP3 ADD MSTORE PUSH1 0x64 SWAP1 REVERT JUMPDEST CALLVALUE PUSH2 0x15C JUMPI PUSH1 0x40 CALLDATASIZE PUSH1 0x3 NOT ADD SLT PUSH2 0x15C JUMPI PUSH1 0x4 CALLDATALOAD PUSH2 0x1313 PUSH2 0x1A44 JUMP JUMPDEST SWAP1 DUP1 PUSH1 0x0 MSTORE PUSH1 0x3 PUSH1 0x20 MSTORE PUSH2 0x1332 PUSH1 0xFF PUSH1 0x40 PUSH1 0x0 KECCAK256 SLOAD AND PUSH2 0x19C DUP2 PUSH2 0x1AA1 JUMP JUMPDEST PUSH1 0x0 MSTORE PUSH1 0x3 PUSH1 0x20 MSTORE PUSH1 0x2 PUSH1 0x40 PUSH1 0x0 KECCAK256 ADD SWAP1 PUSH1 0x1 DUP1 PUSH1 0xA0 SHL SUB AND PUSH1 0x0 MSTORE PUSH1 0x20 MSTORE PUSH1 0x20 PUSH1 0xFF PUSH1 0x40 PUSH1 0x0 KECCAK256 SLOAD AND PUSH1 0x40 MLOAD SWAP1 ISZERO ISZERO DUP2 MSTORE RETURN JUMPDEST CALLVALUE PUSH2 0x15C JUMPI PUSH1 0x20 CALLDATASIZE PUSH1 0x3 NOT ADD SLT PUSH2 0x15C JUMPI PUSH1 0x4 CALLDATALOAD PUSH1 0x0 MSTORE PUSH1 0x3 PUSH1 0x20 MSTORE PUSH1 0x20 PUSH1 0xFF PUSH1 0x40 PUSH1 0x0 KECCAK256 SLOAD AND PUSH1 0x40 MLOAD SWAP1 PUSH2 0x139A DUP2 PUSH2 0x1AA1 JUMP JUMPDEST DUP2 MSTORE RETURN JUMPDEST CALLVALUE PUSH2 0x15C JUMPI PUSH1 0x60 CALLDATASIZE PUSH1 0x3 NOT ADD SLT PUSH2 0x15C JUMPI PUSH2 0x13B7 PUSH2 0x1A44 JUMP JUMPDEST PUSH1 0x44 CALLDATALOAD PUSH8 0xFFFFFFFFFFFFFFFF DUP2 GT PUSH2 0x15C JUMPI PUSH2 0x13D7 SWAP1 CALLDATASIZE SWAP1 PUSH1 0x4 ADD PUSH2 0x1A70 JUMP JUMPDEST SWAP2 PUSH2 0x13E0 PUSH2 0x1D03 JUMP JUMPDEST PUSH1 0x4 CALLDATALOAD PUSH1 0x0 MSTORE PUSH1 0x3 PUSH1 0x20 MSTORE PUSH2 0x1400 PUSH1 0xFF PUSH1 0x40 PUSH1 0x0 KECCAK256 SLOAD AND PUSH2 0x19C DUP2 PUSH2 0x1AA1 JUMP JUMPDEST PUSH1 0x0 SWAP2 PUSH1 0x0 JUMPDEST PUSH1 0x4 CALLDATALOAD PUSH1 0x0 MSTORE PUSH1 0x3 PUSH1 0x20 MSTORE PUSH1 0x1 PUSH1 0x40 PUSH1 0x0 KECCAK256 ADD SLOAD DUP2 LT ISZERO PUSH2 0x1A38 JUMPI PUSH1 0x4 CALLDATALOAD PUSH1 0x0 MSTORE PUSH1 0x3 PUSH1 0x20 MSTORE PUSH2 0x143D DUP2 PUSH1 0x1 PUSH1 0x40 PUSH1 0x0 KECCAK256 ADD PUSH2 0x1B03 JUMP JUMPDEST SWAP1 SLOAD PUSH1 0x3 SWAP2 SWAP1 SWAP2 SHL SHR PUSH1 0x1 PUSH1 0x1 PUSH1 0xA0 SHL SUB AND CALLER EQ PUSH2 0x145D JUMPI PUSH1 0x1 ADD PUSH2 0x1406 JUMP JUMPDEST POP SWAP1 SWAP2 POP PUSH2 0x146B PUSH1 0x1 PUSH2 0x1B31 JUMP JUMPDEST PUSH2 0x1473 PUSH2 0x1D25 JUMP JUMPDEST PUSH1 0x4 CALLDATALOAD PUSH1 0x0 MSTORE PUSH1 0x3 PUSH1 0x20 MSTORE PUSH1 0x40 PUSH1 0x0 KECCAK256 DUP1 SLOAD SWAP2 PUSH1 0x2 PUSH1 0xFF DUP5 AND PUSH2 0x1495 DUP2 PUSH2 0x1AA1 JUMP JUMPDEST SUB PUSH2 0x19FC JUMPI PUSH1 0x1 DUP3 ADD SLOAD SWAP5 PUSH1 0x0 DUP1 JUMPDEST DUP8 DUP2 LT PUSH2 0x19C1 JUMPI JUMPDEST POP ISZERO PUSH2 0x1970 JUMPI DUP6 PUSH1 0x0 NOT DUP2 ADD GT PUSH2 0x11D3 JUMPI PUSH1 0x1 DUP7 DUP3 SUB ADD PUSH2 0x192B JUMPI PUSH1 0x6 DUP4 ADD SLOAD PUSH1 0x40 MLOAD PUSH1 0x20 DUP2 ADD SWAP2 PUSH1 0x4 CALLDATALOAD DUP4 MSTORE PUSH12 0xFFFFFFFFFFFFFFFFFFFFFFFF NOT DUP9 PUSH1 0x60 SHL AND PUSH1 0x40 DUP4 ADD MSTORE ADDRESS PUSH1 0x60 SHL PUSH1 0x54 DUP4 ADD MSTORE CHAINID PUSH1 0x68 DUP4 ADD MSTORE PUSH1 0x88 DUP3 ADD MSTORE PUSH1 0x88 DUP2 MSTORE PUSH2 0x1514 PUSH1 0xA8 DUP3 PUSH2 0x1B8A JUMP JUMPDEST MLOAD SWAP1 KECCAK256 PUSH1 0x40 MLOAD PUSH1 0x20 DUP2 ADD SWAP2 PUSH32 0x19457468657265756D205369676E6564204D6573736167653A0A333200000000 DUP4 MSTORE PUSH1 0x3C DUP3 ADD MSTORE PUSH1 0x3C DUP2 MSTORE PUSH2 0x1556 PUSH1 0x5C DUP3 PUSH2 0x1B8A JUMP JUMPDEST MLOAD SWAP1 KECCAK256 SWAP1 PUSH1 0x0 SWAP3 PUSH2 0x1566 DUP3 PUSH2 0x1BAC JUMP JUMPDEST PUSH2 0x1573 PUSH1 0x40 MLOAD SWAP2 DUP3 PUSH2 0x1B8A JUMP JUMPDEST DUP3 DUP2 MSTORE PUSH1 0x1F NOT PUSH2 0x1582 DUP5 PUSH2 0x1BAC JUMP JUMPDEST ADD CALLDATASIZE PUSH1 0x20 DUP4 ADD CALLDATACOPY PUSH1 0x0 SWAP4 JUMPDEST DUP10 DUP6 LT PUSH2 0x175A JUMPI POP POP POP POP POP PUSH1 0x0 SWAP5 PUSH1 0x0 NOT ADD SUB PUSH2 0x1715 JUMPI PUSH1 0x3 PUSH1 0x4 SWAP3 PUSH1 0xFF NOT AND OR DUP2 SSTORE ADD SLOAD SWAP1 PUSH1 0x5 SLOAD DUP1 ISZERO ISZERO DUP1 PUSH2 0x1701 JUMPI JUMPDEST PUSH2 0x165B JUMPI JUMPDEST POP DUP3 DUP1 DUP1 DUP1 DUP6 DUP6 GAS CALL PUSH2 0x15D6 PUSH2 0x1BF4 JUMP JUMPDEST POP ISZERO PUSH2 0x161D JUMPI PUSH1 0x40 MLOAD SWAP2 DUP3 MSTORE PUSH1 0x1 PUSH1 0x1 PUSH1 0xA0 SHL SUB AND SWAP1 PUSH1 0x4 CALLDATALOAD SWAP1 PUSH32 0xB64875E7F49769075AA9AEC663C4C8BFB1212018AB5BB08B6FBEEB37DDF5C360 SWAP1 PUSH1 0x20 SWAP1 LOG3 PUSH1 0x1 DUP1 SSTORE DUP1 RETURN JUMPDEST PUSH1 0x40 MLOAD PUSH3 0x461BCD PUSH1 0xE5 SHL DUP2 MSTORE PUSH1 0x20 PUSH1 0x4 DUP3 ADD MSTORE PUSH1 0x16 PUSH1 0x24 DUP3 ADD MSTORE PUSH22 0x14995DD85C99081D1C985B9CD9995C8819985A5B1959 PUSH1 0x52 SHL PUSH1 0x44 DUP3 ADD MSTORE PUSH1 0x64 SWAP1 REVERT JUMPDEST DUP1 DUP4 MUL SWAP1 DUP4 DUP3 DIV EQ DUP4 ISZERO OR ISZERO PUSH2 0x16ED JUMPI PUSH2 0x167B PUSH2 0x2710 DUP6 SWAP3 DIV DUP1 SWAP5 PUSH2 0x1B7D JUMP JUMPDEST SWAP3 DUP1 PUSH2 0x1688 JUMPI JUMPDEST POP PUSH2 0x15C5 JUMP JUMPDEST PUSH1 0x6 SLOAD DUP3 SWAP2 DUP3 SWAP2 DUP3 SWAP2 SWAP1 PUSH1 0x1 PUSH1 0x1 PUSH1 0xA0 SHL SUB AND GAS CALL PUSH2 0x16A5 PUSH2 0x1BF4 JUMP JUMPDEST POP ISZERO PUSH2 0x16B2 JUMPI DUP3 DUP5 PUSH2 0x1682 JUMP JUMPDEST PUSH1 0x40 MLOAD PUSH3 0x461BCD PUSH1 0xE5 SHL DUP2 MSTORE PUSH1 0x20 PUSH1 0x4 DUP3 ADD MSTORE PUSH1 0x13 PUSH1 0x24 DUP3 ADD MSTORE PUSH19 0x119959481D1C985B9CD9995C8819985A5B1959 PUSH1 0x6A SHL PUSH1 0x44 DUP3 ADD MSTORE PUSH1 0x64 SWAP1 REVERT JUMPDEST PUSH4 0x4E487B71 PUSH1 0xE0 SHL DUP5 MSTORE PUSH1 0x11 PUSH1 0x4 MSTORE PUSH1 0x24 DUP5 REVERT JUMPDEST POP PUSH1 0x6 SLOAD PUSH1 0x1 PUSH1 0x1 PUSH1 0xA0 SHL SUB AND ISZERO ISZERO PUSH2 0x15C0 JUMP JUMPDEST PUSH1 0x40 MLOAD PUSH3 0x461BCD PUSH1 0xE5 SHL DUP2 MSTORE PUSH1 0x20 PUSH1 0x4 DUP3 ADD MSTORE PUSH1 0x1B PUSH1 0x24 DUP3 ADD MSTORE PUSH32 0x4E6F7420656E6F7567682076616C6964207369676E6174757265730000000000 PUSH1 0x44 DUP3 ADD MSTORE PUSH1 0x64 SWAP1 REVERT JUMPDEST SWAP3 SWAP8 SWAP4 SWAP9 PUSH2 0x1770 DUP11 PUSH1 0x1 DUP10 SWAP5 SWAP10 SWAP11 SWAP6 SWAP11 ADD PUSH2 0x1B03 JUMP JUMPDEST SWAP1 SLOAD PUSH1 0x3 SWAP2 SWAP1 SWAP2 SHL SHR PUSH1 0x1 PUSH1 0x1 PUSH1 0xA0 SHL SUB AND SWAP5 CALLER DUP7 EQ PUSH2 0x1918 JUMPI PUSH1 0x0 SWAP4 DUP5 JUMPDEST DUP12 DUP2 LT ISZERO PUSH2 0x1905 JUMPI PUSH2 0x17A1 DUP2 DUP12 PUSH2 0x1BC4 JUMP JUMPDEST MLOAD PUSH2 0x18FD JUMPI PUSH1 0x0 PUSH1 0x1E NOT DUP13 CALLDATASIZE SUB ADD DUP3 PUSH1 0x5 SHL DUP14 ADD CALLDATALOAD SLT ISZERO PUSH2 0x18FA JUMPI DUP2 PUSH1 0x5 SHL DUP13 ADD CALLDATALOAD DUP13 ADD PUSH8 0xFFFFFFFFFFFFFFFF DUP2 CALLDATALOAD GT PUSH2 0x18F8 JUMPI DUP1 CALLDATALOAD CALLDATASIZE SUB PUSH1 0x20 DUP3 ADD SGT PUSH2 0x18F8 JUMPI PUSH2 0x17EC DUP2 CALLDATALOAD PUSH2 0x1BD8 JUMP JUMPDEST SWAP1 PUSH2 0x17FA PUSH1 0x40 MLOAD SWAP3 DUP4 PUSH2 0x1B8A JUMP JUMPDEST DUP1 CALLDATALOAD DUP3 MSTORE CALLDATASIZE PUSH1 0x20 DUP3 CALLDATALOAD DUP4 ADD ADD GT PUSH2 0x18F4 JUMPI PUSH2 0x182B DUP12 SWAP3 DUP5 PUSH1 0x20 DUP5 PUSH2 0x1834 SWAP6 CALLDATALOAD DUP3 DUP3 ADD DUP4 DUP7 ADD CALLDATACOPY CALLDATALOAD DUP4 ADD ADD MSTORE DUP12 PUSH2 0x1D6B JUMP JUMPDEST SWAP1 SWAP3 SWAP2 SWAP3 PUSH2 0x1DA7 JUMP JUMPDEST PUSH1 0x1 PUSH1 0x1 PUSH1 0xA0 SHL SUB AND EQ PUSH2 0x184D JUMPI POP PUSH1 0x1 SWAP1 JUMPDEST ADD PUSH2 0x178F JUMP JUMPDEST SWAP3 SWAP12 SWAP7 SWAP8 POP SWAP8 SWAP1 SWAP10 SWAP5 POP PUSH1 0x1 SWAP12 SWAP3 SWAP12 SWAP9 SWAP4 SWAP9 SWAP2 PUSH1 0x0 NOT DUP3 EQ PUSH2 0x18E0 JUMPI POP PUSH2 0x1878 DUP3 DUP1 SWAP3 ADD SWAP9 DUP6 PUSH2 0x1BC4 JUMP JUMPDEST MSTORE JUMPDEST ISZERO PUSH2 0x188A JUMPI PUSH1 0x1 SWAP1 JUMPDEST ADD SWAP4 PUSH2 0x158D JUMP JUMPDEST PUSH1 0x40 MLOAD PUSH3 0x461BCD PUSH1 0xE5 SHL DUP2 MSTORE PUSH1 0x20 PUSH1 0x4 DUP3 ADD MSTORE PUSH1 0x28 PUSH1 0x24 DUP3 ADD MSTORE PUSH32 0x496E76616C6964206F72206D697373696E67207369676E61747572652066726F PUSH1 0x44 DUP3 ADD MSTORE PUSH8 0x3690383630BCB2B9 PUSH1 0xC1 SHL PUSH1 0x64 DUP3 ADD MSTORE PUSH1 0x84 SWAP1 REVERT JUMPDEST PUSH4 0x4E487B71 PUSH1 0xE0 SHL DUP2 MSTORE PUSH1 0x11 PUSH1 0x4 MSTORE PUSH1 0x24 SWAP1 REVERT JUMPDEST DUP3 DUP1 REVERT JUMPDEST POP JUMPDEST DUP1 REVERT JUMPDEST PUSH1 0x1 SWAP1 PUSH2 0x1847 JUMP JUMPDEST POP SWAP9 SWAP4 SWAP1 SWAP10 SWAP5 SWAP6 POP SWAP10 SWAP1 SWAP10 SWAP7 SWAP2 SWAP7 PUSH2 0x187A JUMP JUMPDEST SWAP9 SWAP4 SWAP5 POP SWAP9 PUSH1 0x1 SWAP1 SWAP8 SWAP3 SWAP8 SWAP7 SWAP2 SWAP7 PUSH2 0x1883 JUMP JUMPDEST PUSH1 0x40 MLOAD PUSH3 0x461BCD PUSH1 0xE5 SHL DUP2 MSTORE PUSH1 0x20 PUSH1 0x4 DUP3 ADD MSTORE PUSH1 0x1E PUSH1 0x24 DUP3 ADD MSTORE PUSH32 0x496E636F7272656374206E756D626572206F66207369676E6174757265730000 PUSH1 0x44 DUP3 ADD MSTORE PUSH1 0x64 SWAP1 REVERT JUMPDEST PUSH1 0x40 MLOAD PUSH3 0x461BCD PUSH1 0xE5 SHL DUP2 MSTORE PUSH1 0x20 PUSH1 0x4 DUP3 ADD MSTORE PUSH1 0x23 PUSH1 0x24 DUP3 ADD MSTORE PUSH32 0x57696E6E6572206973206E6F74206120706C6179657220696E20746869732067 PUSH1 0x44 DUP3 ADD MSTORE PUSH3 0x616D65 PUSH1 0xE8 SHL PUSH1 0x64 DUP3 ADD MSTORE PUSH1 0x84 SWAP1 REVERT JUMPDEST PUSH2 0x19CE DUP2 PUSH1 0x1 DUP8 ADD PUSH2 0x1B03 JUMP JUMPDEST SWAP1 SLOAD PUSH1 0x3 SWAP2 SWAP1 SWAP2 SHL SHR PUSH1 0x1 PUSH1 0x1 PUSH1 0xA0 SHL SUB SWAP1 DUP2 AND SWAP1 DUP9 AND EQ PUSH2 0x19F2 JUMPI PUSH1 0x1 ADD PUSH2 0x14A4 JUMP JUMPDEST POP POP PUSH1 0x1 DUP8 PUSH2 0x14AC JUMP JUMPDEST PUSH1 0x40 MLOAD PUSH3 0x461BCD PUSH1 0xE5 SHL DUP2 MSTORE PUSH1 0x20 PUSH1 0x4 DUP3 ADD MSTORE PUSH1 0x14 PUSH1 0x24 DUP3 ADD MSTORE PUSH20 0x47616D65206E6F7420696E2070726F6772657373 PUSH1 0x60 SHL PUSH1 0x44 DUP3 ADD MSTORE PUSH1 0x64 SWAP1 REVERT JUMPDEST POP SWAP1 SWAP2 PUSH2 0x146B SWAP1 PUSH2 0x1B31 JUMP JUMPDEST PUSH1 0x24 CALLDATALOAD SWAP1 PUSH1 0x1 PUSH1 0x1 PUSH1 0xA0 SHL SUB DUP3 AND DUP3 SUB PUSH2 0x15C JUMPI JUMP JUMPDEST PUSH1 0x4 CALLDATALOAD SWAP1 PUSH1 0x1 PUSH1 0x1 PUSH1 0xA0 SHL SUB DUP3 AND DUP3 SUB PUSH2 0x15C JUMPI JUMP JUMPDEST SWAP2 DUP2 PUSH1 0x1F DUP5 ADD SLT ISZERO PUSH2 0x15C JUMPI DUP3 CALLDATALOAD SWAP2 PUSH8 0xFFFFFFFFFFFFFFFF DUP4 GT PUSH2 0x15C JUMPI PUSH1 0x20 DUP1 DUP6 ADD SWAP5 DUP5 PUSH1 0x5 SHL ADD ADD GT PUSH2 0x15C JUMPI JUMP JUMPDEST PUSH1 0x4 GT ISZERO PUSH2 0x1AAB JUMPI JUMP JUMPDEST PUSH4 0x4E487B71 PUSH1 0xE0 SHL PUSH1 0x0 MSTORE PUSH1 0x21 PUSH1 0x4 MSTORE PUSH1 0x24 PUSH1 0x0 REVERT JUMPDEST ISZERO PUSH2 0x1AC8 JUMPI JUMP JUMPDEST PUSH1 0x40 MLOAD PUSH3 0x461BCD PUSH1 0xE5 SHL DUP2 MSTORE PUSH1 0x20 PUSH1 0x4 DUP3 ADD MSTORE PUSH1 0x13 PUSH1 0x24 DUP3 ADD MSTORE PUSH19 0x11D85B5948191BD95CC81B9BDD08195E1A5CDD PUSH1 0x6A SHL PUSH1 0x44 DUP3 ADD MSTORE PUSH1 0x64 SWAP1 REVERT JUMPDEST DUP1 SLOAD DUP3 LT ISZERO PUSH2 0x1B1B JUMPI PUSH1 0x0 MSTORE PUSH1 0x20 PUSH1 0x0 KECCAK256 ADD SWAP1 PUSH1 0x0 SWAP1 JUMP JUMPDEST PUSH4 0x4E487B71 PUSH1 0xE0 SHL PUSH1 0x0 MSTORE PUSH1 0x32 PUSH1 0x4 MSTORE PUSH1 0x24 PUSH1 0x0 REVERT JUMPDEST ISZERO PUSH2 0x1B38 JUMPI JUMP JUMPDEST PUSH1 0x40 MLOAD PUSH3 0x461BCD PUSH1 0xE5 SHL DUP2 MSTORE PUSH1 0x20 PUSH1 0x4 DUP3 ADD MSTORE PUSH1 0x19 PUSH1 0x24 DUP3 ADD MSTORE PUSH32 0x4E6F74206120706C6179657220696E20746869732067616D6500000000000000 PUSH1 0x44 DUP3 ADD MSTORE PUSH1 0x64 SWAP1 REVERT JUMPDEST SWAP2 SWAP1 DUP3 SUB SWAP2 DUP3 GT PUSH2 0x11D3 JUMPI JUMP JUMPDEST SWAP1 PUSH1 0x1F DUP1 NOT SWAP2 ADD AND DUP2 ADD SWAP1 DUP2 LT PUSH8 0xFFFFFFFFFFFFFFFF DUP3 GT OR PUSH2 0x10FD JUMPI PUSH1 0x40 MSTORE JUMP JUMPDEST PUSH8 0xFFFFFFFFFFFFFFFF DUP2 GT PUSH2 0x10FD JUMPI PUSH1 0x5 SHL PUSH1 0x20 ADD SWAP1 JUMP JUMPDEST DUP1 MLOAD DUP3 LT ISZERO PUSH2 0x1B1B JUMPI PUSH1 0x20 SWAP2 PUSH1 0x5 SHL ADD ADD SWAP1 JUMP JUMPDEST PUSH8 0xFFFFFFFFFFFFFFFF DUP2 GT PUSH2 0x10FD JUMPI PUSH1 0x1F ADD PUSH1 0x1F NOT AND PUSH1 0x20 ADD SWAP1 JUMP JUMPDEST RETURNDATASIZE ISZERO PUSH2 0x1C1F JUMPI RETURNDATASIZE SWAP1 PUSH2 0x1C05 DUP3 PUSH2 0x1BD8 JUMP JUMPDEST SWAP2 PUSH2 0x1C13 PUSH1 0x40 MLOAD SWAP4 DUP5 PUSH2 0x1B8A JUMP JUMPDEST DUP3 MSTORE RETURNDATASIZE PUSH1 0x0 PUSH1 0x20 DUP5 ADD RETURNDATACOPY JUMP JUMPDEST PUSH1 0x60 SWAP1 JUMP JUMPDEST SWAP2 SWAP1 DUP2 LT ISZERO PUSH2 0x1B1B JUMPI PUSH1 0x5 SHL ADD SWAP1 JUMP JUMPDEST CALLDATALOAD PUSH1 0x1 PUSH1 0x1 PUSH1 0xA0 SHL SUB DUP2 AND DUP2 SUB PUSH2 0x15C JUMPI SWAP1 JUMP JUMPDEST SWAP2 SWAP1 DUP3 ADD DUP1 SWAP3 GT PUSH2 0x11D3 JUMPI JUMP JUMPDEST PUSH1 0x40 MLOAD SWAP1 PUSH2 0x1C64 PUSH1 0x20 DUP4 PUSH2 0x1B8A JUMP JUMPDEST PUSH1 0x0 DUP1 DUP4 MSTORE CALLDATASIZE PUSH1 0x20 DUP5 ADD CALLDATACOPY JUMP JUMPDEST SWAP1 DUP2 PUSH1 0x0 MSTORE PUSH1 0x3 PUSH1 0x20 MSTORE PUSH1 0xFF PUSH1 0x40 PUSH1 0x0 KECCAK256 SLOAD AND PUSH2 0x1C8D DUP2 PUSH2 0x1AA1 JUMP JUMPDEST ISZERO PUSH2 0x1CFC JUMPI PUSH1 0x0 JUMPDEST DUP3 PUSH1 0x0 MSTORE PUSH1 0x3 PUSH1 0x20 MSTORE PUSH1 0x1 PUSH1 0x40 PUSH1 0x0 KECCAK256 ADD SLOAD DUP2 LT ISZERO PUSH2 0x1CF4 JUMPI DUP3 PUSH1 0x0 MSTORE PUSH1 0x3 PUSH1 0x20 MSTORE PUSH2 0x1CC8 DUP2 PUSH1 0x1 PUSH1 0x40 PUSH1 0x0 KECCAK256 ADD PUSH2 0x1B03 JUMP JUMPDEST SWAP1 SLOAD PUSH1 0x3 SWAP2 SWAP1 SWAP2 SHL SHR PUSH1 0x1 PUSH1 0x1 PUSH1 0xA0 SHL SUB SWAP1 DUP2 AND SWAP1 DUP4 AND EQ PUSH2 0x1CEC JUMPI PUSH1 0x1 ADD PUSH2 0x1C95 JUMP JUMPDEST POP POP POP PUSH1 0x1 SWAP1 JUMP JUMPDEST POP POP POP PUSH1 0x0 SWAP1 JUMP JUMPDEST POP POP PUSH1 0x0 SWAP1 JUMP JUMPDEST PUSH1 0x2 PUSH1 0x1 SLOAD EQ PUSH2 0x1D14 JUMPI PUSH1 0x2 PUSH1 0x1 SSTORE JUMP JUMPDEST PUSH4 0x3EE5AEB5 PUSH1 0xE0 SHL PUSH1 0x0 MSTORE PUSH1 0x4 PUSH1 0x0 REVERT JUMPDEST PUSH1 0xFF PUSH1 0x2 SLOAD AND PUSH2 0x1D31 JUMPI JUMP JUMPDEST PUSH4 0xD93C0665 PUSH1 0xE0 SHL PUSH1 0x0 MSTORE PUSH1 0x4 PUSH1 0x0 REVERT JUMPDEST PUSH1 0x0 SLOAD PUSH1 0x1 PUSH1 0x1 PUSH1 0xA0 SHL SUB AND CALLER SUB PUSH2 0x1D56 JUMPI JUMP JUMPDEST PUSH4 0x118CDAA7 PUSH1 0xE0 SHL PUSH1 0x0 MSTORE CALLER PUSH1 0x4 MSTORE PUSH1 0x24 PUSH1 0x0 REVERT JUMPDEST DUP2 MLOAD SWAP2 SWAP1 PUSH1 0x41 DUP4 SUB PUSH2 0x1D9C JUMPI PUSH2 0x1D95 SWAP3 POP PUSH1 0x20 DUP3 ADD MLOAD SWAP1 PUSH1 0x60 PUSH1 0x40 DUP5 ADD MLOAD SWAP4 ADD MLOAD PUSH1 0x0 BYTE SWAP1 PUSH2 0x1E29 JUMP JUMPDEST SWAP2 SWAP3 SWAP1 SWAP2 SWAP1 JUMP JUMPDEST POP POP PUSH1 0x0 SWAP2 PUSH1 0x2 SWAP2 SWAP1 JUMP JUMPDEST PUSH2 0x1DB0 DUP2 PUSH2 0x1AA1 JUMP JUMPDEST DUP1 PUSH2 0x1DB9 JUMPI POP POP JUMP JUMPDEST PUSH2 0x1DC2 DUP2 PUSH2 0x1AA1 JUMP JUMPDEST PUSH1 0x1 DUP2 SUB PUSH2 0x1DDB JUMPI PUSH4 0xF645EEDF PUSH1 0xE0 SHL PUSH1 0x0 MSTORE PUSH1 0x4 PUSH1 0x0 REVERT JUMPDEST PUSH2 0x1DE4 DUP2 PUSH2 0x1AA1 JUMP JUMPDEST PUSH1 0x2 DUP2 SUB PUSH2 0x1E01 JUMPI POP PUSH4 0xFCE698F7 PUSH1 0xE0 SHL PUSH1 0x0 MSTORE PUSH1 0x4 MSTORE PUSH1 0x24 PUSH1 0x0 REVERT JUMPDEST PUSH1 0x3 SWAP1 PUSH2 0x1E0D DUP2 PUSH2 0x1AA1 JUMP JUMPDEST EQ PUSH2 0x1E15 JUMPI POP JUMP JUMPDEST PUSH4 0x35E2F383 PUSH1 0xE2 SHL PUSH1 0x0 MSTORE PUSH1 0x4 MSTORE PUSH1 0x24 PUSH1 0x0 REVERT JUMPDEST SWAP2 SWAP1 PUSH32 0x7FFFFFFFFFFFFFFFFFFFFFFFFFFFFFFF5D576E7357A4501DDFE92F46681B20A0 DUP5 GT PUSH2 0x1EB2 JUMPI SWAP2 PUSH1 0x20 SWAP4 PUSH1 0x80 SWAP3 PUSH1 0xFF PUSH1 0x0 SWAP6 PUSH1 0x40 MLOAD SWAP5 DUP6 MSTORE AND DUP7 DUP5 ADD MSTORE PUSH1 0x40 DUP4 ADD MSTORE PUSH1 0x60 DUP3 ADD MSTORE DUP3 DUP1 MSTORE PUSH1 0x1 GAS STATICCALL ISZERO PUSH2 0x1EA6 JUMPI PUSH1 0x0 MLOAD PUSH1 0x1 PUSH1 0x1 PUSH1 0xA0 SHL SUB DUP2 AND ISZERO PUSH2 0x1E9A JUMPI SWAP1 PUSH1 0x0 SWAP1 PUSH1 0x0 SWAP1 JUMP JUMPDEST POP PUSH1 0x0 SWAP1 PUSH1 0x1 SWAP1 PUSH1 0x0 SWAP1 JUMP JUMPDEST PUSH1 0x40 MLOAD RETURNDATASIZE PUSH1 0x0 DUP3 RETURNDATACOPY RETURNDATASIZE SWAP1 REVERT JUMPDEST POP POP POP PUSH1 0x0 SWAP2 PUSH1 0x3 SWAP2 SWAP1 JUMP INVALID LOG2 PUSH5 0x6970667358 0x22 SLT KECCAK256 SWAP10 LOG0 PUSH9 0xBC307E920BCF3279F3 CALLDATALOAD PUSH14 0xC0CC6037FFCFCB5E77EC5C517F43 0xD8 0xA9 PUSH21 0xE564736F6C634300081C0033000000000000000000 "},"methodIdentifiers":{"MAX_PLAYERS()":"4411b3eb","MIN_PLAYERS()":"85f07bbe","cancelGame(bytes32)":"3f7121b0","createGame(bytes32,address[],uint256)":"2570069b","feeCollector()":"c415b95c","feePercentage()":"a001ecdd","gameExpirationTime()":"f99d948f","getActiveGameIds()":"6916c9b0","getGameExpiration(bytes32)":"e7c09c28","getGamePlayers(bytes32)":"3c261734","getGameStatus(bytes32)":"146c638d","getPlayerStake(bytes32,address)":"f6d3cf74","getTotalStaked(bytes32)":"f10e6b7e","hasPlayerStaked(bytes32,address)":"170150a4","isPlayerInGame(bytes32,address)":"d26a0880","owner()":"8da5cb5b","pause()":"8456cb59","paused()":"5c975abb","recoverFunds(address,uint256)":"58609754","renounceOwnership()":"715018a6","setFeeCollector(address)":"a42dce80","setFeePercentage(uint256)":"ae06c1b7","setGameExpirationTime(uint256)":"5f114cf2","stake(bytes32)":"c0d64a87","submitResult(bytes32,address,bytes[])":"137d61e6","transferOwnership(address)":"f2fde38b","unpause()":"3f4ba83a"}}}}}