{"contracts/MONarcade.sol":{"MONarcade":{"abi":[{"inputs":[{"internalType":"address","name":"_monToken","type":"address"},{"internalType":"address","name":"_feeCollector","type":"address"}],"stateMutability":"nonpayable","type":"constructor"},{"inputs":[],"name":"ECDSAInvalidSignature","type":"error"},{"inputs":[{"internalType":"uint256","name":"length","type":"uint256"}],"name":"ECDSAInvalidSignatureLength","type":"error"},{"inputs":[{"internalType":"bytes32","name":"s","type":"bytes32"}],"name":"ECDSAInvalidSignatureS","type":"error"},{"inputs":[],"name":"EnforcedPause","type":"error"},{"inputs":[],"name":"ExpectedPause","type":"error"},{"inputs":[{"internalType":"address","name":"owner","type":"address"}],"name":"OwnableInvalidOwner","type":"error"},{"inputs":[{"internalType":"address","name":"account","type":"address"}],"name":"OwnableUnauthorizedAccount","type":"error"},{"inputs":[],"name":"ReentrancyGuardReentrantCall","type":"error"},{"inputs":[{"internalType":"address","name":"token","type":"address"}],"name":"SafeERC20FailedOperation","type":"error"},{"anonymous":false,"inputs":[{"indexed":false,"internalType":"address","name":"oldCollector","type":"address"},{"indexed":false,"internalType":"address","name":"newCollector","type":"address"}],"name":"FeeCollectorChanged","type":"event"},{"anonymous":false,"inputs":[{"indexed":false,"internalType":"uint256","name":"oldFee","type":"uint256"},{"indexed":false,"internalType":"uint256","name":"newFee","type":"uint256"}],"name":"FeePercentageChanged","type":"event"},{"anonymous":false,"inputs":[{"indexed":false,"internalType":"address","name":"token","type":"address"},{"indexed":false,"internalType":"address","name":"to","type":"address"},{"indexed":false,"internalType":"uint256","name":"amount","type":"uint256"}],"name":"FundsRecovered","type":"event"},{"anonymous":false,"inputs":[{"indexed":true,"internalType":"bytes32","name":"gameId","type":"bytes32"},{"indexed":false,"internalType":"string","name":"reason","type":"string"}],"name":"GameCancelled","type":"event"},{"anonymous":false,"inputs":[{"indexed":true,"internalType":"bytes32","name":"gameId","type":"bytes32"},{"indexed":false,"internalType":"address[]","name":"players","type":"address[]"},{"indexed":false,"internalType":"uint256","name":"stakeAmount","type":"uint256"},{"indexed":false,"internalType":"uint256","name":"expiresAt","type":"uint256"}],"name":"GameCreated","type":"event"},{"anonymous":false,"inputs":[{"indexed":false,"internalType":"uint256","name":"oldTime","type":"uint256"},{"indexed":false,"internalType":"uint256","name":"newTime","type":"uint256"}],"name":"GameExpirationTimeChanged","type":"event"},{"anonymous":false,"inputs":[{"indexed":true,"internalType":"bytes32","name":"gameId","type":"bytes32"},{"indexed":true,"internalType":"address","name":"winner","type":"address"},{"indexed":false,"internalType":"uint256","name":"reward","type":"uint256"}],"name":"GameResultSubmitted","type":"event"},{"anonymous":false,"inputs":[{"indexed":true,"internalType":"address","name":"previousOwner","type":"address"},{"indexed":true,"internalType":"address","name":"newOwner","type":"address"}],"name":"OwnershipTransferred","type":"event"},{"anonymous":false,"inputs":[{"indexed":false,"internalType":"address","name":"account","type":"address"}],"name":"Paused","type":"event"},{"anonymous":false,"inputs":[{"indexed":true,"internalType":"bytes32","name":"gameId","type":"bytes32"},{"indexed":true,"internalType":"address","name":"player","type":"address"},{"indexed":false,"internalType":"uint256","name":"amount","type":"uint256"}],"name":"PlayerStaked","type":"event"},{"anonymous":false,"inputs":[{"indexed":false,"internalType":"address","name":"account","type":"address"}],"name":"Unpaused","type":"event"},{"inputs":[],"name":"MAX_PLAYERS","outputs":[{"internalType":"uint256","name":"","type":"uint256"}],"stateMutability":"view","type":"function"},{"inputs":[],"name":"MIN_PLAYERS","outputs":[{"internalType":"uint256","name":"","type":"uint256"}],"stateMutability":"view","type":"function"},{"inputs":[{"internalType":"bytes32","name":"gameId","type":"bytes32"}],"name":"cancelGame","outputs":[],"stateMutability":"nonpayable","type":"function"},{"inputs":[{"internalType":"bytes32","name":"gameId","type":"bytes32"},{"internalType":"address[]","name":"players","type":"address[]"},{"internalType":"uint256","name":"stakeAmount","type":"uint256"}],"name":"createGame","outputs":[],"stateMutability":"nonpayable","type":"function"},{"inputs":[],"name":"feeCollector","outputs":[{"internalType":"address","name":"","type":"address"}],"stateMutability":"view","type":"function"},{"inputs":[],"name":"feePercentage","outputs":[{"internalType":"uint256","name":"","type":"uint256"}],"stateMutability":"view","type":"function"},{"inputs":[],"name":"gameExpirationTime","outputs":[{"internalType":"uint256","name":"","type":"uint256"}],"stateMutability":"view","type":"function"},{"inputs":[],"name":"getActiveGameIds","outputs":[{"internalType":"bytes32[]","name":"","type":"bytes32[]"}],"stateMutability":"view","type":"function"},{"inputs":[{"internalType":"bytes32","name":"gameId","type":"bytes32"}],"name":"getGameExpiration","outputs":[{"internalType":"uint256","name":"","type":"uint256"}],"stateMutability":"view","type":"function"},{"inputs":[{"internalType":"bytes32","name":"gameId","type":"bytes32"}],"name":"getGamePlayers","outputs":[{"internalType":"address[]","name":"","type":"address[]"}],"stateMutability":"view","type":"function"},{"inputs":[{"internalType":"bytes32","name":"gameId","type":"bytes32"}],"name":"getGameStatus","outputs":[{"internalType":"enum MONarcade.GameStatus","name":"","type":"uint8"}],"stateMutability":"view","type":"function"},{"inputs":[{"internalType":"bytes32","name":"gameId","type":"bytes32"},{"internalType":"address","name":"player","type":"address"}],"name":"getPlayerStake","outputs":[{"internalType":"uint256","name":"","type":"uint256"}],"stateMutability":"view","type":"function"},{"inputs":[{"internalType":"bytes32","name":"gameId","type":"bytes32"}],"name":"getTotalStaked","outputs":[{"internalType":"uint256","name":"","type":"uint256"}],"stateMutability":"view","type":"function"},{"inputs":[{"internalType":"bytes32","name":"gameId","type":"bytes32"},{"internalType":"address","name":"player","type":"address"}],"name":"hasPlayerStaked","outputs":[{"internalType":"bool","name":"","type":"bool"}],"stateMutability":"view","type":"function"},{"inputs":[{"internalType":"bytes32","name":"gameId","type":"bytes32"},{"internalType":"address","name":"player","type":"address"}],"name":"isPlayerInGame","outputs":[{"internalType":"bool","name":"","type":"bool"}],"stateMutability":"view","type":"function"},{"inputs":[],"name":"monToken","outputs":[{"internalType":"contract IERC20","name":"","type":"address"}],"stateMutability":"view","type":"function"},{"inputs":[],"name":"owner","outputs":[{"internalType":"address","name":"","type":"address"}],"stateMutability":"view","type":"function"},{"inputs":[],"name":"pause","outputs":[],"stateMutability":"nonpayable","type":"function"},{"inputs":[],"name":"paused","outputs":[{"internalType":"bool","name":"","type":"bool"}],"stateMutability":"view","type":"function"},{"inputs":[{"internalType":"address","name":"tokenAddress","type":"address"},{"internalType":"address","name":"to","type":"address"},{"internalType":"uint256","name":"amount","type":"uint256"}],"name":"recoverTokens","outputs":[],"stateMutability":"nonpayable","type":"function"},{"inputs":[],"name":"renounceOwnership","outputs":[],"stateMutability":"nonpayable","type":"function"},{"inputs":[{"internalType":"address","name":"_feeCollector","type":"address"}],"name":"setFeeCollector","outputs":[],"stateMutability":"nonpayable","type":"function"},{"inputs":[{"internalType":"uint256","name":"_feePercentage","type":"uint256"}],"name":"setFeePercentage","outputs":[],"stateMutability":"nonpayable","type":"function"},{"inputs":[{"internalType":"uint256","name":"_expirationTime","type":"uint256"}],"name":"setGameExpirationTime","outputs":[],"stateMutability":"nonpayable","type":"function"},{"inputs":[{"internalType":"bytes32","name":"gameId","type":"bytes32"}],"name":"stake","outputs":[],"stateMutability":"nonpayable","type":"function"},{"inputs":[{"internalType":"bytes32","name":"gameId","type":"bytes32"},{"internalType":"address","name":"winner","type":"address"},{"internalType":"bytes[]","name":"signatures","type":"bytes[]"}],"name":"submitResult","outputs":[],"stateMutability":"nonpayable","type":"function"},{"inputs":[{"internalType":"address","name":"newOwner","type":"address"}],"name":"transferOwnership","outputs":[],"stateMutability":"nonpayable","type":"function"},{"inputs":[],"name":"unpause","outputs":[],"stateMutability":"nonpayable","type":"function"}],"evm":{"bytecode":{"linkReferences":{},"object":"60a0346101c157601f6121a738819003918201601f19168301916001600160401b038311848410176101c65780849260409485528339810103126101c157610052602061004b836101dc565b92016101dc565b33156101ab5760008054336001600160a01b0319821681178355604051949290916001600160a01b0316907f8be0079c531659141344cd1fd0a4f28419497f9722a3daafe3b4186f6b6457e09080a3600180556201518060055560006006556001600160a01b031691821561016957506001600160a01b031690811561012457608052600780546001600160a01b031916919091179055604051611fb690816101f182396080518181816104f001528181610959015281816109d301528181610d84015281816116a1015261173f0152f35b60405162461bcd60e51b815260206004820152601d60248201527f496e76616c69642066656520636f6c6c6563746f7220616464726573730000006044820152606490fd5b62461bcd60e51b815260206004820152601960248201527f496e76616c6964204d4f4e20746f6b656e2061646472657373000000000000006044820152606490fd5b631e4fbdf760e01b600052600060045260246000fd5b600080fd5b634e487b7160e01b600052604160045260246000fd5b51906001600160a01b03821682036101c15756fe6080604052600436101561001257600080fd5b60003560e01c8063137d61e614611472578063146c638d1461143a578063170150a4146113cb5780632570069b14610ff95780633c26173414610f1a5780633f4ba83a14610eb15780633f7121b014610c9f5780634411b3eb14610c835780635c975abb14610c605780635f114cf214610bbd5780635f3e849f1461098857806363eb9f90146109435780636916c9b0146108e5578063715018a61461088c5780638456cb591461083257806385f07bbe146108165780638da5cb5b146107ed578063a001ecdd146107cf578063a42dce8014610706578063ae06c1b71461066b578063c0d64a8714610360578063c415b95c14610337578063d26a088014610307578063e7c09c28146102ba578063f10e6b7e1461026d578063f2fde38b146101e4578063f6d3cf74146101735763f99d948f1461015057600080fd5b3461016e57600036600319011261016e576020600554604051908152f35b600080fd5b3461016e57604036600319011261016e5760043561018f611ac1565b908060005260036020526101b560ff604060002054166101ae81611b1e565b1515611b3e565b600052600360205260036040600020019060018060a01b03166000526020526020604060002054604051908152f35b3461016e57602036600319011261016e576101fd611ad7565b610205611db5565b6001600160a01b0316801561025757600080546001600160a01b03198116831782556001600160a01b0316907f8be0079c531659141344cd1fd0a4f28419497f9722a3daafe3b4186f6b6457e09080a3005b631e4fbdf760e01b600052600060045260246000fd5b3461016e57602036600319011261016e5760043580600052600360205261029f60ff604060002054166101ae81611b1e565b60005260036020526020600460406000200154604051908152f35b3461016e57602036600319011261016e576004358060005260036020526102ec60ff604060002054166101ae81611b1e565b60005260036020526020600760406000200154604051908152f35b3461016e57604036600319011261016e57602061032d610325611ac1565b600435611ca2565b6040519015158152f35b3461016e57600036600319011261016e576007546040516001600160a01b039091168152602090f35b3461016e57602036600319011261016e5760043561037c611d34565b80600052600360205261039a60ff604060002054166101ae81611b1e565b6000805b826000526003602052600160406000200154811015610661578260005260036020526103d1816001604060002001611b80565b905460039190911b1c6001600160a01b031633146103f15760010161039e565b50506103fd6001611bae565b610405611d56565b806000526003602052604060002090600360ff83541661042481611b1e565b1461062357600282019160018060a01b0333166000528260205260ff604060002054166105e65760078101544210156105a157600581015433600090815260208581526040808320805460ff19166001179055600385019091529020819055600482018054919491610497908690611c79565b9055600190600090600184018054925b838110610557575b50505050610546575b506040516323b872dd60e01b602082015233602482015230604482015260648082018490528152610514906104ee608482611c07565b7f0000000000000000000000000000000000000000000000000000000000000000611e9c565b6040519182527f56c747fbedf585ad60199a7eaf64beaeee901b3ad2b3b7680a0342fb5285623260203393a360018055005b805460ff19166002179055826104b8565b60ff60406105658385611b80565b905460039190911b1c6001600160a01b03166000908152602086905220541615610591576001016104a7565b50505050506000848080806104af565b60405162461bcd60e51b815260206004820152601f60248201527f47616d65207374616b696e6720706572696f64206861732065787069726564006044820152606490fd5b60405162461bcd60e51b8152602060048201526015602482015274141b185e595c88185b1c9958591e481cdd185ad959605a1b6044820152606490fd5b60405162461bcd60e51b815260206004820152601660248201527511d85b5948185b1c9958591e4818dbdb5c1b195d195960521b6044820152606490fd5b506103fd90611bae565b3461016e57602036600319011261016e57600435610687611db5565b6103e881116106c95760407f2235d343de14bfe1d7efed850d828da476e76eb894c4831ccfa097efc5a4544491600654908060065582519182526020820152a1005b60405162461bcd60e51b81526020600482015260156024820152744665652063616e6e6f74206578636565642031302560581b6044820152606490fd5b3461016e57602036600319011261016e5761071f611ad7565b610727611db5565b6001600160a01b0316801561078a5760407f649c5e3d0ed183894196148e193af316452b0037e77d2ff0fef23b7dc722bed09160075490806bffffffffffffffffffffffff60a01b83161760075582519160018060a01b031682526020820152a1005b60405162461bcd60e51b815260206004820152601d60248201527f496e76616c69642066656520636f6c6c6563746f7220616464726573730000006044820152606490fd5b3461016e57600036600319011261016e576020600654604051908152f35b3461016e57600036600319011261016e576000546040516001600160a01b039091168152602090f35b3461016e57600036600319011261016e57602060405160028152f35b3461016e57600036600319011261016e5761084b611db5565b610853611d56565b600160ff1960025416176002557f62e78cea01bee320cd4e420270b5ea74000d11b0c9f74754ebdbfc544b05a2586020604051338152a1005b3461016e57600036600319011261016e576108a5611db5565b600080546001600160a01b0319811682556001600160a01b03167f8be0079c531659141344cd1fd0a4f28419497f9722a3daafe3b4186f6b6457e08280a3005b3461016e57600036600319011261016e576108fe611c86565b60405180916020820160208352815180915260206040840192019060005b81811061092a575050500390f35b825184528594506020938401939092019160010161091c565b3461016e57600036600319011261016e576040517f00000000000000000000000000000000000000000000000000000000000000006001600160a01b03168152602090f35b3461016e57606036600319011261016e576109a1611ad7565b6109a9611ac1565b604435916109b5611db5565b6001600160a01b03821615610b78576001600160a01b0381811693907f000000000000000000000000000000000000000000000000000000000000000016848114610a5b575b5080610a2c610a5692857f13e06184555481b6d2cb327155e8d2e1d0b1f0252a7fe6621e32cf998814883597611d73565b604080516001600160a01b0394851681529490931660208501529183019190915281906060820190565b0390a1005b906020602495949392604051968780926370a0823160e01b82523060048301525afa948515610b6c57600095610b38575b50600092610a98611c86565b926000945b8451861015610ad657610ace600191610ab68888611c41565b51600052600360205260046040600020015490611c79565b950194610a9d565b909450610ae7919593508296611bfa565b10610af35792846109fb565b60405162461bcd60e51b815260206004820152601d60248201527f43616e6e6f74207769746864726177207374616b656420746f6b656e730000006044820152606490fd5b9094506020813d602011610b64575b81610b5460209383611c07565b8101031261016e57519385610a8c565b3d9150610b47565b6040513d6000823e3d90fd5b60405162461bcd60e51b815260206004820152601b60248201527f43616e6e6f742073656e6420746f207a65726f206164647265737300000000006044820152606490fd5b3461016e57602036600319011261016e57600435610bd9611db5565b610e108110610c1b5760407f0a04319e8ad46a28137a006cf543da68117417bba59161b72e57ce45e334fe5a91600554908060055582519182526020820152a1005b60405162461bcd60e51b815260206004820152601960248201527f45787069726174696f6e2074696d6520746f6f2073686f7274000000000000006044820152606490fd5b3461016e57600036600319011261016e57602060ff600254166040519015158152f35b3461016e57600036600319011261016e576020604051600a8152f35b3461016e57602036600319011261016e57600435610cbb611d34565b806000526003602052604060002060018060a01b036000541633148015610e92575b15610e4d578054600160ff8216610cf381611b1e565b03610e085760ff1916600390811782556001820191839181019060020160005b8454811015610db85780610d2960019287611b80565b905460039190911b1c60a083901b8390031660008181526020868152604080832054918790529091205460ff1680610daf575b610d69575b505001610d13565b610da8916000604081878060a01b03841681528960205220557f0000000000000000000000000000000000000000000000000000000000000000611d73565b8680610d61565b50801515610d5c565b837fd48b0c9992d8d4b8967d1584dc8c1955390d9ff30639a7da9c77e7f0db86c3d8606060405160208152600e60208201526d11d85b594818d85b98d95b1b195960921b6040820152a260018055005b60405162461bcd60e51b815260206004820152601860248201527f47616d652063616e6e6f742062652063616e63656c6c656400000000000000006044820152606490fd5b60405162461bcd60e51b815260206004820152601860248201527f4e6f7420617574686f72697a656420746f2063616e63656c00000000000000006044820152606490fd5b50610e9d3383611ca2565b8015610cdd57506007810154421015610cdd565b3461016e57600036600319011261016e57610eca611db5565b60025460ff811615610f095760ff19166002557f5db9ee0a495bf2e6ff9c91a7834c1ba4fdd244a5e8aa4e537bd38aeae4b073aa6020604051338152a1005b638dfc202b60e01b60005260046000fd5b3461016e57602036600319011261016e57600435806000526003602052610f4c60ff604060002054166101ae81611b1e565b600052600360205260016040600020016040518060208354918281520190819360005260206000209060005b818110610fda5750505081610f8e910382611c07565b6040519182916020830190602084525180915260408301919060005b818110610fb8575050500390f35b82516001600160a01b0316845285945060209384019390920191600101610faa565b82546001600160a01b0316845260209093019260019283019201610f78565b3461016e57606036600319011261016e5760043560243567ffffffffffffffff811161016e5761102d903690600401611aed565b90604435611039611db5565b611041611d56565b83600052600360205260ff6040600020541661105c81611b1e565b61139057600283101580611385575b156113405780156112fb5760005b8381106111e757508360005260036020526040600020600160ff198254161781556001810167ffffffffffffffff85116111d1576801000000000000000085116111d15780548582558086106111a8575b508394939060005260206000209060005b858110611187575050509081816005600794015542600682015561110160055442611c79565b928391015560405192806060850160608652526080840194906000905b80821061115b57505050602083015260408201527fa3030d9ef1703b5cc847027f1f0e1756000444d2707b84ca93ae6e5b3d29daab9181900390a2005b9091949585359060018060a01b03821680920361016e579081526020908101969501916001019061111e565b600190602061119884999899611c65565b93019281850155019594956110db565b8160005285602060002091820191015b8181106111c557506110ca565b600081556001016111b8565b634e487b7160e01b600052604160045260246000fd5b6001600160a01b036112026111fd838787611c55565b611c65565b16156112bd57600181018082116112a7575b8481106112245750600101611079565b6112326111fd838787611c55565b6001600160a01b036112486111fd848989611c55565b6001600160a01b0390921691161461126257600101611214565b60405162461bcd60e51b815260206004820152601860248201527f4475706c696361746520706c61796572206164647265737300000000000000006044820152606490fd5b634e487b7160e01b600052601160045260246000fd5b60405162461bcd60e51b8152602060048201526016602482015275496e76616c696420706c61796572206164647265737360501b6044820152606490fd5b60405162461bcd60e51b815260206004820152601c60248201527f5374616b65206d7573742062652067726561746572207468616e2030000000006044820152606490fd5b60405162461bcd60e51b815260206004820152601960248201527f496e76616c6964206e756d626572206f6620706c6179657273000000000000006044820152606490fd5b50600a83111561106b565b60405162461bcd60e51b815260206004820152601360248201527247616d6520616c72656164792065786973747360681b6044820152606490fd5b3461016e57604036600319011261016e576004356113e7611ac1565b9080600052600360205261140660ff604060002054166101ae81611b1e565b600052600360205260026040600020019060018060a01b0316600052602052602060ff604060002054166040519015158152f35b3461016e57602036600319011261016e576004356000526003602052602060ff604060002054166040519061146e81611b1e565b8152f35b3461016e57606036600319011261016e5761148b611ac1565b60443567ffffffffffffffff811161016e576114ab903690600401611aed565b916114b4611d34565b60043560005260036020526114d460ff604060002054166101ae81611b1e565b60009160005b6004356000526003602052600160406000200154811015611ab5576004356000526003602052611511816001604060002001611b80565b905460039190911b1c6001600160a01b03163314611531576001016114da565b5090915061153f6001611bae565b611547611d56565b60043560005260036020526040600020805491600260ff841661156981611b1e565b03611a79576001820154946000805b878110611a3e575b50156119ed57856000198101116112a7576001868203016119a8576006830154604051602081019160043583526bffffffffffffffffffffffff198860601b1660408301523060601b60548301524660688301526088820152608881526115e860a882611c07565b51902060405160208101917f19457468657265756d205369676e6564204d6573736167653a0a3332000000008352603c820152603c815261162a605c82611c07565b5190209060009261163a82611c29565b6116476040519182611c07565b828152601f1961165684611c29565b013660208301376000935b8985106117d6575050505050600094600019010361179157600360049260ff19161781550154906006548015158061177d575b611706575b506116c582827f0000000000000000000000000000000000000000000000000000000000000000611d73565b6040519182526001600160a01b031690600435907fb64875e7f49769075aa9aec663c4c8bfb1212018ab5bb08b6fbeeb37ddf5c36090602090a36001805580f35b8083029083820414831517156117695761271061172591048093611bfa565b9180156116995760075461176391906001600160a01b03167f0000000000000000000000000000000000000000000000000000000000000000611d73565b83611699565b634e487b7160e01b84526011600452602484fd5b506007546001600160a01b03161515611694565b60405162461bcd60e51b815260206004820152601b60248201527f4e6f7420656e6f7567682076616c6964207369676e61747572657300000000006044820152606490fd5b929793986117ec8a60018994999a959a01611b80565b905460039190911b1c6001600160a01b03169433861461199557600093845b8b8110156119825761181d818b611c41565b5161197a576000601e198c3603018260051b8d01351215611977578160051b8c01358c0167ffffffffffffffff8135116119755780353603602082011361197557604051906118778135601f01601f191660200183611c07565b80358252366020823583010111611971576118a88b92846020846118b195358282018386013735830101528b611dde565b90929192611e1a565b6001600160a01b0316146118ca57506001905b0161180b565b929b969750979099945060019b929b98939891600019821461195d57506118f5828092019885611c41565b525b15611907576001905b0193611661565b60405162461bcd60e51b815260206004820152602860248201527f496e76616c6964206f72206d697373696e67207369676e61747572652066726f6044820152673690383630bcb2b960c11b6064820152608490fd5b634e487b7160e01b81526011600452602490fd5b8280fd5b505b80fd5b6001906118c4565b50989390999495509990999691966118f7565b9893945098600190979297969196611900565b60405162461bcd60e51b815260206004820152601e60248201527f496e636f7272656374206e756d626572206f66207369676e61747572657300006044820152606490fd5b60405162461bcd60e51b815260206004820152602360248201527f57696e6e6572206973206e6f74206120706c6179657220696e20746869732067604482015262616d6560e81b6064820152608490fd5b611a4b8160018701611b80565b905460039190911b1c6001600160a01b0390811690881614611a6f57600101611578565b5050600187611580565b60405162461bcd60e51b815260206004820152601460248201527347616d65206e6f7420696e2070726f677265737360601b6044820152606490fd5b50909161153f90611bae565b602435906001600160a01b038216820361016e57565b600435906001600160a01b038216820361016e57565b9181601f8401121561016e5782359167ffffffffffffffff831161016e576020808501948460051b01011161016e57565b60041115611b2857565b634e487b7160e01b600052602160045260246000fd5b15611b4557565b60405162461bcd60e51b815260206004820152601360248201527211d85b5948191bd95cc81b9bdd08195e1a5cdd606a1b6044820152606490fd5b8054821015611b985760005260206000200190600090565b634e487b7160e01b600052603260045260246000fd5b15611bb557565b60405162461bcd60e51b815260206004820152601960248201527f4e6f74206120706c6179657220696e20746869732067616d65000000000000006044820152606490fd5b919082039182116112a757565b90601f8019910116810190811067ffffffffffffffff8211176111d157604052565b67ffffffffffffffff81116111d15760051b60200190565b8051821015611b985760209160051b010190565b9190811015611b985760051b0190565b356001600160a01b038116810361016e5790565b919082018092116112a757565b60405190611c95602083611c07565b6000808352366020840137565b9081600052600360205260ff60406000205416611cbe81611b1e565b15611d2d5760005b826000526003602052600160406000200154811015611d2557826000526003602052611cf9816001604060002001611b80565b905460039190911b1c6001600160a01b0390811690831614611d1d57600101611cc6565b505050600190565b505050600090565b5050600090565b600260015414611d45576002600155565b633ee5aeb560e01b60005260046000fd5b60ff60025416611d6257565b63d93c066560e01b60005260046000fd5b60405163a9059cbb60e01b60208201526001600160a01b039092166024830152604480830193909352918152611db391611dae606483611c07565b611e9c565b565b6000546001600160a01b03163303611dc957565b63118cdaa760e01b6000523360045260246000fd5b8151919060418303611e0f57611e0892506020820151906060604084015193015160001a90611ef7565b9192909190565b505060009160029190565b611e2381611b1e565b80611e2c575050565b611e3581611b1e565b60018103611e4e5763f645eedf60e01b60005260046000fd5b611e5781611b1e565b60028103611e74575063fce698f760e01b60005260045260246000fd5b600390611e8081611b1e565b14611e885750565b6335e2f38360e21b60005260045260246000fd5b906000602091828151910182855af115610b6c576000513d611eee57506001600160a01b0381163b155b611ecd5750565b635274afe760e01b60009081526001600160a01b0391909116600452602490fd5b60011415611ec6565b91907f7fffffffffffffffffffffffffffffff5d576e7357a4501ddfe92f46681b20a08411611f74579160209360809260ff60009560405194855216868401526040830152606082015282805260015afa15610b6c576000516001600160a01b03811615611f685790600090600090565b50600090600190600090565b5050506000916003919056fea26469706673582212206c108136bcea0d3002711a879fb44b22900c9fed8b828b92e2699e7e018fac3664736f6c634300081c0033","opcodes":"PUSH1 0xA0 CALLVALUE PUSH2 0x1C1 JUMPI PUSH1 0x1F PUSH2 0x21A7 CODESIZE DUP2 SWAP1 SUB SWAP2 DUP3 ADD PUSH1 0x1F NOT AND DUP4 ADD SWAP2 PUSH1 0x1 PUSH1 0x1 PUSH1 0x40 SHL SUB DUP4 GT DUP5 DUP5 LT OR PUSH2 0x1C6 JUMPI DUP1 DUP5 SWAP3 PUSH1 0x40 SWAP5 DUP6 MSTORE DUP4 CODECOPY DUP2 ADD SUB SLT PUSH2 0x1C1 JUMPI PUSH2 0x52 PUSH1 0x20 PUSH2 0x4B DUP4 PUSH2 0x1DC JUMP JUMPDEST SWAP3 ADD PUSH2 0x1DC JUMP JUMPDEST CALLER ISZERO PUSH2 0x1AB JUMPI PUSH1 0x0 DUP1 SLOAD CALLER PUSH1 0x1 PUSH1 0x1 PUSH1 0xA0 SHL SUB NOT DUP3 AND DUP2 OR DUP4 SSTORE PUSH1 0x40 MLOAD SWAP5 SWAP3 SWAP1 SWAP2 PUSH1 0x1 PUSH1 0x1 PUSH1 0xA0 SHL SUB AND SWAP1 PUSH32 0x8BE0079C531659141344CD1FD0A4F28419497F9722A3DAAFE3B4186F6B6457E0 SWAP1 DUP1 LOG3 PUSH1 0x1 DUP1 SSTORE PUSH3 0x15180 PUSH1 0x5 SSTORE PUSH1 0x0 PUSH1 0x6 SSTORE PUSH1 0x1 PUSH1 0x1 PUSH1 0xA0 SHL SUB AND SWAP2 DUP3 ISZERO PUSH2 0x169 JUMPI POP PUSH1 0x1 PUSH1 0x1 PUSH1 0xA0 SHL SUB AND SWAP1 DUP2 ISZERO PUSH2 0x124 JUMPI PUSH1 0x80 MSTORE PUSH1 0x7 DUP1 SLOAD PUSH1 0x1 PUSH1 0x1 PUSH1 0xA0 SHL SUB NOT AND SWAP2 SWAP1 SWAP2 OR SWAP1 SSTORE PUSH1 0x40 MLOAD PUSH2 0x1FB6 SWAP1 DUP2 PUSH2 0x1F1 DUP3 CODECOPY PUSH1 0x80 MLOAD DUP2 DUP2 DUP2 PUSH2 0x4F0 ADD MSTORE DUP2 DUP2 PUSH2 0x959 ADD MSTORE DUP2 DUP2 PUSH2 0x9D3 ADD MSTORE DUP2 DUP2 PUSH2 0xD84 ADD MSTORE DUP2 DUP2 PUSH2 0x16A1 ADD MSTORE PUSH2 0x173F ADD MSTORE RETURN JUMPDEST PUSH1 0x40 MLOAD PUSH3 0x461BCD PUSH1 0xE5 SHL DUP2 MSTORE PUSH1 0x20 PUSH1 0x4 DUP3 ADD MSTORE PUSH1 0x1D PUSH1 0x24 DUP3 ADD MSTORE PUSH32 0x496E76616C69642066656520636F6C6C6563746F722061646472657373000000 PUSH1 0x44 DUP3 ADD MSTORE PUSH1 0x64 SWAP1 REVERT JUMPDEST PUSH3 0x461BCD PUSH1 0xE5 SHL DUP2 MSTORE PUSH1 0x20 PUSH1 0x4 DUP3 ADD MSTORE PUSH1 0x19 PUSH1 0x24 DUP3 ADD MSTORE PUSH32 0x496E76616C6964204D4F4E20746F6B656E206164647265737300000000000000 PUSH1 0x44 DUP3 ADD MSTORE PUSH1 0x64 SWAP1 REVERT JUMPDEST PUSH4 0x1E4FBDF7 PUSH1 0xE0 SHL PUSH1 0x0 MSTORE PUSH1 0x0 PUSH1 0x4 MSTORE PUSH1 0x24 PUSH1 0x0 REVERT JUMPDEST PUSH1 0x0 DUP1 REVERT JUMPDEST PUSH4 0x4E487B71 PUSH1 0xE0 SHL PUSH1 0x0 MSTORE PUSH1 0x41 PUSH1 0x4 MSTORE PUSH1 0x24 PUSH1 0x0 REVERT JUMPDEST MLOAD SWAP1 PUSH1 0x1 PUSH1 0x1 PUSH1 0xA0 SHL SUB DUP3 AND DUP3 SUB PUSH2 0x1C1 JUMPI JUMP INVALID PUSH1 0x80 PUSH1 0x40 MSTORE PUSH1 0x4 CALLDATASIZE LT ISZERO PUSH2 0x12 JUMPI PUSH1 0x0 DUP1 REVERT JUMPDEST PUSH1 0x0 CALLDATALOAD PUSH1 0xE0 SHR DUP1 PUSH4 0x137D61E6 EQ PUSH2 0x1472 JUMPI DUP1 PUSH4 0x146C638D EQ PUSH2 0x143A JUMPI DUP1 PUSH4 0x170150A4 EQ PUSH2 0x13CB JUMPI DUP1 PUSH4 0x2570069B EQ PUSH2 0xFF9 JUMPI DUP1 PUSH4 0x3C261734 EQ PUSH2 0xF1A JUMPI DUP1 PUSH4 0x3F4BA83A EQ PUSH2 0xEB1 JUMPI DUP1 PUSH4 0x3F7121B0 EQ PUSH2 0xC9F JUMPI DUP1 PUSH4 0x4411B3EB EQ PUSH2 0xC83 JUMPI DUP1 PUSH4 0x5C975ABB EQ PUSH2 0xC60 JUMPI DUP1 PUSH4 0x5F114CF2 EQ PUSH2 0xBBD JUMPI DUP1 PUSH4 0x5F3E849F EQ PUSH2 0x988 JUMPI DUP1 PUSH4 0x63EB9F90 EQ PUSH2 0x943 JUMPI DUP1 PUSH4 0x6916C9B0 EQ PUSH2 0x8E5 JUMPI DUP1 PUSH4 0x715018A6 EQ PUSH2 0x88C JUMPI DUP1 PUSH4 0x8456CB59 EQ PUSH2 0x832 JUMPI DUP1 PUSH4 0x85F07BBE EQ PUSH2 0x816 JUMPI DUP1 PUSH4 0x8DA5CB5B EQ PUSH2 0x7ED JUMPI DUP1 PUSH4 0xA001ECDD EQ PUSH2 0x7CF JUMPI DUP1 PUSH4 0xA42DCE80 EQ PUSH2 0x706 JUMPI DUP1 PUSH4 0xAE06C1B7 EQ PUSH2 0x66B JUMPI DUP1 PUSH4 0xC0D64A87 EQ PUSH2 0x360 JUMPI DUP1 PUSH4 0xC415B95C EQ PUSH2 0x337 JUMPI DUP1 PUSH4 0xD26A0880 EQ PUSH2 0x307 JUMPI DUP1 PUSH4 0xE7C09C28 EQ PUSH2 0x2BA JUMPI DUP1 PUSH4 0xF10E6B7E EQ PUSH2 0x26D JUMPI DUP1 PUSH4 0xF2FDE38B EQ PUSH2 0x1E4 JUMPI DUP1 PUSH4 0xF6D3CF74 EQ PUSH2 0x173 JUMPI PUSH4 0xF99D948F EQ PUSH2 0x150 JUMPI PUSH1 0x0 DUP1 REVERT JUMPDEST CALLVALUE PUSH2 0x16E JUMPI PUSH1 0x0 CALLDATASIZE PUSH1 0x3 NOT ADD SLT PUSH2 0x16E JUMPI PUSH1 0x20 PUSH1 0x5 SLOAD PUSH1 0x40 MLOAD SWAP1 DUP2 MSTORE RETURN JUMPDEST PUSH1 0x0 DUP1 REVERT JUMPDEST CALLVALUE PUSH2 0x16E JUMPI PUSH1 0x40 CALLDATASIZE PUSH1 0x3 NOT ADD SLT PUSH2 0x16E JUMPI PUSH1 0x4 CALLDATALOAD PUSH2 0x18F PUSH2 0x1AC1 JUMP JUMPDEST SWAP1 DUP1 PUSH1 0x0 MSTORE PUSH1 0x3 PUSH1 0x20 MSTORE PUSH2 0x1B5 PUSH1 0xFF PUSH1 0x40 PUSH1 0x0 KECCAK256 SLOAD AND PUSH2 0x1AE DUP2 PUSH2 0x1B1E JUMP JUMPDEST ISZERO ISZERO PUSH2 0x1B3E JUMP JUMPDEST PUSH1 0x0 MSTORE PUSH1 0x3 PUSH1 0x20 MSTORE PUSH1 0x3 PUSH1 0x40 PUSH1 0x0 KECCAK256 ADD SWAP1 PUSH1 0x1 DUP1 PUSH1 0xA0 SHL SUB AND PUSH1 0x0 MSTORE PUSH1 0x20 MSTORE PUSH1 0x20 PUSH1 0x40 PUSH1 0x0 KECCAK256 SLOAD PUSH1 0x40 MLOAD SWAP1 DUP2 MSTORE RETURN JUMPDEST CALLVALUE PUSH2 0x16E JUMPI PUSH1 0x20 CALLDATASIZE PUSH1 0x3 NOT ADD SLT PUSH2 0x16E JUMPI PUSH2 0x1FD PUSH2 0x1AD7 JUMP JUMPDEST PUSH2 0x205 PUSH2 0x1DB5 JUMP JUMPDEST PUSH1 0x1 PUSH1 0x1 PUSH1 0xA0 SHL SUB AND DUP1 ISZERO PUSH2 0x257 JUMPI PUSH1 0x0 DUP1 SLOAD PUSH1 0x1 PUSH1 0x1 PUSH1 0xA0 SHL SUB NOT DUP2 AND DUP4 OR DUP3 SSTORE PUSH1 0x1 PUSH1 0x1 PUSH1 0xA0 SHL SUB AND SWAP1 PUSH32 0x8BE0079C531659141344CD1FD0A4F28419497F9722A3DAAFE3B4186F6B6457E0 SWAP1 DUP1 LOG3 STOP JUMPDEST PUSH4 0x1E4FBDF7 PUSH1 0xE0 SHL PUSH1 0x0 MSTORE PUSH1 0x0 PUSH1 0x4 MSTORE PUSH1 0x24 PUSH1 0x0 REVERT JUMPDEST CALLVALUE PUSH2 0x16E JUMPI PUSH1 0x20 CALLDATASIZE PUSH1 0x3 NOT ADD SLT PUSH2 0x16E JUMPI PUSH1 0x4 CALLDATALOAD DUP1 PUSH1 0x0 MSTORE PUSH1 0x3 PUSH1 0x20 MSTORE PUSH2 0x29F PUSH1 0xFF PUSH1 0x40 PUSH1 0x0 KECCAK256 SLOAD AND PUSH2 0x1AE DUP2 PUSH2 0x1B1E JUMP JUMPDEST PUSH1 0x0 MSTORE PUSH1 0x3 PUSH1 0x20 MSTORE PUSH1 0x20 PUSH1 0x4 PUSH1 0x40 PUSH1 0x0 KECCAK256 ADD SLOAD PUSH1 0x40 MLOAD SWAP1 DUP2 MSTORE RETURN JUMPDEST CALLVALUE PUSH2 0x16E JUMPI PUSH1 0x20 CALLDATASIZE PUSH1 0x3 NOT ADD SLT PUSH2 0x16E JUMPI PUSH1 0x4 CALLDATALOAD DUP1 PUSH1 0x0 MSTORE PUSH1 0x3 PUSH1 0x20 MSTORE PUSH2 0x2EC PUSH1 0xFF PUSH1 0x40 PUSH1 0x0 KECCAK256 SLOAD AND PUSH2 0x1AE DUP2 PUSH2 0x1B1E JUMP JUMPDEST PUSH1 0x0 MSTORE PUSH1 0x3 PUSH1 0x20 MSTORE PUSH1 0x20 PUSH1 0x7 PUSH1 0x40 PUSH1 0x0 KECCAK256 ADD SLOAD PUSH1 0x40 MLOAD SWAP1 DUP2 MSTORE RETURN JUMPDEST CALLVALUE PUSH2 0x16E JUMPI PUSH1 0x40 CALLDATASIZE PUSH1 0x3 NOT ADD SLT PUSH2 0x16E JUMPI PUSH1 0x20 PUSH2 0x32D PUSH2 0x325 PUSH2 0x1AC1 JUMP JUMPDEST PUSH1 0x4 CALLDATALOAD PUSH2 0x1CA2 JUMP JUMPDEST PUSH1 0x40 MLOAD SWAP1 ISZERO ISZERO DUP2 MSTORE RETURN JUMPDEST CALLVALUE PUSH2 0x16E JUMPI PUSH1 0x0 CALLDATASIZE PUSH1 0x3 NOT ADD SLT PUSH2 0x16E JUMPI PUSH1 0x7 SLOAD PUSH1 0x40 MLOAD PUSH1 0x1 PUSH1 0x1 PUSH1 0xA0 SHL SUB SWAP1 SWAP2 AND DUP2 MSTORE PUSH1 0x20 SWAP1 RETURN JUMPDEST CALLVALUE PUSH2 0x16E JUMPI PUSH1 0x20 CALLDATASIZE PUSH1 0x3 NOT ADD SLT PUSH2 0x16E JUMPI PUSH1 0x4 CALLDATALOAD PUSH2 0x37C PUSH2 0x1D34 JUMP JUMPDEST DUP1 PUSH1 0x0 MSTORE PUSH1 0x3 PUSH1 0x20 MSTORE PUSH2 0x39A PUSH1 0xFF PUSH1 0x40 PUSH1 0x0 KECCAK256 SLOAD AND PUSH2 0x1AE DUP2 PUSH2 0x1B1E JUMP JUMPDEST PUSH1 0x0 DUP1 JUMPDEST DUP3 PUSH1 0x0 MSTORE PUSH1 0x3 PUSH1 0x20 MSTORE PUSH1 0x1 PUSH1 0x40 PUSH1 0x0 KECCAK256 ADD SLOAD DUP2 LT ISZERO PUSH2 0x661 JUMPI DUP3 PUSH1 0x0 MSTORE PUSH1 0x3 PUSH1 0x20 MSTORE PUSH2 0x3D1 DUP2 PUSH1 0x1 PUSH1 0x40 PUSH1 0x0 KECCAK256 ADD PUSH2 0x1B80 JUMP JUMPDEST SWAP1 SLOAD PUSH1 0x3 SWAP2 SWAP1 SWAP2 SHL SHR PUSH1 0x1 PUSH1 0x1 PUSH1 0xA0 SHL SUB AND CALLER EQ PUSH2 0x3F1 JUMPI PUSH1 0x1 ADD PUSH2 0x39E JUMP JUMPDEST POP POP PUSH2 0x3FD PUSH1 0x1 PUSH2 0x1BAE JUMP JUMPDEST PUSH2 0x405 PUSH2 0x1D56 JUMP JUMPDEST DUP1 PUSH1 0x0 MSTORE PUSH1 0x3 PUSH1 0x20 MSTORE PUSH1 0x40 PUSH1 0x0 KECCAK256 SWAP1 PUSH1 0x3 PUSH1 0xFF DUP4 SLOAD AND PUSH2 0x424 DUP2 PUSH2 0x1B1E JUMP JUMPDEST EQ PUSH2 0x623 JUMPI PUSH1 0x2 DUP3 ADD SWAP2 PUSH1 0x1 DUP1 PUSH1 0xA0 SHL SUB CALLER AND PUSH1 0x0 MSTORE DUP3 PUSH1 0x20 MSTORE PUSH1 0xFF PUSH1 0x40 PUSH1 0x0 KECCAK256 SLOAD AND PUSH2 0x5E6 JUMPI PUSH1 0x7 DUP2 ADD SLOAD TIMESTAMP LT ISZERO PUSH2 0x5A1 JUMPI PUSH1 0x5 DUP2 ADD SLOAD CALLER PUSH1 0x0 SWAP1 DUP2 MSTORE PUSH1 0x20 DUP6 DUP2 MSTORE PUSH1 0x40 DUP1 DUP4 KECCAK256 DUP1 SLOAD PUSH1 0xFF NOT AND PUSH1 0x1 OR SWAP1 SSTORE PUSH1 0x3 DUP6 ADD SWAP1 SWAP2 MSTORE SWAP1 KECCAK256 DUP2 SWAP1 SSTORE PUSH1 0x4 DUP3 ADD DUP1 SLOAD SWAP2 SWAP5 SWAP2 PUSH2 0x497 SWAP1 DUP7 SWAP1 PUSH2 0x1C79 JUMP JUMPDEST SWAP1 SSTORE PUSH1 0x1 SWAP1 PUSH1 0x0 SWAP1 PUSH1 0x1 DUP5 ADD DUP1 SLOAD SWAP3 JUMPDEST DUP4 DUP2 LT PUSH2 0x557 JUMPI JUMPDEST POP POP POP POP PUSH2 0x546 JUMPI JUMPDEST POP PUSH1 0x40 MLOAD PUSH4 0x23B872DD PUSH1 0xE0 SHL PUSH1 0x20 DUP3 ADD MSTORE CALLER PUSH1 0x24 DUP3 ADD MSTORE ADDRESS PUSH1 0x44 DUP3 ADD MSTORE PUSH1 0x64 DUP1 DUP3 ADD DUP5 SWAP1 MSTORE DUP2 MSTORE PUSH2 0x514 SWAP1 PUSH2 0x4EE PUSH1 0x84 DUP3 PUSH2 0x1C07 JUMP JUMPDEST PUSH32 0x0 PUSH2 0x1E9C JUMP JUMPDEST PUSH1 0x40 MLOAD SWAP2 DUP3 MSTORE PUSH32 0x56C747FBEDF585AD60199A7EAF64BEAEEE901B3AD2B3B7680A0342FB52856232 PUSH1 0x20 CALLER SWAP4 LOG3 PUSH1 0x1 DUP1 SSTORE STOP JUMPDEST DUP1 SLOAD PUSH1 0xFF NOT AND PUSH1 0x2 OR SWAP1 SSTORE DUP3 PUSH2 0x4B8 JUMP JUMPDEST PUSH1 0xFF PUSH1 0x40 PUSH2 0x565 DUP4 DUP6 PUSH2 0x1B80 JUMP JUMPDEST SWAP1 SLOAD PUSH1 0x3 SWAP2 SWAP1 SWAP2 SHL SHR PUSH1 0x1 PUSH1 0x1 PUSH1 0xA0 SHL SUB AND PUSH1 0x0 SWAP1 DUP2 MSTORE PUSH1 0x20 DUP7 SWAP1 MSTORE KECCAK256 SLOAD AND ISZERO PUSH2 0x591 JUMPI PUSH1 0x1 ADD PUSH2 0x4A7 JUMP JUMPDEST POP POP POP POP POP PUSH1 0x0 DUP5 DUP1 DUP1 DUP1 PUSH2 0x4AF JUMP JUMPDEST PUSH1 0x40 MLOAD PUSH3 0x461BCD PUSH1 0xE5 SHL DUP2 MSTORE PUSH1 0x20 PUSH1 0x4 DUP3 ADD MSTORE PUSH1 0x1F PUSH1 0x24 DUP3 ADD MSTORE PUSH32 0x47616D65207374616B696E6720706572696F6420686173206578706972656400 PUSH1 0x44 DUP3 ADD MSTORE PUSH1 0x64 SWAP1 REVERT JUMPDEST PUSH1 0x40 MLOAD PUSH3 0x461BCD PUSH1 0xE5 SHL DUP2 MSTORE PUSH1 0x20 PUSH1 0x4 DUP3 ADD MSTORE PUSH1 0x15 PUSH1 0x24 DUP3 ADD MSTORE PUSH21 0x141B185E595C88185B1C9958591E481CDD185AD959 PUSH1 0x5A SHL PUSH1 0x44 DUP3 ADD MSTORE PUSH1 0x64 SWAP1 REVERT JUMPDEST PUSH1 0x40 MLOAD PUSH3 0x461BCD PUSH1 0xE5 SHL DUP2 MSTORE PUSH1 0x20 PUSH1 0x4 DUP3 ADD MSTORE PUSH1 0x16 PUSH1 0x24 DUP3 ADD MSTORE PUSH22 0x11D85B5948185B1C9958591E4818DBDB5C1B195D1959 PUSH1 0x52 SHL PUSH1 0x44 DUP3 ADD MSTORE PUSH1 0x64 SWAP1 REVERT JUMPDEST POP PUSH2 0x3FD SWAP1 PUSH2 0x1BAE JUMP JUMPDEST CALLVALUE PUSH2 0x16E JUMPI PUSH1 0x20 CALLDATASIZE PUSH1 0x3 NOT ADD SLT PUSH2 0x16E JUMPI PUSH1 0x4 CALLDATALOAD PUSH2 0x687 PUSH2 0x1DB5 JUMP JUMPDEST PUSH2 0x3E8 DUP2 GT PUSH2 0x6C9 JUMPI PUSH1 0x40 PUSH32 0x2235D343DE14BFE1D7EFED850D828DA476E76EB894C4831CCFA097EFC5A45444 SWAP2 PUSH1 0x6 SLOAD SWAP1 DUP1 PUSH1 0x6 SSTORE DUP3 MLOAD SWAP2 DUP3 MSTORE PUSH1 0x20 DUP3 ADD MSTORE LOG1 STOP JUMPDEST PUSH1 0x40 MLOAD PUSH3 0x461BCD PUSH1 0xE5 SHL DUP2 MSTORE PUSH1 0x20 PUSH1 0x4 DUP3 ADD MSTORE PUSH1 0x15 PUSH1 0x24 DUP3 ADD MSTORE PUSH21 0x4665652063616E6E6F742065786365656420313025 PUSH1 0x58 SHL PUSH1 0x44 DUP3 ADD MSTORE PUSH1 0x64 SWAP1 REVERT JUMPDEST CALLVALUE PUSH2 0x16E JUMPI PUSH1 0x20 CALLDATASIZE PUSH1 0x3 NOT ADD SLT PUSH2 0x16E JUMPI PUSH2 0x71F PUSH2 0x1AD7 JUMP JUMPDEST PUSH2 0x727 PUSH2 0x1DB5 JUMP JUMPDEST PUSH1 0x1 PUSH1 0x1 PUSH1 0xA0 SHL SUB AND DUP1 ISZERO PUSH2 0x78A JUMPI PUSH1 0x40 PUSH32 0x649C5E3D0ED183894196148E193AF316452B0037E77D2FF0FEF23B7DC722BED0 SWAP2 PUSH1 0x7 SLOAD SWAP1 DUP1 PUSH12 0xFFFFFFFFFFFFFFFFFFFFFFFF PUSH1 0xA0 SHL DUP4 AND OR PUSH1 0x7 SSTORE DUP3 MLOAD SWAP2 PUSH1 0x1 DUP1 PUSH1 0xA0 SHL SUB AND DUP3 MSTORE PUSH1 0x20 DUP3 ADD MSTORE LOG1 STOP JUMPDEST PUSH1 0x40 MLOAD PUSH3 0x461BCD PUSH1 0xE5 SHL DUP2 MSTORE PUSH1 0x20 PUSH1 0x4 DUP3 ADD MSTORE PUSH1 0x1D PUSH1 0x24 DUP3 ADD MSTORE PUSH32 0x496E76616C69642066656520636F6C6C6563746F722061646472657373000000 PUSH1 0x44 DUP3 ADD MSTORE PUSH1 0x64 SWAP1 REVERT JUMPDEST CALLVALUE PUSH2 0x16E JUMPI PUSH1 0x0 CALLDATASIZE PUSH1 0x3 NOT ADD SLT PUSH2 0x16E JUMPI PUSH1 0x20 PUSH1 0x6 SLOAD PUSH1 0x40 MLOAD SWAP1 DUP2 MSTORE RETURN JUMPDEST CALLVALUE PUSH2 0x16E JUMPI PUSH1 0x0 CALLDATASIZE PUSH1 0x3 NOT ADD SLT PUSH2 0x16E JUMPI PUSH1 0x0 SLOAD PUSH1 0x40 MLOAD PUSH1 0x1 PUSH1 0x1 PUSH1 0xA0 SHL SUB SWAP1 SWAP2 AND DUP2 MSTORE PUSH1 0x20 SWAP1 RETURN JUMPDEST CALLVALUE PUSH2 0x16E JUMPI PUSH1 0x0 CALLDATASIZE PUSH1 0x3 NOT ADD SLT PUSH2 0x16E JUMPI PUSH1 0x20 PUSH1 0x40 MLOAD PUSH1 0x2 DUP2 MSTORE RETURN JUMPDEST CALLVALUE PUSH2 0x16E JUMPI PUSH1 0x0 CALLDATASIZE PUSH1 0x3 NOT ADD SLT PUSH2 0x16E JUMPI PUSH2 0x84B PUSH2 0x1DB5 JUMP JUMPDEST PUSH2 0x853 PUSH2 0x1D56 JUMP JUMPDEST PUSH1 0x1 PUSH1 0xFF NOT PUSH1 0x2 SLOAD AND OR PUSH1 0x2 SSTORE PUSH32 0x62E78CEA01BEE320CD4E420270B5EA74000D11B0C9F74754EBDBFC544B05A258 PUSH1 0x20 PUSH1 0x40 MLOAD CALLER DUP2 MSTORE LOG1 STOP JUMPDEST CALLVALUE PUSH2 0x16E JUMPI PUSH1 0x0 CALLDATASIZE PUSH1 0x3 NOT ADD SLT PUSH2 0x16E JUMPI PUSH2 0x8A5 PUSH2 0x1DB5 JUMP JUMPDEST PUSH1 0x0 DUP1 SLOAD PUSH1 0x1 PUSH1 0x1 PUSH1 0xA0 SHL SUB NOT DUP2 AND DUP3 SSTORE PUSH1 0x1 PUSH1 0x1 PUSH1 0xA0 SHL SUB AND PUSH32 0x8BE0079C531659141344CD1FD0A4F28419497F9722A3DAAFE3B4186F6B6457E0 DUP3 DUP1 LOG3 STOP JUMPDEST CALLVALUE PUSH2 0x16E JUMPI PUSH1 0x0 CALLDATASIZE PUSH1 0x3 NOT ADD SLT PUSH2 0x16E JUMPI PUSH2 0x8FE PUSH2 0x1C86 JUMP JUMPDEST PUSH1 0x40 MLOAD DUP1 SWAP2 PUSH1 0x20 DUP3 ADD PUSH1 0x20 DUP4 MSTORE DUP2 MLOAD DUP1 SWAP2 MSTORE PUSH1 0x20 PUSH1 0x40 DUP5 ADD SWAP3 ADD SWAP1 PUSH1 0x0 JUMPDEST DUP2 DUP2 LT PUSH2 0x92A JUMPI POP POP POP SUB SWAP1 RETURN JUMPDEST DUP3 MLOAD DUP5 MSTORE DUP6 SWAP5 POP PUSH1 0x20 SWAP4 DUP5 ADD SWAP4 SWAP1 SWAP3 ADD SWAP2 PUSH1 0x1 ADD PUSH2 0x91C JUMP JUMPDEST CALLVALUE PUSH2 0x16E JUMPI PUSH1 0x0 CALLDATASIZE PUSH1 0x3 NOT ADD SLT PUSH2 0x16E JUMPI PUSH1 0x40 MLOAD PUSH32 0x0 PUSH1 0x1 PUSH1 0x1 PUSH1 0xA0 SHL SUB AND DUP2 MSTORE PUSH1 0x20 SWAP1 RETURN JUMPDEST CALLVALUE PUSH2 0x16E JUMPI PUSH1 0x60 CALLDATASIZE PUSH1 0x3 NOT ADD SLT PUSH2 0x16E JUMPI PUSH2 0x9A1 PUSH2 0x1AD7 JUMP JUMPDEST PUSH2 0x9A9 PUSH2 0x1AC1 JUMP JUMPDEST PUSH1 0x44 CALLDATALOAD SWAP2 PUSH2 0x9B5 PUSH2 0x1DB5 JUMP JUMPDEST PUSH1 0x1 PUSH1 0x1 PUSH1 0xA0 SHL SUB DUP3 AND ISZERO PUSH2 0xB78 JUMPI PUSH1 0x1 PUSH1 0x1 PUSH1 0xA0 SHL SUB DUP2 DUP2 AND SWAP4 SWAP1 PUSH32 0x0 AND DUP5 DUP2 EQ PUSH2 0xA5B JUMPI JUMPDEST POP DUP1 PUSH2 0xA2C PUSH2 0xA56 SWAP3 DUP6 PUSH32 0x13E06184555481B6D2CB327155E8D2E1D0B1F0252A7FE6621E32CF9988148835 SWAP8 PUSH2 0x1D73 JUMP JUMPDEST PUSH1 0x40 DUP1 MLOAD PUSH1 0x1 PUSH1 0x1 PUSH1 0xA0 SHL SUB SWAP5 DUP6 AND DUP2 MSTORE SWAP5 SWAP1 SWAP4 AND PUSH1 0x20 DUP6 ADD MSTORE SWAP2 DUP4 ADD SWAP2 SWAP1 SWAP2 MSTORE DUP2 SWAP1 PUSH1 0x60 DUP3 ADD SWAP1 JUMP JUMPDEST SUB SWAP1 LOG1 STOP JUMPDEST SWAP1 PUSH1 0x20 PUSH1 0x24 SWAP6 SWAP5 SWAP4 SWAP3 PUSH1 0x40 MLOAD SWAP7 DUP8 DUP1 SWAP3 PUSH4 0x70A08231 PUSH1 0xE0 SHL DUP3 MSTORE ADDRESS PUSH1 0x4 DUP4 ADD MSTORE GAS STATICCALL SWAP5 DUP6 ISZERO PUSH2 0xB6C JUMPI PUSH1 0x0 SWAP6 PUSH2 0xB38 JUMPI JUMPDEST POP PUSH1 0x0 SWAP3 PUSH2 0xA98 PUSH2 0x1C86 JUMP JUMPDEST SWAP3 PUSH1 0x0 SWAP5 JUMPDEST DUP5 MLOAD DUP7 LT ISZERO PUSH2 0xAD6 JUMPI PUSH2 0xACE PUSH1 0x1 SWAP2 PUSH2 0xAB6 DUP9 DUP9 PUSH2 0x1C41 JUMP JUMPDEST MLOAD PUSH1 0x0 MSTORE PUSH1 0x3 PUSH1 0x20 MSTORE PUSH1 0x4 PUSH1 0x40 PUSH1 0x0 KECCAK256 ADD SLOAD SWAP1 PUSH2 0x1C79 JUMP JUMPDEST SWAP6 ADD SWAP5 PUSH2 0xA9D JUMP JUMPDEST SWAP1 SWAP5 POP PUSH2 0xAE7 SWAP2 SWAP6 SWAP4 POP DUP3 SWAP7 PUSH2 0x1BFA JUMP JUMPDEST LT PUSH2 0xAF3 JUMPI SWAP3 DUP5 PUSH2 0x9FB JUMP JUMPDEST PUSH1 0x40 MLOAD PUSH3 0x461BCD PUSH1 0xE5 SHL DUP2 MSTORE PUSH1 0x20 PUSH1 0x4 DUP3 ADD MSTORE PUSH1 0x1D PUSH1 0x24 DUP3 ADD MSTORE PUSH32 0x43616E6E6F74207769746864726177207374616B656420746F6B656E73000000 PUSH1 0x44 DUP3 ADD MSTORE PUSH1 0x64 SWAP1 REVERT JUMPDEST SWAP1 SWAP5 POP PUSH1 0x20 DUP2 RETURNDATASIZE PUSH1 0x20 GT PUSH2 0xB64 JUMPI JUMPDEST DUP2 PUSH2 0xB54 PUSH1 0x20 SWAP4 DUP4 PUSH2 0x1C07 JUMP JUMPDEST DUP2 ADD SUB SLT PUSH2 0x16E JUMPI MLOAD SWAP4 DUP6 PUSH2 0xA8C JUMP JUMPDEST RETURNDATASIZE SWAP2 POP PUSH2 0xB47 JUMP JUMPDEST PUSH1 0x40 MLOAD RETURNDATASIZE PUSH1 0x0 DUP3 RETURNDATACOPY RETURNDATASIZE SWAP1 REVERT JUMPDEST PUSH1 0x40 MLOAD PUSH3 0x461BCD PUSH1 0xE5 SHL DUP2 MSTORE PUSH1 0x20 PUSH1 0x4 DUP3 ADD MSTORE PUSH1 0x1B PUSH1 0x24 DUP3 ADD MSTORE PUSH32 0x43616E6E6F742073656E6420746F207A65726F20616464726573730000000000 PUSH1 0x44 DUP3 ADD MSTORE PUSH1 0x64 SWAP1 REVERT JUMPDEST CALLVALUE PUSH2 0x16E JUMPI PUSH1 0x20 CALLDATASIZE PUSH1 0x3 NOT ADD SLT PUSH2 0x16E JUMPI PUSH1 0x4 CALLDATALOAD PUSH2 0xBD9 PUSH2 0x1DB5 JUMP JUMPDEST PUSH2 0xE10 DUP2 LT PUSH2 0xC1B JUMPI PUSH1 0x40 PUSH32 0xA04319E8AD46A28137A006CF543DA68117417BBA59161B72E57CE45E334FE5A SWAP2 PUSH1 0x5 SLOAD SWAP1 DUP1 PUSH1 0x5 SSTORE DUP3 MLOAD SWAP2 DUP3 MSTORE PUSH1 0x20 DUP3 ADD MSTORE LOG1 STOP JUMPDEST PUSH1 0x40 MLOAD PUSH3 0x461BCD PUSH1 0xE5 SHL DUP2 MSTORE PUSH1 0x20 PUSH1 0x4 DUP3 ADD MSTORE PUSH1 0x19 PUSH1 0x24 DUP3 ADD MSTORE PUSH32 0x45787069726174696F6E2074696D6520746F6F2073686F727400000000000000 PUSH1 0x44 DUP3 ADD MSTORE PUSH1 0x64 SWAP1 REVERT JUMPDEST CALLVALUE PUSH2 0x16E JUMPI PUSH1 0x0 CALLDATASIZE PUSH1 0x3 NOT ADD SLT PUSH2 0x16E JUMPI PUSH1 0x20 PUSH1 0xFF PUSH1 0x2 SLOAD AND PUSH1 0x40 MLOAD SWAP1 ISZERO ISZERO DUP2 MSTORE RETURN JUMPDEST CALLVALUE PUSH2 0x16E JUMPI PUSH1 0x0 CALLDATASIZE PUSH1 0x3 NOT ADD SLT PUSH2 0x16E JUMPI PUSH1 0x20 PUSH1 0x40 MLOAD PUSH1 0xA DUP2 MSTORE RETURN JUMPDEST CALLVALUE PUSH2 0x16E JUMPI PUSH1 0x20 CALLDATASIZE PUSH1 0x3 NOT ADD SLT PUSH2 0x16E JUMPI PUSH1 0x4 CALLDATALOAD PUSH2 0xCBB PUSH2 0x1D34 JUMP JUMPDEST DUP1 PUSH1 0x0 MSTORE PUSH1 0x3 PUSH1 0x20 MSTORE PUSH1 0x40 PUSH1 0x0 KECCAK256 PUSH1 0x1 DUP1 PUSH1 0xA0 SHL SUB PUSH1 0x0 SLOAD AND CALLER EQ DUP1 ISZERO PUSH2 0xE92 JUMPI JUMPDEST ISZERO PUSH2 0xE4D JUMPI DUP1 SLOAD PUSH1 0x1 PUSH1 0xFF DUP3 AND PUSH2 0xCF3 DUP2 PUSH2 0x1B1E JUMP JUMPDEST SUB PUSH2 0xE08 JUMPI PUSH1 0xFF NOT AND PUSH1 0x3 SWAP1 DUP2 OR DUP3 SSTORE PUSH1 0x1 DUP3 ADD SWAP2 DUP4 SWAP2 DUP2 ADD SWAP1 PUSH1 0x2 ADD PUSH1 0x0 JUMPDEST DUP5 SLOAD DUP2 LT ISZERO PUSH2 0xDB8 JUMPI DUP1 PUSH2 0xD29 PUSH1 0x1 SWAP3 DUP8 PUSH2 0x1B80 JUMP JUMPDEST SWAP1 SLOAD PUSH1 0x3 SWAP2 SWAP1 SWAP2 SHL SHR PUSH1 0xA0 DUP4 SWAP1 SHL DUP4 SWAP1 SUB AND PUSH1 0x0 DUP2 DUP2 MSTORE PUSH1 0x20 DUP7 DUP2 MSTORE PUSH1 0x40 DUP1 DUP4 KECCAK256 SLOAD SWAP2 DUP8 SWAP1 MSTORE SWAP1 SWAP2 KECCAK256 SLOAD PUSH1 0xFF AND DUP1 PUSH2 0xDAF JUMPI JUMPDEST PUSH2 0xD69 JUMPI JUMPDEST POP POP ADD PUSH2 0xD13 JUMP JUMPDEST PUSH2 0xDA8 SWAP2 PUSH1 0x0 PUSH1 0x40 DUP2 DUP8 DUP1 PUSH1 0xA0 SHL SUB DUP5 AND DUP2 MSTORE DUP10 PUSH1 0x20 MSTORE KECCAK256 SSTORE PUSH32 0x0 PUSH2 0x1D73 JUMP JUMPDEST DUP7 DUP1 PUSH2 0xD61 JUMP JUMPDEST POP DUP1 ISZERO ISZERO PUSH2 0xD5C JUMP JUMPDEST DUP4 PUSH32 0xD48B0C9992D8D4B8967D1584DC8C1955390D9FF30639A7DA9C77E7F0DB86C3D8 PUSH1 0x60 PUSH1 0x40 MLOAD PUSH1 0x20 DUP2 MSTORE PUSH1 0xE PUSH1 0x20 DUP3 ADD MSTORE PUSH14 0x11D85B594818D85B98D95B1B1959 PUSH1 0x92 SHL PUSH1 0x40 DUP3 ADD MSTORE LOG2 PUSH1 0x1 DUP1 SSTORE STOP JUMPDEST PUSH1 0x40 MLOAD PUSH3 0x461BCD PUSH1 0xE5 SHL DUP2 MSTORE PUSH1 0x20 PUSH1 0x4 DUP3 ADD MSTORE PUSH1 0x18 PUSH1 0x24 DUP3 ADD MSTORE PUSH32 0x47616D652063616E6E6F742062652063616E63656C6C65640000000000000000 PUSH1 0x44 DUP3 ADD MSTORE PUSH1 0x64 SWAP1 REVERT JUMPDEST PUSH1 0x40 MLOAD PUSH3 0x461BCD PUSH1 0xE5 SHL DUP2 MSTORE PUSH1 0x20 PUSH1 0x4 DUP3 ADD MSTORE PUSH1 0x18 PUSH1 0x24 DUP3 ADD MSTORE PUSH32 0x4E6F7420617574686F72697A656420746F2063616E63656C0000000000000000 PUSH1 0x44 DUP3 ADD MSTORE PUSH1 0x64 SWAP1 REVERT JUMPDEST POP PUSH2 0xE9D CALLER DUP4 PUSH2 0x1CA2 JUMP JUMPDEST DUP1 ISZERO PUSH2 0xCDD JUMPI POP PUSH1 0x7 DUP2 ADD SLOAD TIMESTAMP LT ISZERO PUSH2 0xCDD JUMP JUMPDEST CALLVALUE PUSH2 0x16E JUMPI PUSH1 0x0 CALLDATASIZE PUSH1 0x3 NOT ADD SLT PUSH2 0x16E JUMPI PUSH2 0xECA PUSH2 0x1DB5 JUMP JUMPDEST PUSH1 0x2 SLOAD PUSH1 0xFF DUP2 AND ISZERO PUSH2 0xF09 JUMPI PUSH1 0xFF NOT AND PUSH1 0x2 SSTORE PUSH32 0x5DB9EE0A495BF2E6FF9C91A7834C1BA4FDD244A5E8AA4E537BD38AEAE4B073AA PUSH1 0x20 PUSH1 0x40 MLOAD CALLER DUP2 MSTORE LOG1 STOP JUMPDEST PUSH4 0x8DFC202B PUSH1 0xE0 SHL PUSH1 0x0 MSTORE PUSH1 0x4 PUSH1 0x0 REVERT JUMPDEST CALLVALUE PUSH2 0x16E JUMPI PUSH1 0x20 CALLDATASIZE PUSH1 0x3 NOT ADD SLT PUSH2 0x16E JUMPI PUSH1 0x4 CALLDATALOAD DUP1 PUSH1 0x0 MSTORE PUSH1 0x3 PUSH1 0x20 MSTORE PUSH2 0xF4C PUSH1 0xFF PUSH1 0x40 PUSH1 0x0 KECCAK256 SLOAD AND PUSH2 0x1AE DUP2 PUSH2 0x1B1E JUMP JUMPDEST PUSH1 0x0 MSTORE PUSH1 0x3 PUSH1 0x20 MSTORE PUSH1 0x1 PUSH1 0x40 PUSH1 0x0 KECCAK256 ADD PUSH1 0x40 MLOAD DUP1 PUSH1 0x20 DUP4 SLOAD SWAP2 DUP3 DUP2 MSTORE ADD SWAP1 DUP2 SWAP4 PUSH1 0x0 MSTORE PUSH1 0x20 PUSH1 0x0 KECCAK256 SWAP1 PUSH1 0x0 JUMPDEST DUP2 DUP2 LT PUSH2 0xFDA JUMPI POP POP POP DUP2 PUSH2 0xF8E SWAP2 SUB DUP3 PUSH2 0x1C07 JUMP JUMPDEST PUSH1 0x40 MLOAD SWAP2 DUP3 SWAP2 PUSH1 0x20 DUP4 ADD SWAP1 PUSH1 0x20 DUP5 MSTORE MLOAD DUP1 SWAP2 MSTORE PUSH1 0x40 DUP4 ADD SWAP2 SWAP1 PUSH1 0x0 JUMPDEST DUP2 DUP2 LT PUSH2 0xFB8 JUMPI POP POP POP SUB SWAP1 RETURN JUMPDEST DUP3 MLOAD PUSH1 0x1 PUSH1 0x1 PUSH1 0xA0 SHL SUB AND DUP5 MSTORE DUP6 SWAP5 POP PUSH1 0x20 SWAP4 DUP5 ADD SWAP4 SWAP1 SWAP3 ADD SWAP2 PUSH1 0x1 ADD PUSH2 0xFAA JUMP JUMPDEST DUP3 SLOAD PUSH1 0x1 PUSH1 0x1 PUSH1 0xA0 SHL SUB AND DUP5 MSTORE PUSH1 0x20 SWAP1 SWAP4 ADD SWAP3 PUSH1 0x1 SWAP3 DUP4 ADD SWAP3 ADD PUSH2 0xF78 JUMP JUMPDEST CALLVALUE PUSH2 0x16E JUMPI PUSH1 0x60 CALLDATASIZE PUSH1 0x3 NOT ADD SLT PUSH2 0x16E JUMPI PUSH1 0x4 CALLDATALOAD PUSH1 0x24 CALLDATALOAD PUSH8 0xFFFFFFFFFFFFFFFF DUP2 GT PUSH2 0x16E JUMPI PUSH2 0x102D SWAP1 CALLDATASIZE SWAP1 PUSH1 0x4 ADD PUSH2 0x1AED JUMP JUMPDEST SWAP1 PUSH1 0x44 CALLDATALOAD PUSH2 0x1039 PUSH2 0x1DB5 JUMP JUMPDEST PUSH2 0x1041 PUSH2 0x1D56 JUMP JUMPDEST DUP4 PUSH1 0x0 MSTORE PUSH1 0x3 PUSH1 0x20 MSTORE PUSH1 0xFF PUSH1 0x40 PUSH1 0x0 KECCAK256 SLOAD AND PUSH2 0x105C DUP2 PUSH2 0x1B1E JUMP JUMPDEST PUSH2 0x1390 JUMPI PUSH1 0x2 DUP4 LT ISZERO DUP1 PUSH2 0x1385 JUMPI JUMPDEST ISZERO PUSH2 0x1340 JUMPI DUP1 ISZERO PUSH2 0x12FB JUMPI PUSH1 0x0 JUMPDEST DUP4 DUP2 LT PUSH2 0x11E7 JUMPI POP DUP4 PUSH1 0x0 MSTORE PUSH1 0x3 PUSH1 0x20 MSTORE PUSH1 0x40 PUSH1 0x0 KECCAK256 PUSH1 0x1 PUSH1 0xFF NOT DUP3 SLOAD AND OR DUP2 SSTORE PUSH1 0x1 DUP2 ADD PUSH8 0xFFFFFFFFFFFFFFFF DUP6 GT PUSH2 0x11D1 JUMPI PUSH9 0x10000000000000000 DUP6 GT PUSH2 0x11D1 JUMPI DUP1 SLOAD DUP6 DUP3 SSTORE DUP1 DUP7 LT PUSH2 0x11A8 JUMPI JUMPDEST POP DUP4 SWAP5 SWAP4 SWAP1 PUSH1 0x0 MSTORE PUSH1 0x20 PUSH1 0x0 KECCAK256 SWAP1 PUSH1 0x0 JUMPDEST DUP6 DUP2 LT PUSH2 0x1187 JUMPI POP POP POP SWAP1 DUP2 DUP2 PUSH1 0x5 PUSH1 0x7 SWAP5 ADD SSTORE TIMESTAMP PUSH1 0x6 DUP3 ADD SSTORE PUSH2 0x1101 PUSH1 0x5 SLOAD TIMESTAMP PUSH2 0x1C79 JUMP JUMPDEST SWAP3 DUP4 SWAP2 ADD SSTORE PUSH1 0x40 MLOAD SWAP3 DUP1 PUSH1 0x60 DUP6 ADD PUSH1 0x60 DUP7 MSTORE MSTORE PUSH1 0x80 DUP5 ADD SWAP5 SWAP1 PUSH1 0x0 SWAP1 JUMPDEST DUP1 DUP3 LT PUSH2 0x115B JUMPI POP POP POP PUSH1 0x20 DUP4 ADD MSTORE PUSH1 0x40 DUP3 ADD MSTORE PUSH32 0xA3030D9EF1703B5CC847027F1F0E1756000444D2707B84CA93AE6E5B3D29DAAB SWAP2 DUP2 SWAP1 SUB SWAP1 LOG2 STOP JUMPDEST SWAP1 SWAP2 SWAP5 SWAP6 DUP6 CALLDATALOAD SWAP1 PUSH1 0x1 DUP1 PUSH1 0xA0 SHL SUB DUP3 AND DUP1 SWAP3 SUB PUSH2 0x16E JUMPI SWAP1 DUP2 MSTORE PUSH1 0x20 SWAP1 DUP2 ADD SWAP7 SWAP6 ADD SWAP2 PUSH1 0x1 ADD SWAP1 PUSH2 0x111E JUMP JUMPDEST PUSH1 0x1 SWAP1 PUSH1 0x20 PUSH2 0x1198 DUP5 SWAP10 SWAP9 SWAP10 PUSH2 0x1C65 JUMP JUMPDEST SWAP4 ADD SWAP3 DUP2 DUP6 ADD SSTORE ADD SWAP6 SWAP5 SWAP6 PUSH2 0x10DB JUMP JUMPDEST DUP2 PUSH1 0x0 MSTORE DUP6 PUSH1 0x20 PUSH1 0x0 KECCAK256 SWAP2 DUP3 ADD SWAP2 ADD JUMPDEST DUP2 DUP2 LT PUSH2 0x11C5 JUMPI POP PUSH2 0x10CA JUMP JUMPDEST PUSH1 0x0 DUP2 SSTORE PUSH1 0x1 ADD PUSH2 0x11B8 JUMP JUMPDEST PUSH4 0x4E487B71 PUSH1 0xE0 SHL PUSH1 0x0 MSTORE PUSH1 0x41 PUSH1 0x4 MSTORE PUSH1 0x24 PUSH1 0x0 REVERT JUMPDEST PUSH1 0x1 PUSH1 0x1 PUSH1 0xA0 SHL SUB PUSH2 0x1202 PUSH2 0x11FD DUP4 DUP8 DUP8 PUSH2 0x1C55 JUMP JUMPDEST PUSH2 0x1C65 JUMP JUMPDEST AND ISZERO PUSH2 0x12BD JUMPI PUSH1 0x1 DUP2 ADD DUP1 DUP3 GT PUSH2 0x12A7 JUMPI JUMPDEST DUP5 DUP2 LT PUSH2 0x1224 JUMPI POP PUSH1 0x1 ADD PUSH2 0x1079 JUMP JUMPDEST PUSH2 0x1232 PUSH2 0x11FD DUP4 DUP8 DUP8 PUSH2 0x1C55 JUMP JUMPDEST PUSH1 0x1 PUSH1 0x1 PUSH1 0xA0 SHL SUB PUSH2 0x1248 PUSH2 0x11FD DUP5 DUP10 DUP10 PUSH2 0x1C55 JUMP JUMPDEST PUSH1 0x1 PUSH1 0x1 PUSH1 0xA0 SHL SUB SWAP1 SWAP3 AND SWAP2 AND EQ PUSH2 0x1262 JUMPI PUSH1 0x1 ADD PUSH2 0x1214 JUMP JUMPDEST PUSH1 0x40 MLOAD PUSH3 0x461BCD PUSH1 0xE5 SHL DUP2 MSTORE PUSH1 0x20 PUSH1 0x4 DUP3 ADD MSTORE PUSH1 0x18 PUSH1 0x24 DUP3 ADD MSTORE PUSH32 0x4475706C696361746520706C6179657220616464726573730000000000000000 PUSH1 0x44 DUP3 ADD MSTORE PUSH1 0x64 SWAP1 REVERT JUMPDEST PUSH4 0x4E487B71 PUSH1 0xE0 SHL PUSH1 0x0 MSTORE PUSH1 0x11 PUSH1 0x4 MSTORE PUSH1 0x24 PUSH1 0x0 REVERT JUMPDEST PUSH1 0x40 MLOAD PUSH3 0x461BCD PUSH1 0xE5 SHL DUP2 MSTORE PUSH1 0x20 PUSH1 0x4 DUP3 ADD MSTORE PUSH1 0x16 PUSH1 0x24 DUP3 ADD MSTORE PUSH22 0x496E76616C696420706C617965722061646472657373 PUSH1 0x50 SHL PUSH1 0x44 DUP3 ADD MSTORE PUSH1 0x64 SWAP1 REVERT JUMPDEST PUSH1 0x40 MLOAD PUSH3 0x461BCD PUSH1 0xE5 SHL DUP2 MSTORE PUSH1 0x20 PUSH1 0x4 DUP3 ADD MSTORE PUSH1 0x1C PUSH1 0x24 DUP3 ADD MSTORE PUSH32 0x5374616B65206D7573742062652067726561746572207468616E203000000000 PUSH1 0x44 DUP3 ADD MSTORE PUSH1 0x64 SWAP1 REVERT JUMPDEST PUSH1 0x40 MLOAD PUSH3 0x461BCD PUSH1 0xE5 SHL DUP2 MSTORE PUSH1 0x20 PUSH1 0x4 DUP3 ADD MSTORE PUSH1 0x19 PUSH1 0x24 DUP3 ADD MSTORE PUSH32 0x496E76616C6964206E756D626572206F6620706C617965727300000000000000 PUSH1 0x44 DUP3 ADD MSTORE PUSH1 0x64 SWAP1 REVERT JUMPDEST POP PUSH1 0xA DUP4 GT ISZERO PUSH2 0x106B JUMP JUMPDEST PUSH1 0x40 MLOAD PUSH3 0x461BCD PUSH1 0xE5 SHL DUP2 MSTORE PUSH1 0x20 PUSH1 0x4 DUP3 ADD MSTORE PUSH1 0x13 PUSH1 0x24 DUP3 ADD MSTORE PUSH19 0x47616D6520616C726561647920657869737473 PUSH1 0x68 SHL PUSH1 0x44 DUP3 ADD MSTORE PUSH1 0x64 SWAP1 REVERT JUMPDEST CALLVALUE PUSH2 0x16E JUMPI PUSH1 0x40 CALLDATASIZE PUSH1 0x3 NOT ADD SLT PUSH2 0x16E JUMPI PUSH1 0x4 CALLDATALOAD PUSH2 0x13E7 PUSH2 0x1AC1 JUMP JUMPDEST SWAP1 DUP1 PUSH1 0x0 MSTORE PUSH1 0x3 PUSH1 0x20 MSTORE PUSH2 0x1406 PUSH1 0xFF PUSH1 0x40 PUSH1 0x0 KECCAK256 SLOAD AND PUSH2 0x1AE DUP2 PUSH2 0x1B1E JUMP JUMPDEST PUSH1 0x0 MSTORE PUSH1 0x3 PUSH1 0x20 MSTORE PUSH1 0x2 PUSH1 0x40 PUSH1 0x0 KECCAK256 ADD SWAP1 PUSH1 0x1 DUP1 PUSH1 0xA0 SHL SUB AND PUSH1 0x0 MSTORE PUSH1 0x20 MSTORE PUSH1 0x20 PUSH1 0xFF PUSH1 0x40 PUSH1 0x0 KECCAK256 SLOAD AND PUSH1 0x40 MLOAD SWAP1 ISZERO ISZERO DUP2 MSTORE RETURN JUMPDEST CALLVALUE PUSH2 0x16E JUMPI PUSH1 0x20 CALLDATASIZE PUSH1 0x3 NOT ADD SLT PUSH2 0x16E JUMPI PUSH1 0x4 CALLDATALOAD PUSH1 0x0 MSTORE PUSH1 0x3 PUSH1 0x20 MSTORE PUSH1 0x20 PUSH1 0xFF PUSH1 0x40 PUSH1 0x0 KECCAK256 SLOAD AND PUSH1 0x40 MLOAD SWAP1 PUSH2 0x146E DUP2 PUSH2 0x1B1E JUMP JUMPDEST DUP2 MSTORE RETURN JUMPDEST CALLVALUE PUSH2 0x16E JUMPI PUSH1 0x60 CALLDATASIZE PUSH1 0x3 NOT ADD SLT PUSH2 0x16E JUMPI PUSH2 0x148B PUSH2 0x1AC1 JUMP JUMPDEST PUSH1 0x44 CALLDATALOAD PUSH8 0xFFFFFFFFFFFFFFFF DUP2 GT PUSH2 0x16E JUMPI PUSH2 0x14AB SWAP1 CALLDATASIZE SWAP1 PUSH1 0x4 ADD PUSH2 0x1AED JUMP JUMPDEST SWAP2 PUSH2 0x14B4 PUSH2 0x1D34 JUMP JUMPDEST PUSH1 0x4 CALLDATALOAD PUSH1 0x0 MSTORE PUSH1 0x3 PUSH1 0x20 MSTORE PUSH2 0x14D4 PUSH1 0xFF PUSH1 0x40 PUSH1 0x0 KECCAK256 SLOAD AND PUSH2 0x1AE DUP2 PUSH2 0x1B1E JUMP JUMPDEST PUSH1 0x0 SWAP2 PUSH1 0x0 JUMPDEST PUSH1 0x4 CALLDATALOAD PUSH1 0x0 MSTORE PUSH1 0x3 PUSH1 0x20 MSTORE PUSH1 0x1 PUSH1 0x40 PUSH1 0x0 KECCAK256 ADD SLOAD DUP2 LT ISZERO PUSH2 0x1AB5 JUMPI PUSH1 0x4 CALLDATALOAD PUSH1 0x0 MSTORE PUSH1 0x3 PUSH1 0x20 MSTORE PUSH2 0x1511 DUP2 PUSH1 0x1 PUSH1 0x40 PUSH1 0x0 KECCAK256 ADD PUSH2 0x1B80 JUMP JUMPDEST SWAP1 SLOAD PUSH1 0x3 SWAP2 SWAP1 SWAP2 SHL SHR PUSH1 0x1 PUSH1 0x1 PUSH1 0xA0 SHL SUB AND CALLER EQ PUSH2 0x1531 JUMPI PUSH1 0x1 ADD PUSH2 0x14DA JUMP JUMPDEST POP SWAP1 SWAP2 POP PUSH2 0x153F PUSH1 0x1 PUSH2 0x1BAE JUMP JUMPDEST PUSH2 0x1547 PUSH2 0x1D56 JUMP JUMPDEST PUSH1 0x4 CALLDATALOAD PUSH1 0x0 MSTORE PUSH1 0x3 PUSH1 0x20 MSTORE PUSH1 0x40 PUSH1 0x0 KECCAK256 DUP1 SLOAD SWAP2 PUSH1 0x2 PUSH1 0xFF DUP5 AND PUSH2 0x1569 DUP2 PUSH2 0x1B1E JUMP JUMPDEST SUB PUSH2 0x1A79 JUMPI PUSH1 0x1 DUP3 ADD SLOAD SWAP5 PUSH1 0x0 DUP1 JUMPDEST DUP8 DUP2 LT PUSH2 0x1A3E JUMPI JUMPDEST POP ISZERO PUSH2 0x19ED JUMPI DUP6 PUSH1 0x0 NOT DUP2 ADD GT PUSH2 0x12A7 JUMPI PUSH1 0x1 DUP7 DUP3 SUB ADD PUSH2 0x19A8 JUMPI PUSH1 0x6 DUP4 ADD SLOAD PUSH1 0x40 MLOAD PUSH1 0x20 DUP2 ADD SWAP2 PUSH1 0x4 CALLDATALOAD DUP4 MSTORE PUSH12 0xFFFFFFFFFFFFFFFFFFFFFFFF NOT DUP9 PUSH1 0x60 SHL AND PUSH1 0x40 DUP4 ADD MSTORE ADDRESS PUSH1 0x60 SHL PUSH1 0x54 DUP4 ADD MSTORE CHAINID PUSH1 0x68 DUP4 ADD MSTORE PUSH1 0x88 DUP3 ADD MSTORE PUSH1 0x88 DUP2 MSTORE PUSH2 0x15E8 PUSH1 0xA8 DUP3 PUSH2 0x1C07 JUMP JUMPDEST MLOAD SWAP1 KECCAK256 PUSH1 0x40 MLOAD PUSH1 0x20 DUP2 ADD SWAP2 PUSH32 0x19457468657265756D205369676E6564204D6573736167653A0A333200000000 DUP4 MSTORE PUSH1 0x3C DUP3 ADD MSTORE PUSH1 0x3C DUP2 MSTORE PUSH2 0x162A PUSH1 0x5C DUP3 PUSH2 0x1C07 JUMP JUMPDEST MLOAD SWAP1 KECCAK256 SWAP1 PUSH1 0x0 SWAP3 PUSH2 0x163A DUP3 PUSH2 0x1C29 JUMP JUMPDEST PUSH2 0x1647 PUSH1 0x40 MLOAD SWAP2 DUP3 PUSH2 0x1C07 JUMP JUMPDEST DUP3 DUP2 MSTORE PUSH1 0x1F NOT PUSH2 0x1656 DUP5 PUSH2 0x1C29 JUMP JUMPDEST ADD CALLDATASIZE PUSH1 0x20 DUP4 ADD CALLDATACOPY PUSH1 0x0 SWAP4 JUMPDEST DUP10 DUP6 LT PUSH2 0x17D6 JUMPI POP POP POP POP POP PUSH1 0x0 SWAP5 PUSH1 0x0 NOT ADD SUB PUSH2 0x1791 JUMPI PUSH1 0x3 PUSH1 0x4 SWAP3 PUSH1 0xFF NOT AND OR DUP2 SSTORE ADD SLOAD SWAP1 PUSH1 0x6 SLOAD DUP1 ISZERO ISZERO DUP1 PUSH2 0x177D JUMPI JUMPDEST PUSH2 0x1706 JUMPI JUMPDEST POP PUSH2 0x16C5 DUP3 DUP3 PUSH32 0x0 PUSH2 0x1D73 JUMP JUMPDEST PUSH1 0x40 MLOAD SWAP2 DUP3 MSTORE PUSH1 0x1 PUSH1 0x1 PUSH1 0xA0 SHL SUB AND SWAP1 PUSH1 0x4 CALLDATALOAD SWAP1 PUSH32 0xB64875E7F49769075AA9AEC663C4C8BFB1212018AB5BB08B6FBEEB37DDF5C360 SWAP1 PUSH1 0x20 SWAP1 LOG3 PUSH1 0x1 DUP1 SSTORE DUP1 RETURN JUMPDEST DUP1 DUP4 MUL SWAP1 DUP4 DUP3 DIV EQ DUP4 ISZERO OR ISZERO PUSH2 0x1769 JUMPI PUSH2 0x2710 PUSH2 0x1725 SWAP2 DIV DUP1 SWAP4 PUSH2 0x1BFA JUMP JUMPDEST SWAP2 DUP1 ISZERO PUSH2 0x1699 JUMPI PUSH1 0x7 SLOAD PUSH2 0x1763 SWAP2 SWAP1 PUSH1 0x1 PUSH1 0x1 PUSH1 0xA0 SHL SUB AND PUSH32 0x0 PUSH2 0x1D73 JUMP JUMPDEST DUP4 PUSH2 0x1699 JUMP JUMPDEST PUSH4 0x4E487B71 PUSH1 0xE0 SHL DUP5 MSTORE PUSH1 0x11 PUSH1 0x4 MSTORE PUSH1 0x24 DUP5 REVERT JUMPDEST POP PUSH1 0x7 SLOAD PUSH1 0x1 PUSH1 0x1 PUSH1 0xA0 SHL SUB AND ISZERO ISZERO PUSH2 0x1694 JUMP JUMPDEST PUSH1 0x40 MLOAD PUSH3 0x461BCD PUSH1 0xE5 SHL DUP2 MSTORE PUSH1 0x20 PUSH1 0x4 DUP3 ADD MSTORE PUSH1 0x1B PUSH1 0x24 DUP3 ADD MSTORE PUSH32 0x4E6F7420656E6F7567682076616C6964207369676E6174757265730000000000 PUSH1 0x44 DUP3 ADD MSTORE PUSH1 0x64 SWAP1 REVERT JUMPDEST SWAP3 SWAP8 SWAP4 SWAP9 PUSH2 0x17EC DUP11 PUSH1 0x1 DUP10 SWAP5 SWAP10 SWAP11 SWAP6 SWAP11 ADD PUSH2 0x1B80 JUMP JUMPDEST SWAP1 SLOAD PUSH1 0x3 SWAP2 SWAP1 SWAP2 SHL SHR PUSH1 0x1 PUSH1 0x1 PUSH1 0xA0 SHL SUB AND SWAP5 CALLER DUP7 EQ PUSH2 0x1995 JUMPI PUSH1 0x0 SWAP4 DUP5 JUMPDEST DUP12 DUP2 LT ISZERO PUSH2 0x1982 JUMPI PUSH2 0x181D DUP2 DUP12 PUSH2 0x1C41 JUMP JUMPDEST MLOAD PUSH2 0x197A JUMPI PUSH1 0x0 PUSH1 0x1E NOT DUP13 CALLDATASIZE SUB ADD DUP3 PUSH1 0x5 SHL DUP14 ADD CALLDATALOAD SLT ISZERO PUSH2 0x1977 JUMPI DUP2 PUSH1 0x5 SHL DUP13 ADD CALLDATALOAD DUP13 ADD PUSH8 0xFFFFFFFFFFFFFFFF DUP2 CALLDATALOAD GT PUSH2 0x1975 JUMPI DUP1 CALLDATALOAD CALLDATASIZE SUB PUSH1 0x20 DUP3 ADD SGT PUSH2 0x1975 JUMPI PUSH1 0x40 MLOAD SWAP1 PUSH2 0x1877 DUP2 CALLDATALOAD PUSH1 0x1F ADD PUSH1 0x1F NOT AND PUSH1 0x20 ADD DUP4 PUSH2 0x1C07 JUMP JUMPDEST DUP1 CALLDATALOAD DUP3 MSTORE CALLDATASIZE PUSH1 0x20 DUP3 CALLDATALOAD DUP4 ADD ADD GT PUSH2 0x1971 JUMPI PUSH2 0x18A8 DUP12 SWAP3 DUP5 PUSH1 0x20 DUP5 PUSH2 0x18B1 SWAP6 CALLDATALOAD DUP3 DUP3 ADD DUP4 DUP7 ADD CALLDATACOPY CALLDATALOAD DUP4 ADD ADD MSTORE DUP12 PUSH2 0x1DDE JUMP JUMPDEST SWAP1 SWAP3 SWAP2 SWAP3 PUSH2 0x1E1A JUMP JUMPDEST PUSH1 0x1 PUSH1 0x1 PUSH1 0xA0 SHL SUB AND EQ PUSH2 0x18CA JUMPI POP PUSH1 0x1 SWAP1 JUMPDEST ADD PUSH2 0x180B JUMP JUMPDEST SWAP3 SWAP12 SWAP7 SWAP8 POP SWAP8 SWAP1 SWAP10 SWAP5 POP PUSH1 0x1 SWAP12 SWAP3 SWAP12 SWAP9 SWAP4 SWAP9 SWAP2 PUSH1 0x0 NOT DUP3 EQ PUSH2 0x195D JUMPI POP PUSH2 0x18F5 DUP3 DUP1 SWAP3 ADD SWAP9 DUP6 PUSH2 0x1C41 JUMP JUMPDEST MSTORE JUMPDEST ISZERO PUSH2 0x1907 JUMPI PUSH1 0x1 SWAP1 JUMPDEST ADD SWAP4 PUSH2 0x1661 JUMP JUMPDEST PUSH1 0x40 MLOAD PUSH3 0x461BCD PUSH1 0xE5 SHL DUP2 MSTORE PUSH1 0x20 PUSH1 0x4 DUP3 ADD MSTORE PUSH1 0x28 PUSH1 0x24 DUP3 ADD MSTORE PUSH32 0x496E76616C6964206F72206D697373696E67207369676E61747572652066726F PUSH1 0x44 DUP3 ADD MSTORE PUSH8 0x3690383630BCB2B9 PUSH1 0xC1 SHL PUSH1 0x64 DUP3 ADD MSTORE PUSH1 0x84 SWAP1 REVERT JUMPDEST PUSH4 0x4E487B71 PUSH1 0xE0 SHL DUP2 MSTORE PUSH1 0x11 PUSH1 0x4 MSTORE PUSH1 0x24 SWAP1 REVERT JUMPDEST DUP3 DUP1 REVERT JUMPDEST POP JUMPDEST DUP1 REVERT JUMPDEST PUSH1 0x1 SWAP1 PUSH2 0x18C4 JUMP JUMPDEST POP SWAP9 SWAP4 SWAP1 SWAP10 SWAP5 SWAP6 POP SWAP10 SWAP1 SWAP10 SWAP7 SWAP2 SWAP7 PUSH2 0x18F7 JUMP JUMPDEST SWAP9 SWAP4 SWAP5 POP SWAP9 PUSH1 0x1 SWAP1 SWAP8 SWAP3 SWAP8 SWAP7 SWAP2 SWAP7 PUSH2 0x1900 JUMP JUMPDEST PUSH1 0x40 MLOAD PUSH3 0x461BCD PUSH1 0xE5 SHL DUP2 MSTORE PUSH1 0x20 PUSH1 0x4 DUP3 ADD MSTORE PUSH1 0x1E PUSH1 0x24 DUP3 ADD MSTORE PUSH32 0x496E636F7272656374206E756D626572206F66207369676E6174757265730000 PUSH1 0x44 DUP3 ADD MSTORE PUSH1 0x64 SWAP1 REVERT JUMPDEST PUSH1 0x40 MLOAD PUSH3 0x461BCD PUSH1 0xE5 SHL DUP2 MSTORE PUSH1 0x20 PUSH1 0x4 DUP3 ADD MSTORE PUSH1 0x23 PUSH1 0x24 DUP3 ADD MSTORE PUSH32 0x57696E6E6572206973206E6F74206120706C6179657220696E20746869732067 PUSH1 0x44 DUP3 ADD MSTORE PUSH3 0x616D65 PUSH1 0xE8 SHL PUSH1 0x64 DUP3 ADD MSTORE PUSH1 0x84 SWAP1 REVERT JUMPDEST PUSH2 0x1A4B DUP2 PUSH1 0x1 DUP8 ADD PUSH2 0x1B80 JUMP JUMPDEST SWAP1 SLOAD PUSH1 0x3 SWAP2 SWAP1 SWAP2 SHL SHR PUSH1 0x1 PUSH1 0x1 PUSH1 0xA0 SHL SUB SWAP1 DUP2 AND SWAP1 DUP9 AND EQ PUSH2 0x1A6F JUMPI PUSH1 0x1 ADD PUSH2 0x1578 JUMP JUMPDEST POP POP PUSH1 0x1 DUP8 PUSH2 0x1580 JUMP JUMPDEST PUSH1 0x40 MLOAD PUSH3 0x461BCD PUSH1 0xE5 SHL DUP2 MSTORE PUSH1 0x20 PUSH1 0x4 DUP3 ADD MSTORE PUSH1 0x14 PUSH1 0x24 DUP3 ADD MSTORE PUSH20 0x47616D65206E6F7420696E2070726F6772657373 PUSH1 0x60 SHL PUSH1 0x44 DUP3 ADD MSTORE PUSH1 0x64 SWAP1 REVERT JUMPDEST POP SWAP1 SWAP2 PUSH2 0x153F SWAP1 PUSH2 0x1BAE JUMP JUMPDEST PUSH1 0x24 CALLDATALOAD SWAP1 PUSH1 0x1 PUSH1 0x1 PUSH1 0xA0 SHL SUB DUP3 AND DUP3 SUB PUSH2 0x16E JUMPI JUMP JUMPDEST PUSH1 0x4 CALLDATALOAD SWAP1 PUSH1 0x1 PUSH1 0x1 PUSH1 0xA0 SHL SUB DUP3 AND DUP3 SUB PUSH2 0x16E JUMPI JUMP JUMPDEST SWAP2 DUP2 PUSH1 0x1F DUP5 ADD SLT ISZERO PUSH2 0x16E JUMPI DUP3 CALLDATALOAD SWAP2 PUSH8 0xFFFFFFFFFFFFFFFF DUP4 GT PUSH2 0x16E JUMPI PUSH1 0x20 DUP1 DUP6 ADD SWAP5 DUP5 PUSH1 0x5 SHL ADD ADD GT PUSH2 0x16E JUMPI JUMP JUMPDEST PUSH1 0x4 GT ISZERO PUSH2 0x1B28 JUMPI JUMP JUMPDEST PUSH4 0x4E487B71 PUSH1 0xE0 SHL PUSH1 0x0 MSTORE PUSH1 0x21 PUSH1 0x4 MSTORE PUSH1 0x24 PUSH1 0x0 REVERT JUMPDEST ISZERO PUSH2 0x1B45 JUMPI JUMP JUMPDEST PUSH1 0x40 MLOAD PUSH3 0x461BCD PUSH1 0xE5 SHL DUP2 MSTORE PUSH1 0x20 PUSH1 0x4 DUP3 ADD MSTORE PUSH1 0x13 PUSH1 0x24 DUP3 ADD MSTORE PUSH19 0x11D85B5948191BD95CC81B9BDD08195E1A5CDD PUSH1 0x6A SHL PUSH1 0x44 DUP3 ADD MSTORE PUSH1 0x64 SWAP1 REVERT JUMPDEST DUP1 SLOAD DUP3 LT ISZERO PUSH2 0x1B98 JUMPI PUSH1 0x0 MSTORE PUSH1 0x20 PUSH1 0x0 KECCAK256 ADD SWAP1 PUSH1 0x0 SWAP1 JUMP JUMPDEST PUSH4 0x4E487B71 PUSH1 0xE0 SHL PUSH1 0x0 MSTORE PUSH1 0x32 PUSH1 0x4 MSTORE PUSH1 0x24 PUSH1 0x0 REVERT JUMPDEST ISZERO PUSH2 0x1BB5 JUMPI JUMP JUMPDEST PUSH1 0x40 MLOAD PUSH3 0x461BCD PUSH1 0xE5 SHL DUP2 MSTORE PUSH1 0x20 PUSH1 0x4 DUP3 ADD MSTORE PUSH1 0x19 PUSH1 0x24 DUP3 ADD MSTORE PUSH32 0x4E6F74206120706C6179657220696E20746869732067616D6500000000000000 PUSH1 0x44 DUP3 ADD MSTORE PUSH1 0x64 SWAP1 REVERT JUMPDEST SWAP2 SWAP1 DUP3 SUB SWAP2 DUP3 GT PUSH2 0x12A7 JUMPI JUMP JUMPDEST SWAP1 PUSH1 0x1F DUP1 NOT SWAP2 ADD AND DUP2 ADD SWAP1 DUP2 LT PUSH8 0xFFFFFFFFFFFFFFFF DUP3 GT OR PUSH2 0x11D1 JUMPI PUSH1 0x40 MSTORE JUMP JUMPDEST PUSH8 0xFFFFFFFFFFFFFFFF DUP2 GT PUSH2 0x11D1 JUMPI PUSH1 0x5 SHL PUSH1 0x20 ADD SWAP1 JUMP JUMPDEST DUP1 MLOAD DUP3 LT ISZERO PUSH2 0x1B98 JUMPI PUSH1 0x20 SWAP2 PUSH1 0x5 SHL ADD ADD SWAP1 JUMP JUMPDEST SWAP2 SWAP1 DUP2 LT ISZERO PUSH2 0x1B98 JUMPI PUSH1 0x5 SHL ADD SWAP1 JUMP JUMPDEST CALLDATALOAD PUSH1 0x1 PUSH1 0x1 PUSH1 0xA0 SHL SUB DUP2 AND DUP2 SUB PUSH2 0x16E JUMPI SWAP1 JUMP JUMPDEST SWAP2 SWAP1 DUP3 ADD DUP1 SWAP3 GT PUSH2 0x12A7 JUMPI JUMP JUMPDEST PUSH1 0x40 MLOAD SWAP1 PUSH2 0x1C95 PUSH1 0x20 DUP4 PUSH2 0x1C07 JUMP JUMPDEST PUSH1 0x0 DUP1 DUP4 MSTORE CALLDATASIZE PUSH1 0x20 DUP5 ADD CALLDATACOPY JUMP JUMPDEST SWAP1 DUP2 PUSH1 0x0 MSTORE PUSH1 0x3 PUSH1 0x20 MSTORE PUSH1 0xFF PUSH1 0x40 PUSH1 0x0 KECCAK256 SLOAD AND PUSH2 0x1CBE DUP2 PUSH2 0x1B1E JUMP JUMPDEST ISZERO PUSH2 0x1D2D JUMPI PUSH1 0x0 JUMPDEST DUP3 PUSH1 0x0 MSTORE PUSH1 0x3 PUSH1 0x20 MSTORE PUSH1 0x1 PUSH1 0x40 PUSH1 0x0 KECCAK256 ADD SLOAD DUP2 LT ISZERO PUSH2 0x1D25 JUMPI DUP3 PUSH1 0x0 MSTORE PUSH1 0x3 PUSH1 0x20 MSTORE PUSH2 0x1CF9 DUP2 PUSH1 0x1 PUSH1 0x40 PUSH1 0x0 KECCAK256 ADD PUSH2 0x1B80 JUMP JUMPDEST SWAP1 SLOAD PUSH1 0x3 SWAP2 SWAP1 SWAP2 SHL SHR PUSH1 0x1 PUSH1 0x1 PUSH1 0xA0 SHL SUB SWAP1 DUP2 AND SWAP1 DUP4 AND EQ PUSH2 0x1D1D JUMPI PUSH1 0x1 ADD PUSH2 0x1CC6 JUMP JUMPDEST POP POP POP PUSH1 0x1 SWAP1 JUMP JUMPDEST POP POP POP PUSH1 0x0 SWAP1 JUMP JUMPDEST POP POP PUSH1 0x0 SWAP1 JUMP JUMPDEST PUSH1 0x2 PUSH1 0x1 SLOAD EQ PUSH2 0x1D45 JUMPI PUSH1 0x2 PUSH1 0x1 SSTORE JUMP JUMPDEST PUSH4 0x3EE5AEB5 PUSH1 0xE0 SHL PUSH1 0x0 MSTORE PUSH1 0x4 PUSH1 0x0 REVERT JUMPDEST PUSH1 0xFF PUSH1 0x2 SLOAD AND PUSH2 0x1D62 JUMPI JUMP JUMPDEST PUSH4 0xD93C0665 PUSH1 0xE0 SHL PUSH1 0x0 MSTORE PUSH1 0x4 PUSH1 0x0 REVERT JUMPDEST PUSH1 0x40 MLOAD PUSH4 0xA9059CBB PUSH1 0xE0 SHL PUSH1 0x20 DUP3 ADD MSTORE PUSH1 0x1 PUSH1 0x1 PUSH1 0xA0 SHL SUB SWAP1 SWAP3 AND PUSH1 0x24 DUP4 ADD MSTORE PUSH1 0x44 DUP1 DUP4 ADD SWAP4 SWAP1 SWAP4 MSTORE SWAP2 DUP2 MSTORE PUSH2 0x1DB3 SWAP2 PUSH2 0x1DAE PUSH1 0x64 DUP4 PUSH2 0x1C07 JUMP JUMPDEST PUSH2 0x1E9C JUMP JUMPDEST JUMP JUMPDEST PUSH1 0x0 SLOAD PUSH1 0x1 PUSH1 0x1 PUSH1 0xA0 SHL SUB AND CALLER SUB PUSH2 0x1DC9 JUMPI JUMP JUMPDEST PUSH4 0x118CDAA7 PUSH1 0xE0 SHL PUSH1 0x0 MSTORE CALLER PUSH1 0x4 MSTORE PUSH1 0x24 PUSH1 0x0 REVERT JUMPDEST DUP2 MLOAD SWAP2 SWAP1 PUSH1 0x41 DUP4 SUB PUSH2 0x1E0F JUMPI PUSH2 0x1E08 SWAP3 POP PUSH1 0x20 DUP3 ADD MLOAD SWAP1 PUSH1 0x60 PUSH1 0x40 DUP5 ADD MLOAD SWAP4 ADD MLOAD PUSH1 0x0 BYTE SWAP1 PUSH2 0x1EF7 JUMP JUMPDEST SWAP2 SWAP3 SWAP1 SWAP2 SWAP1 JUMP JUMPDEST POP POP PUSH1 0x0 SWAP2 PUSH1 0x2 SWAP2 SWAP1 JUMP JUMPDEST PUSH2 0x1E23 DUP2 PUSH2 0x1B1E JUMP JUMPDEST DUP1 PUSH2 0x1E2C JUMPI POP POP JUMP JUMPDEST PUSH2 0x1E35 DUP2 PUSH2 0x1B1E JUMP JUMPDEST PUSH1 0x1 DUP2 SUB PUSH2 0x1E4E JUMPI PUSH4 0xF645EEDF PUSH1 0xE0 SHL PUSH1 0x0 MSTORE PUSH1 0x4 PUSH1 0x0 REVERT JUMPDEST PUSH2 0x1E57 DUP2 PUSH2 0x1B1E JUMP JUMPDEST PUSH1 0x2 DUP2 SUB PUSH2 0x1E74 JUMPI POP PUSH4 0xFCE698F7 PUSH1 0xE0 SHL PUSH1 0x0 MSTORE PUSH1 0x4 MSTORE PUSH1 0x24 PUSH1 0x0 REVERT JUMPDEST PUSH1 0x3 SWAP1 PUSH2 0x1E80 DUP2 PUSH2 0x1B1E JUMP JUMPDEST EQ PUSH2 0x1E88 JUMPI POP JUMP JUMPDEST PUSH4 0x35E2F383 PUSH1 0xE2 SHL PUSH1 0x0 MSTORE PUSH1 0x4 MSTORE PUSH1 0x24 PUSH1 0x0 REVERT JUMPDEST SWAP1 PUSH1 0x0 PUSH1 0x20 SWAP2 DUP3 DUP2 MLOAD SWAP2 ADD DUP3 DUP6 GAS CALL ISZERO PUSH2 0xB6C JUMPI PUSH1 0x0 MLOAD RETURNDATASIZE PUSH2 0x1EEE JUMPI POP PUSH1 0x1 PUSH1 0x1 PUSH1 0xA0 SHL SUB DUP2 AND EXTCODESIZE ISZERO JUMPDEST PUSH2 0x1ECD JUMPI POP JUMP JUMPDEST PUSH4 0x5274AFE7 PUSH1 0xE0 SHL PUSH1 0x0 SWAP1 DUP2 MSTORE PUSH1 0x1 PUSH1 0x1 PUSH1 0xA0 SHL SUB SWAP2 SWAP1 SWAP2 AND PUSH1 0x4 MSTORE PUSH1 0x24 SWAP1 REVERT JUMPDEST PUSH1 0x1 EQ ISZERO PUSH2 0x1EC6 JUMP JUMPDEST SWAP2 SWAP1 PUSH32 0x7FFFFFFFFFFFFFFFFFFFFFFFFFFFFFFF5D576E7357A4501DDFE92F46681B20A0 DUP5 GT PUSH2 0x1F74 JUMPI SWAP2 PUSH1 0x20 SWAP4 PUSH1 0x80 SWAP3 PUSH1 0xFF PUSH1 0x0 SWAP6 PUSH1 0x40 MLOAD SWAP5 DUP6 MSTORE AND DUP7 DUP5 ADD MSTORE PUSH1 0x40 DUP4 ADD MSTORE PUSH1 0x60 DUP3 ADD MSTORE DUP3 DUP1 MSTORE PUSH1 0x1 GAS STATICCALL ISZERO PUSH2 0xB6C JUMPI PUSH1 0x0 MLOAD PUSH1 0x1 PUSH1 0x1 PUSH1 0xA0 SHL SUB DUP2 AND ISZERO PUSH2 0x1F68 JUMPI SWAP1 PUSH1 0x0 SWAP1 PUSH1 0x0 SWAP1 JUMP JUMPDEST POP PUSH1 0x0 SWAP1 PUSH1 0x1 SWAP1 PUSH1 0x0 SWAP1 JUMP JUMPDEST POP POP POP PUSH1 0x0 SWAP2 PUSH1 0x3 SWAP2 SWAP1 JUMP INVALID LOG2 PUSH5 0x6970667358 0x22 SLT KECCAK256 PUSH13 0x108136BCEA0D3002711A879FB4 0x4B 0x22 SWAP1 0xC SWAP16 0xED DUP12 DUP3 DUP12 SWAP3 0xE2 PUSH10 0x9E7E018FAC3664736F6C PUSH4 0x4300081C STOP CALLER "},"methodIdentifiers":{"MAX_PLAYERS()":"4411b3eb","MIN_PLAYERS()":"85f07bbe","cancelGame(bytes32)":"3f7121b0","createGame(bytes32,address[],uint256)":"2570069b","feeCollector()":"c415b95c","feePercentage()":"a001ecdd","gameExpirationTime()":"f99d948f","getActiveGameIds()":"6916c9b0","getGameExpiration(bytes32)":"e7c09c28","getGamePlayers(bytes32)":"3c261734","getGameStatus(bytes32)":"146c638d","getPlayerStake(bytes32,address)":"f6d3cf74","getTotalStaked(bytes32)":"f10e6b7e","hasPlayerStaked(bytes32,address)":"170150a4","isPlayerInGame(bytes32,address)":"d26a0880","monToken()":"63eb9f90","owner()":"8da5cb5b","pause()":"8456cb59","paused()":"5c975abb","recoverTokens(address,address,uint256)":"5f3e849f","renounceOwnership()":"715018a6","setFeeCollector(address)":"a42dce80","setFeePercentage(uint256)":"ae06c1b7","setGameExpirationTime(uint256)":"5f114cf2","stake(bytes32)":"c0d64a87","submitResult(bytes32,address,bytes[])":"137d61e6","transferOwnership(address)":"f2fde38b","unpause()":"3f4ba83a"}}}}}