{
  "_format": "hh-sol-artifact-1",
  "contractName": "MONarcade",
  "sourceName": "contracts/MONarcade.sol",
  "abi": [
    {
      "inputs": [
        {
          "internalType": "address",
          "name": "_feeCollector",
          "type": "address"
        }
      ],
      "stateMutability": "nonpayable",
      "type": "constructor"
    },
    {
      "inputs": [],
      "name": "ECDSAInvalidSignature",
      "type": "error"
    },
    {
      "inputs": [
        {
          "internalType": "uint256",
          "name": "length",
          "type": "uint256"
        }
      ],
      "name": "ECDSAInvalidSignatureLength",
      "type": "error"
    },
    {
      "inputs": [
        {
          "internalType": "bytes32",
          "name": "s",
          "type": "bytes32"
        }
      ],
      "name": "ECDSAInvalidSignatureS",
      "type": "error"
    },
    {
      "inputs": [],
      "name": "EnforcedPause",
      "type": "error"
    },
    {
      "inputs": [],
      "name": "ExpectedPause",
      "type": "error"
    },
    {
      "inputs": [
        {
          "internalType": "address",
          "name": "owner",
          "type": "address"
        }
      ],
      "name": "OwnableInvalidOwner",
      "type": "error"
    },
    {
      "inputs": [
        {
          "internalType": "address",
          "name": "account",
          "type": "address"
        }
      ],
      "name": "OwnableUnauthorizedAccount",
      "type": "error"
    },
    {
      "inputs": [],
      "name": "ReentrancyGuardReentrantCall",
      "type": "error"
    },
    {
      "anonymous": false,
      "inputs": [
        {
          "indexed": false,
          "internalType": "address",
          "name": "oldCollector",
          "type": "address"
        },
        {
          "indexed": false,
          "internalType": "address",
          "name": "newCollector",
          "type": "address"
        }
      ],
      "name": "FeeCollectorChanged",
      "type": "event"
    },
    {
      "anonymous": false,
      "inputs": [
        {
          "indexed": false,
          "internalType": "uint256",
          "name": "oldFee",
          "type": "uint256"
        },
        {
          "indexed": false,
          "internalType": "uint256",
          "name": "newFee",
          "type": "uint256"
        }
      ],
      "name": "FeePercentageChanged",
      "type": "event"
    },
    {
      "anonymous": false,
      "inputs": [
        {
          "indexed": false,
          "internalType": "address",
          "name": "to",
          "type": "address"
        },
        {
          "indexed": false,
          "internalType": "uint256",
          "name": "amount",
          "type": "uint256"
        }
      ],
      "name": "FundsRecovered",
      "type": "event"
    },
    {
      "anonymous": false,
      "inputs": [
        {
          "indexed": true,
          "internalType": "bytes32",
          "name": "gameId",
          "type": "bytes32"
        },
        {
          "indexed": false,
          "internalType": "string",
          "name": "reason",
          "type": "string"
        }
      ],
      "name": "GameCancelled",
      "type": "event"
    },
    {
      "anonymous": false,
      "inputs": [
        {
          "indexed": true,
          "internalType": "bytes32",
          "name": "gameId",
          "type": "bytes32"
        },
        {
          "indexed": false,
          "internalType": "address[]",
          "name": "players",
          "type": "address[]"
        },
        {
          "indexed": false,
          "internalType": "uint256",
          "name": "stakeAmount",
          "type": "uint256"
        },
        {
          "indexed": false,
          "internalType": "uint256",
          "name": "expiresAt",
          "type": "uint256"
        }
      ],
      "name": "GameCreated",
      "type": "event"
    },
    {
      "anonymous": false,
      "inputs": [
        {
          "indexed": false,
          "internalType": "uint256",
          "name": "oldTime",
          "type": "uint256"
        },
        {
          "indexed": false,
          "internalType": "uint256",
          "name": "newTime",
          "type": "uint256"
        }
      ],
      "name": "GameExpirationTimeChanged",
      "type": "event"
    },
    {
      "anonymous": false,
      "inputs": [
        {
          "indexed": true,
          "internalType": "bytes32",
          "name": "gameId",
          "type": "bytes32"
        },
        {
          "indexed": true,
          "internalType": "address",
          "name": "winner",
          "type": "address"
        },
        {
          "indexed": false,
          "internalType": "uint256",
          "name": "reward",
          "type": "uint256"
        }
      ],
      "name": "GameResultSubmitted",
      "type": "event"
    },
    {
      "anonymous": false,
      "inputs": [
        {
          "indexed": true,
          "internalType": "address",
          "name": "previousOwner",
          "type": "address"
        },
        {
          "indexed": true,
          "internalType": "address",
          "name": "newOwner",
          "type": "address"
        }
      ],
      "name": "OwnershipTransferred",
      "type": "event"
    },
    {
      "anonymous": false,
      "inputs": [
        {
          "indexed": false,
          "internalType": "address",
          "name": "account",
          "type": "address"
        }
      ],
      "name": "Paused",
      "type": "event"
    },
    {
      "anonymous": false,
      "inputs": [
        {
          "indexed": true,
          "internalType": "bytes32",
          "name": "gameId",
          "type": "bytes32"
        },
        {
          "indexed": true,
          "internalType": "address",
          "name": "player",
          "type": "address"
        },
        {
          "indexed": false,
          "internalType": "uint256",
          "name": "amount",
          "type": "uint256"
        }
      ],
      "name": "PlayerStaked",
      "type": "event"
    },
    {
      "anonymous": false,
      "inputs": [
        {
          "indexed": false,
          "internalType": "address",
          "name": "account",
          "type": "address"
        }
      ],
      "name": "Unpaused",
      "type": "event"
    },
    {
      "stateMutability": "payable",
      "type": "fallback"
    },
    {
      "inputs": [],
      "name": "MAX_PLAYERS",
      "outputs": [
        {
          "internalType": "uint256",
          "name": "",
          "type": "uint256"
        }
      ],
      "stateMutability": "view",
      "type": "function"
    },
    {
      "inputs": [],
      "name": "MIN_PLAYERS",
      "outputs": [
        {
          "internalType": "uint256",
          "name": "",
          "type": "uint256"
        }
      ],
      "stateMutability": "view",
      "type": "function"
    },
    {
      "inputs": [
        {
          "internalType": "bytes32",
          "name": "gameId",
          "type": "bytes32"
        }
      ],
      "name": "cancelGame",
      "outputs": [],
      "stateMutability": "nonpayable",
      "type": "function"
    },
    {
      "inputs": [
        {
          "internalType": "bytes32",
          "name": "gameId",
          "type": "bytes32"
        },
        {
          "internalType": "address[]",
          "name": "players",
          "type": "address[]"
        },
        {
          "internalType": "uint256",
          "name": "stakeAmount",
          "type": "uint256"
        }
      ],
      "name": "createGame",
      "outputs": [],
      "stateMutability": "nonpayable",
      "type": "function"
    },
    {
      "inputs": [],
      "name": "feeCollector",
      "outputs": [
        {
          "internalType": "address",
          "name": "",
          "type": "address"
        }
      ],
      "stateMutability": "view",
      "type": "function"
    },
    {
      "inputs": [],
      "name": "feePercentage",
      "outputs": [
        {
          "internalType": "uint256",
          "name": "",
          "type": "uint256"
        }
      ],
      "stateMutability": "view",
      "type": "function"
    },
    {
      "inputs": [],
      "name": "gameExpirationTime",
      "outputs": [
        {
          "internalType": "uint256",
          "name": "",
          "type": "uint256"
        }
      ],
      "stateMutability": "view",
      "type": "function"
    },
    {
      "inputs": [],
      "name": "getActiveGameIds",
      "outputs": [
        {
          "internalType": "bytes32[]",
          "name": "",
          "type": "bytes32[]"
        }
      ],
      "stateMutability": "view",
      "type": "function"
    },
    {
      "inputs": [
        {
          "internalType": "bytes32",
          "name": "gameId",
          "type": "bytes32"
        }
      ],
      "name": "getGameExpiration",
      "outputs": [
        {
          "internalType": "uint256",
          "name": "",
          "type": "uint256"
        }
      ],
      "stateMutability": "view",
      "type": "function"
    },
    {
      "inputs": [
        {
          "internalType": "bytes32",
          "name": "gameId",
          "type": "bytes32"
        }
      ],
      "name": "getGamePlayers",
      "outputs": [
        {
          "internalType": "address[]",
          "name": "",
          "type": "address[]"
        }
      ],
      "stateMutability": "view",
      "type": "function"
    },
    {
      "inputs": [
        {
          "internalType": "bytes32",
          "name": "gameId",
          "type": "bytes32"
        }
      ],
      "name": "getGameStatus",
      "outputs": [
        {
          "internalType": "enum MONarcade.GameStatus",
          "name": "",
          "type": "uint8"
        }
      ],
      "stateMutability": "view",
      "type": "function"
    },
    {
      "inputs": [
        {
          "internalType": "bytes32",
          "name": "gameId",
          "type": "bytes32"
        },
        {
          "internalType": "address",
          "name": "player",
          "type": "address"
        }
      ],
      "name": "getPlayerStake",
      "outputs": [
        {
          "internalType": "uint256",
          "name": "",
          "type": "uint256"
        }
      ],
      "stateMutability": "view",
      "type": "function"
    },
    {
      "inputs": [
        {
          "internalType": "bytes32",
          "name": "gameId",
          "type": "bytes32"
        }
      ],
      "name": "getTotalStaked",
      "outputs": [
        {
          "internalType": "uint256",
          "name": "",
          "type": "uint256"
        }
      ],
      "stateMutability": "view",
      "type": "function"
    },
    {
      "inputs": [
        {
          "internalType": "bytes32",
          "name": "gameId",
          "type": "bytes32"
        },
        {
          "internalType": "address",
          "name": "player",
          "type": "address"
        }
      ],
      "name": "hasPlayerStaked",
      "outputs": [
        {
          "internalType": "bool",
          "name": "",
          "type": "bool"
        }
      ],
      "stateMutability": "view",
      "type": "function"
    },
    {
      "inputs": [
        {
          "internalType": "bytes32",
          "name": "gameId",
          "type": "bytes32"
        },
        {
          "internalType": "address",
          "name": "player",
          "type": "address"
        }
      ],
      "name": "isPlayerInGame",
      "outputs": [
        {
          "internalType": "bool",
          "name": "",
          "type": "bool"
        }
      ],
      "stateMutability": "view",
      "type": "function"
    },
    {
      "inputs": [],
      "name": "owner",
      "outputs": [
        {
          "internalType": "address",
          "name": "",
          "type": "address"
        }
      ],
      "stateMutability": "view",
      "type": "function"
    },
    {
      "inputs": [],
      "name": "pause",
      "outputs": [],
      "stateMutability": "nonpayable",
      "type": "function"
    },
    {
      "inputs": [],
      "name": "paused",
      "outputs": [
        {
          "internalType": "bool",
          "name": "",
          "type": "bool"
        }
      ],
      "stateMutability": "view",
      "type": "function"
    },
    {
      "inputs": [
        {
          "internalType": "address",
          "name": "to",
          "type": "address"
        },
        {
          "internalType": "uint256",
          "name": "amount",
          "type": "uint256"
        }
      ],
      "name": "recoverFunds",
      "outputs": [],
      "stateMutability": "nonpayable",
      "type": "function"
    },
    {
      "inputs": [],
      "name": "renounceOwnership",
      "outputs": [],
      "stateMutability": "nonpayable",
      "type": "function"
    },
    {
      "inputs": [
        {
          "internalType": "address",
          "name": "_feeCollector",
          "type": "address"
        }
      ],
      "name": "setFeeCollector",
      "outputs": [],
      "stateMutability": "nonpayable",
      "type": "function"
    },
    {
      "inputs": [
        {
          "internalType": "uint256",
          "name": "_feePercentage",
          "type": "uint256"
        }
      ],
      "name": "setFeePercentage",
      "outputs": [],
      "stateMutability": "nonpayable",
      "type": "function"
    },
    {
      "inputs": [
        {
          "internalType": "uint256",
          "name": "_expirationTime",
          "type": "uint256"
        }
      ],
      "name": "setGameExpirationTime",
      "outputs": [],
      "stateMutability": "nonpayable",
      "type": "function"
    },
    {
      "inputs": [
        {
          "internalType": "bytes32",
          "name": "gameId",
          "type": "bytes32"
        }
      ],
      "name": "stake",
      "outputs": [],
      "stateMutability": "payable",
      "type": "function"
    },
    {
      "inputs": [
        {
          "internalType": "bytes32",
          "name": "gameId",
          "type": "bytes32"
        },
        {
          "internalType": "address",
          "name": "winner",
          "type": "address"
        },
        {
          "internalType": "bytes[]",
          "name": "signatures",
          "type": "bytes[]"
        }
      ],
      "name": "submitResult",
      "outputs": [],
      "stateMutability": "nonpayable",
      "type": "function"
    },
    {
      "inputs": [
        {
          "internalType": "address",
          "name": "newOwner",
          "type": "address"
        }
      ],
      "name": "transferOwnership",
      "outputs": [],
      "stateMutability": "nonpayable",
      "type": "function"
    },
    {
      "inputs": [],
      "name": "unpause",
      "outputs": [],
      "stateMutability": "nonpayable",
      "type": "function"
    },
    {
      "stateMutability": "payable",
      "type": "receive"
    }
  ],
  "bytecode": "0x60803461013157601f61204138819003918201601f19168301916001600160401b038311848410176101365780849260209460405283398101031261013157516001600160a01b0381169081900361013157331561011b5760008054336001600160a01b03198216811783556040519290916001600160a01b0316907f8be0079c531659141344cd1fd0a4f28419497f9722a3daafe3b4186f6b6457e09080a36001805562015180600455600060055581156100d95750600680546001600160a01b031916919091179055604051611ef4908161014d8239f35b62461bcd60e51b815260206004820152601d60248201527f496e76616c69642066656520636f6c6c6563746f7220616464726573730000006044820152606490fd5b631e4fbdf760e01b600052600060045260246000fd5b600080fd5b634e487b7160e01b600052604160045260246000fdfe60806040526004361015610010575b005b60003560e01c8063137d61e61461139e578063146c638d14611366578063170150a4146112f75780632570069b14610f255780633c26173414610e465780633f4ba83a14610ddd5780633f7121b014610b9f5780634411b3eb14610b8357806358609754146109da5780635c975abb146109b75780635f114cf2146109145780636916c9b0146108b6578063715018a61461085d5780638456cb591461080357806385f07bbe146107e75780638da5cb5b146107be578063a001ecdd146107a0578063a42dce80146106d7578063ae06c1b71461063c578063c0d64a871461034e578063c415b95c14610325578063d26a0880146102f5578063e7c09c28146102a8578063f10e6b7e1461025b578063f2fde38b146101d2578063f6d3cf74146101615763f99d948f0361000e573461015c57600036600319011261015c576020600454604051908152f35b600080fd5b3461015c57604036600319011261015c5760043561017d611a44565b908060005260036020526101a360ff6040600020541661019c81611aa1565b1515611ac1565b600052600360205260036040600020019060018060a01b03166000526020526020604060002054604051908152f35b3461015c57602036600319011261015c576101eb611a5a565b6101f3611d42565b6001600160a01b0316801561024557600080546001600160a01b03198116831782556001600160a01b0316907f8be0079c531659141344cd1fd0a4f28419497f9722a3daafe3b4186f6b6457e09080a3005b631e4fbdf760e01b600052600060045260246000fd5b3461015c57602036600319011261015c5760043580600052600360205261028d60ff6040600020541661019c81611aa1565b60005260036020526020600460406000200154604051908152f35b3461015c57602036600319011261015c576004358060005260036020526102da60ff6040600020541661019c81611aa1565b60005260036020526020600760406000200154604051908152f35b3461015c57604036600319011261015c57602061031b610313611a44565b600435611c71565b6040519015158152f35b3461015c57600036600319011261015c576006546040516001600160a01b039091168152602090f35b602036600319011261015c57600435610365611d03565b80600052600360205261038360ff6040600020541661019c81611aa1565b6000805b826000526003602052600160406000200154811015610632578260005260036020526103ba816001604060002001611b03565b905460039190911b1c6001600160a01b031633146103da57600101610387565b50506103e66001611b31565b6103ee611d25565b806000526003602052604060002090600360ff83541661040d81611aa1565b146105f457600282019160018060a01b0333166000528260205260ff604060002054166105b7576007810154421015610572576005810154928334036105345733600090815260208281526040808320805460ff19166001179055600385019091529020849055600482018054610485908690611c48565b9055600190600090600184018054925b8381106104ea575b505050506104d9575b506040519182527f56c747fbedf585ad60199a7eaf64beaeee901b3ad2b3b7680a0342fb5285623260203393a360018055005b805460ff19166002179055826104a6565b60ff60406104f88385611b03565b905460039190911b1c6001600160a01b0316600090815260208690522054161561052457600101610495565b505050505060008480808061049d565b60405162461bcd60e51b8152602060048201526016602482015275125b98dbdc9c9958dd081cdd185ad948185b5bdd5b9d60521b6044820152606490fd5b60405162461bcd60e51b815260206004820152601f60248201527f47616d65207374616b696e6720706572696f64206861732065787069726564006044820152606490fd5b60405162461bcd60e51b8152602060048201526015602482015274141b185e595c88185b1c9958591e481cdd185ad959605a1b6044820152606490fd5b60405162461bcd60e51b815260206004820152601660248201527511d85b5948185b1c9958591e4818dbdb5c1b195d195960521b6044820152606490fd5b506103e690611b31565b3461015c57602036600319011261015c57600435610658611d42565b6103e8811161069a5760407f2235d343de14bfe1d7efed850d828da476e76eb894c4831ccfa097efc5a4544491600554908060055582519182526020820152a1005b60405162461bcd60e51b81526020600482015260156024820152744665652063616e6e6f74206578636565642031302560581b6044820152606490fd5b3461015c57602036600319011261015c576106f0611a5a565b6106f8611d42565b6001600160a01b0316801561075b5760407f649c5e3d0ed183894196148e193af316452b0037e77d2ff0fef23b7dc722bed09160065490806bffffffffffffffffffffffff60a01b83161760065582519160018060a01b031682526020820152a1005b60405162461bcd60e51b815260206004820152601d60248201527f496e76616c69642066656520636f6c6c6563746f7220616464726573730000006044820152606490fd5b3461015c57600036600319011261015c576020600554604051908152f35b3461015c57600036600319011261015c576000546040516001600160a01b039091168152602090f35b3461015c57600036600319011261015c57602060405160028152f35b3461015c57600036600319011261015c5761081c611d42565b610824611d25565b600160ff1960025416176002557f62e78cea01bee320cd4e420270b5ea74000d11b0c9f74754ebdbfc544b05a2586020604051338152a1005b3461015c57600036600319011261015c57610876611d42565b600080546001600160a01b0319811682556001600160a01b03167f8be0079c531659141344cd1fd0a4f28419497f9722a3daafe3b4186f6b6457e08280a3005b3461015c57600036600319011261015c576108cf611c55565b60405180916020820160208352815180915260206040840192019060005b8181106108fb575050500390f35b82518452859450602093840193909201916001016108ed565b3461015c57602036600319011261015c57600435610930611d42565b610e1081106109725760407f0a04319e8ad46a28137a006cf543da68117417bba59161b72e57ce45e334fe5a91600454908060045582519182526020820152a1005b60405162461bcd60e51b815260206004820152601960248201527f45787069726174696f6e2074696d6520746f6f2073686f7274000000000000006044820152606490fd5b3461015c57600036600319011261015c57602060ff600254166040519015158152f35b3461015c57604036600319011261015c576109f3611a5a565b602435906109ff611d42565b6001600160a01b038116908115610b3e574791600093610a1d611c55565b926000955b8451871015610a5b57610a53600191610a3b8988611bc4565b51600052600360205260046040600020015490611c48565b960195610a22565b610a66839187611b7d565b10610af957600080808481945af1610a7c611bf4565b5015610ab4577f59bfc682b673f8cbf945f1e454df9334834abf7dfe7f92237ca29ecb9b4366009160409182519182526020820152a1005b60405162461bcd60e51b815260206004820152601860248201527f5265636f76657279207472616e73666572206661696c656400000000000000006044820152606490fd5b60405162461bcd60e51b815260206004820152601a60248201527f43616e6e6f74207769746864726177207374616b6564204d4f4e0000000000006044820152606490fd5b60405162461bcd60e51b815260206004820152601b60248201527f43616e6e6f742073656e6420746f207a65726f206164647265737300000000006044820152606490fd5b3461015c57600036600319011261015c576020604051600a8152f35b3461015c57602036600319011261015c57600435610bbb611d03565b80600052600360205260406000209060018060a01b036000541633148015610dbe575b15610d79578154600160ff8216610bf481611aa1565b03610d345760ff191660039081178355600283019083016001840160005b8154811015610ce457610c258183611b03565b905460039190911b1c6001600160a01b031660008181526020858152604080832054918890529091205490919060ff1680610cdb575b610c6a575b5050600101610c12565b600080809381938260408160018060a01b03841681528b60205220555af1610c90611bf4565b5015610c9d578580610c60565b60405162461bcd60e51b81526020600482015260166024820152751499599d5b99081d1c985b9cd9995c8819985a5b195960521b6044820152606490fd5b50811515610c5b565b847fd48b0c9992d8d4b8967d1584dc8c1955390d9ff30639a7da9c77e7f0db86c3d8606060405160208152600e60208201526d11d85b594818d85b98d95b1b195960921b6040820152a260018055005b60405162461bcd60e51b815260206004820152601860248201527f47616d652063616e6e6f742062652063616e63656c6c656400000000000000006044820152606490fd5b60405162461bcd60e51b815260206004820152601860248201527f4e6f7420617574686f72697a656420746f2063616e63656c00000000000000006044820152606490fd5b50610dc93382611c71565b8015610bde57506007820154421015610bde565b3461015c57600036600319011261015c57610df6611d42565b60025460ff811615610e355760ff19166002557f5db9ee0a495bf2e6ff9c91a7834c1ba4fdd244a5e8aa4e537bd38aeae4b073aa6020604051338152a1005b638dfc202b60e01b60005260046000fd5b3461015c57602036600319011261015c57600435806000526003602052610e7860ff6040600020541661019c81611aa1565b600052600360205260016040600020016040518060208354918281520190819360005260206000209060005b818110610f065750505081610eba910382611b8a565b6040519182916020830190602084525180915260408301919060005b818110610ee4575050500390f35b82516001600160a01b0316845285945060209384019390920191600101610ed6565b82546001600160a01b0316845260209093019260019283019201610ea4565b3461015c57606036600319011261015c5760043560243567ffffffffffffffff811161015c57610f59903690600401611a70565b90604435610f65611d42565b610f6d611d25565b83600052600360205260ff60406000205416610f8881611aa1565b6112bc576002831015806112b1575b1561126c5780156112275760005b83811061111357508360005260036020526040600020600160ff198254161781556001810167ffffffffffffffff85116110fd576801000000000000000085116110fd5780548582558086106110d4575b508394939060005260206000209060005b8581106110b3575050509081816005600794015542600682015561102d60045442611c48565b928391015560405192806060850160608652526080840194906000905b80821061108757505050602083015260408201527fa3030d9ef1703b5cc847027f1f0e1756000444d2707b84ca93ae6e5b3d29daab9181900390a2005b9091949585359060018060a01b03821680920361015c579081526020908101969501916001019061104a565b60019060206110c484999899611c34565b9301928185015501959495611007565b8160005285602060002091820191015b8181106110f15750610ff6565b600081556001016110e4565b634e487b7160e01b600052604160045260246000fd5b6001600160a01b0361112e611129838787611c24565b611c34565b16156111e957600181018082116111d3575b8481106111505750600101610fa5565b61115e611129838787611c24565b6001600160a01b03611174611129848989611c24565b6001600160a01b0390921691161461118e57600101611140565b60405162461bcd60e51b815260206004820152601860248201527f4475706c696361746520706c61796572206164647265737300000000000000006044820152606490fd5b634e487b7160e01b600052601160045260246000fd5b60405162461bcd60e51b8152602060048201526016602482015275496e76616c696420706c61796572206164647265737360501b6044820152606490fd5b60405162461bcd60e51b815260206004820152601c60248201527f5374616b65206d7573742062652067726561746572207468616e2030000000006044820152606490fd5b60405162461bcd60e51b815260206004820152601960248201527f496e76616c6964206e756d626572206f6620706c6179657273000000000000006044820152606490fd5b50600a831115610f97565b60405162461bcd60e51b815260206004820152601360248201527247616d6520616c72656164792065786973747360681b6044820152606490fd5b3461015c57604036600319011261015c57600435611313611a44565b9080600052600360205261133260ff6040600020541661019c81611aa1565b600052600360205260026040600020019060018060a01b0316600052602052602060ff604060002054166040519015158152f35b3461015c57602036600319011261015c576004356000526003602052602060ff604060002054166040519061139a81611aa1565b8152f35b3461015c57606036600319011261015c576113b7611a44565b60443567ffffffffffffffff811161015c576113d7903690600401611a70565b916113e0611d03565b600435600052600360205261140060ff6040600020541661019c81611aa1565b60009160005b6004356000526003602052600160406000200154811015611a3857600435600052600360205261143d816001604060002001611b03565b905460039190911b1c6001600160a01b0316331461145d57600101611406565b5090915061146b6001611b31565b611473611d25565b60043560005260036020526040600020805491600260ff841661149581611aa1565b036119fc576001820154946000805b8781106119c1575b501561197057856000198101116111d35760018682030161192b576006830154604051602081019160043583526bffffffffffffffffffffffff198860601b1660408301523060601b605483015246606883015260888201526088815261151460a882611b8a565b51902060405160208101917f19457468657265756d205369676e6564204d6573736167653a0a3332000000008352603c820152603c8152611556605c82611b8a565b5190209060009261156682611bac565b6115736040519182611b8a565b828152601f1961158284611bac565b013660208301376000935b89851061175a575050505050600094600019010361171557600360049260ff191617815501549060055480151580611701575b61165b575b508280808085855af16115d6611bf4565b501561161d576040519182526001600160a01b031690600435907fb64875e7f49769075aa9aec663c4c8bfb1212018ab5bb08b6fbeeb37ddf5c36090602090a36001805580f35b60405162461bcd60e51b815260206004820152601660248201527514995dd85c99081d1c985b9cd9995c8819985a5b195960521b6044820152606490fd5b8083029083820414831517156116ed5761167b6127108592048094611b7d565b9280611688575b506115c5565b600654829182918291906001600160a01b03165af16116a5611bf4565b50156116b2578284611682565b60405162461bcd60e51b8152602060048201526013602482015272119959481d1c985b9cd9995c8819985a5b1959606a1b6044820152606490fd5b634e487b7160e01b84526011600452602484fd5b506006546001600160a01b031615156115c0565b60405162461bcd60e51b815260206004820152601b60248201527f4e6f7420656e6f7567682076616c6964207369676e61747572657300000000006044820152606490fd5b929793986117708a60018994999a959a01611b03565b905460039190911b1c6001600160a01b03169433861461191857600093845b8b811015611905576117a1818b611bc4565b516118fd576000601e198c3603018260051b8d013512156118fa578160051b8c01358c0167ffffffffffffffff8135116118f8578035360360208201136118f8576117ec8135611bd8565b906117fa6040519283611b8a565b803582523660208235830101116118f45761182b8b928460208461183495358282018386013735830101528b611d6b565b90929192611da7565b6001600160a01b03161461184d57506001905b0161178f565b929b969750979099945060019b929b9893989160001982146118e05750611878828092019885611bc4565b525b1561188a576001905b019361158d565b60405162461bcd60e51b815260206004820152602860248201527f496e76616c6964206f72206d697373696e67207369676e61747572652066726f6044820152673690383630bcb2b960c11b6064820152608490fd5b634e487b7160e01b81526011600452602490fd5b8280fd5b505b80fd5b600190611847565b509893909994955099909996919661187a565b9893945098600190979297969196611883565b60405162461bcd60e51b815260206004820152601e60248201527f496e636f7272656374206e756d626572206f66207369676e61747572657300006044820152606490fd5b60405162461bcd60e51b815260206004820152602360248201527f57696e6e6572206973206e6f74206120706c6179657220696e20746869732067604482015262616d6560e81b6064820152608490fd5b6119ce8160018701611b03565b905460039190911b1c6001600160a01b03908116908816146119f2576001016114a4565b50506001876114ac565b60405162461bcd60e51b815260206004820152601460248201527347616d65206e6f7420696e2070726f677265737360601b6044820152606490fd5b50909161146b90611b31565b602435906001600160a01b038216820361015c57565b600435906001600160a01b038216820361015c57565b9181601f8401121561015c5782359167ffffffffffffffff831161015c576020808501948460051b01011161015c57565b60041115611aab57565b634e487b7160e01b600052602160045260246000fd5b15611ac857565b60405162461bcd60e51b815260206004820152601360248201527211d85b5948191bd95cc81b9bdd08195e1a5cdd606a1b6044820152606490fd5b8054821015611b1b5760005260206000200190600090565b634e487b7160e01b600052603260045260246000fd5b15611b3857565b60405162461bcd60e51b815260206004820152601960248201527f4e6f74206120706c6179657220696e20746869732067616d65000000000000006044820152606490fd5b919082039182116111d357565b90601f8019910116810190811067ffffffffffffffff8211176110fd57604052565b67ffffffffffffffff81116110fd5760051b60200190565b8051821015611b1b5760209160051b010190565b67ffffffffffffffff81116110fd57601f01601f191660200190565b3d15611c1f573d90611c0582611bd8565b91611c136040519384611b8a565b82523d6000602084013e565b606090565b9190811015611b1b5760051b0190565b356001600160a01b038116810361015c5790565b919082018092116111d357565b60405190611c64602083611b8a565b6000808352366020840137565b9081600052600360205260ff60406000205416611c8d81611aa1565b15611cfc5760005b826000526003602052600160406000200154811015611cf457826000526003602052611cc8816001604060002001611b03565b905460039190911b1c6001600160a01b0390811690831614611cec57600101611c95565b505050600190565b505050600090565b5050600090565b600260015414611d14576002600155565b633ee5aeb560e01b60005260046000fd5b60ff60025416611d3157565b63d93c066560e01b60005260046000fd5b6000546001600160a01b03163303611d5657565b63118cdaa760e01b6000523360045260246000fd5b8151919060418303611d9c57611d9592506020820151906060604084015193015160001a90611e29565b9192909190565b505060009160029190565b611db081611aa1565b80611db9575050565b611dc281611aa1565b60018103611ddb5763f645eedf60e01b60005260046000fd5b611de481611aa1565b60028103611e01575063fce698f760e01b60005260045260246000fd5b600390611e0d81611aa1565b14611e155750565b6335e2f38360e21b60005260045260246000fd5b91907f7fffffffffffffffffffffffffffffff5d576e7357a4501ddfe92f46681b20a08411611eb2579160209360809260ff60009560405194855216868401526040830152606082015282805260015afa15611ea6576000516001600160a01b03811615611e9a5790600090600090565b50600090600190600090565b6040513d6000823e3d90fd5b5050506000916003919056fea264697066735822122099a068bc307e920bcf3279f3356dc0cc6037ffcfcb5e77ec5c517f43d8a974e564736f6c634300081c0033",
  "linkReferences": {},
  "deployedLinkReferences": {}
}